S3150800000078C70020B902000821230008D116000885
S3150800001077220008C1110008C33700080000000055
S31508000020000000000000000000000000D92E0008B3
S31508000030AD14000800000000A9230008D10200083A
S31508000040D3020008D3020008D3020008692C00086E
S31508000050D3020008D3020008D3020008D30200081E
S31508000060D3020008D3020008D3020008D30200080E
S31508000070D3020008D3020008D3020008D3020008FE
S31508000080D3020008D3020008D302000800000000CB
S31508000090000000000000000000000000D302000875
S315080000A0D30200087D330008D3020008D3020008F3
S315080000B0A9330008D533000801340008D302000824
S315080000C0D3020008D3020008D3020008D3020008AE
S315080000D0D3020008DD360008D3020008000000003D
S315080000E0D302000855250008D302000800000000C6
S315080000F0000000000000000000000000D302000815
S3150800010000000000D3020008D3020008D30200084A
S3150800011000000000000000000000000000000000D1
S31508000120D3020008D3020008D3020008C51100084C
S31508000130D3020008000000000000000000000000D4
S31508000140000000000000000000000000D3020008C4
S31508000150D3020008D3020008D3020008D30200081D
S31508000160D3020008D30200080000000000000000C7
S315080001700000000000000000000000000000000071
S3150800018000000000D3020008000000000000000084
S31508000190D3020008D302000800F002F800F063F862
S315080001A00AA090E8000C82448344AAF10107DA45C4
S315080001B001D100F058F8AFF2090EBAE80F0013F0B3
S315080001C0010F18BFFB1A43F00103184728920600CF
S315080001D0489206000A444FF0000C10F8013B13F051
S315080001E0070408BF10F8014B1D1108BF10F8015B82
S315080001F0641E05D010F8016B641E01F8016BF9D175
S3150800020013F0080F1EBF10F8014BAD1C0C1B09D1CB
S315080002106D1E58BF01F801CBFAD505E014F8016B3D
S3150800022001F8016B6D1EF9D59142D6D370470000CF
S315080002300023002400250026103A28BF78C1FBD8E1
S31508000240520728BF30C148BF0B607047642900F0C9
S31508000250FB80002070471FB52BF0AFFF00F0E1F9D7
S315080002601FBD10B510BD00F0B5FB1146FFF7F3FF33
S3150800027024F07AFA00F0D3FB03B4FFF7F2FF03BCCD
S3150800028008F038F80B49D1F800C04A685CF8043B16
S315080002901068184442F8040B8C4528BFA1F1DC0C01
S315080002A08A4228BFA1F1DC02C1F800C04A6020F0EA
S315080002B0004070470CC1002009488047094800479C
S315080002C0FEE7FEE7FEE7FEE7FEE7FEE7FEE7FEE7F8
S315080002D0FEE7FEE704480549054A064B7047000055
S315080002E0153300089901000878C1002078C7002056
S315080002F078C3002078C30020704753EA020C00F048
S3150800030069802DE9F04B4FF00006002B1FBFB3FAAA
S3150800031083F503FA05F424FA05F65E4012BF164380
S31508000320B2FA82F502FA05F4C5F120051EBF22FAD3
S3150800033005FC44EA0C04203556EA044C4FEA1444FA
S3150800034018BF641C4FF000084FF00009904271EB8B
S31508000350030C39D3002919BFB1FA81F701FA07F658
S31508000360B0FA80F700FA07F6C7F120071EBF20FA91
S3150800037007FC46EA0C062037B6FBF4FCA7EB050794
S31508000380103F07F01F0BCBF120060CFA0BFB2CFADB
S3150800039006F644BFB3460026202FA4BF5E464FF09C
S315080003A0000B5BEA060C08BF4FF0010B19EB0B09B3
S315080003B0ABFB027C48EB0608C01B06FB02CC0BFB1A
S315080003C003CC71EB0C01C1E70B4602464146484691
S315080003D0BDE8F08B13B54FF000004FF00001AFF306
S315080003E00080BDE81C40704710B54C1084EA5304E1
S315080003F004D54042C1F1000138BF491E1B4204D54D
S315080004005242C3F1000338BF5B1EFFF776FF14F0B4
S31508000410804F04D04042C1F1000138BF491E14F094
S31508000420004F04D05242C3F1000338BF5B1E10BD13
S315080004300FB4044910B503AA029800F08BFA10BC51
S315080004405DF814FBE00400202DE9F041064600247F
S3150800045010687529314616A510D0AFF3008000281C
S3150800046002DA404213A507E031688A0701D512A5CA
S3150800047002E0490704D511A5012401E0AFF3008085
S3150800048000210A2206F1240709E0B0FBF2FCB0FBC2
S31508000490F2F302FB1C00303078541846491C002839
S315080004A0F3D123462A463046BDE8F04100F0E1B9CB
S315080004B0000000002D0000002B00000020000000B6
S315080004C02DE9F05F894604464FF0000ADFF824B1AB
S315080004D0FB44C0F820A02046E168884700287DD064
S315080004E0252806D0D4E901219047206A401C2062BD
S315080004F0F1E700255F462046E1688847202806463A
S3150800050007DB312E05D2B81910F8200C08B10543BF
S31508000510F1E7A80701D525F00405C4F81CA00027B3
S31508000520C4F818A02A2E09D0304604F07BFA38B34E
S3150800053004EB8708303EC8F8186019E059F8041B20
S31508000540204604EB87029161E1688847012F064639
S3150800055018D1E069002820DA25F020051DE0D8F832
S31508000560180000EB800006EB40003038C8F8180089
S315080005702046E1688847064604F054FA0028EED17A
S31508000580012F0AD02E2E08D12046E16888477F1C05
S315080005900646022F45F02005C4DBA069002803DAC9
S315080005A0404245F00105A061E80701D025F0100595
S315080005B0A6B1A6F14100192802D8203645F40065EF
S315080005C04A463146204625604D46FFF73FFE60B154
S315080005D0012807D0ED1D25F0070000E007E000F12F
S315080005E0080978E705F1040975E730467AE7206ACD
S315080005F0BDE8F09F308B06000B4910B5A1F17C02CF
S315080006000A4CC2E93712372106E000EB104342F8DC
S315080006102130074B00FB03400B1EA1F10101F4DC5E
S3150800062010BD0120E8E70000ACC00020E119D6663D
S31508000630CD0D010040EA010310B59B070FD1042A2E
S315080006400DD310C808C9121F9C42F8D020BA19BA8F
S31508000650884201D9012010BD4FF0FF3010BD1AB1F4
S31508000660D30703D0521C07E0002010BD10F8013B49
S3150800067011F8014B1B1B07D110F8013B11F8014B70
S315080006801B1B01D1921EF1D1184610BD40EA010389
S31508000690024630B59B0710D14FF0013400E008C27E
S315080006A008C91D1B9D4315EAC41FF8D013F0FF01A6
S315080006B002F8011B0DD01B0AF8E711F8013B002BC5
S315080006C002F8013B05D011F8013B002B02F8013B6B
S315080006D0F3D130BD10B5431C02E010F8011B71B10F
S315080006E08107FAD14FF0013202C88C1A8C4314EAFA
S315080006F0C211F9D0C01A0A0603D0C01E10BDC01A0E
S3150800070010BD0A0401D0801E10BD0902FCD0401E8F
S3150800071010BD10B5203AC0F00B80B1E81850203A49
S31508000720A0E81850B1E81850A0E81850BFF4F5AF83
S315080007305FEA027C24BFB1E81850A0E8185044BF0D
S3150800074018C918C0BDE810405FEA827C24BF51F87A
S31508000750043B40F8043B08BF7047D20728BF31F86E
S31508000760023B48BF11F8012B28BF20F8023B48BFBF
S3150800077000F8012B704702F0FF0343EA032242EA1E
S31508000780024200F0FBB84FF0000200B5134694464B
S315080007909646203922BFA0E80C50A0E80C50B1F1CB
S315080007A02001BFF4F7AF090728BFA0E80C5048BFDF
S315080007B00CC05DF804EB890028BF40F8042B08BF7D
S315080007C0704748BF20F8022B11F0804F18BF00F879
S315080007D0012B70474FF0013C50F8042B51F8043BAD
S315080007E09A4221D1A2EB0C03934313EACC1317D1F7
S315080007F050F8042B51F8043B9A4215D1A2EB0C038E
S31508000800934313EACC130BD150F8042B51F8043B4D
S315080008109A4209D1A2EB0C03934313EACC13DBD01B
S315080008204FF00000704700BFD01A01BAB1FA81F143
S3150800083001F0180122FA01F0CB40C1F12001DBB228
S31508000840C0B2C01A2CFA01F3D11A914311EAC311A6
S31508000850E6D17047704770477047704710B500F08B
S31508000860ADF8006810BD10B5044600F0A7F804609E
S3150800087010BD2DE9F0470D4699469246044600F10B
S3150800088024080168880604D5E06921F01001216072
S3150800089000E00120A84201DD471B00E00027A1690E
S315080008A07A1902EB0900081AA0612078C00602D45A
S315080008B02046AFF30080002608E0D4E901211AF8A3
S315080008C006009047206A401C761C20624E45F4DBE1
S315080008D02078C0060AD52046AFF3008006E0D4E9A2
S315080008E0012130209047206A401C2062381EA7F15B
S315080008F00107F4DC07E0D4E9012118F80500904760
S31508000900206A401C2062281EA5F10105F3DC20465A
S31508000910AFF300802078000602D50220BDE8F087F4
S315080009200120FBE701694A1C02610878704700B597
S315080009308FB0CDE901310021059105497944CDE90A
S31508000940031011466846FFF7BBFD0FB000BD000057
S31508000950E5FFFFFF074B70B50D467B44FFF7E7FF42
S315080009600446284600F02EF810B14FF0FF3070BD4F
S31508000970204670BD970F01004FF000020429C0F011
S31508000980128010F0030C3FF400AFCCF1040CBCF15C
S31508000990020F18BF00F8012BA8BF20F8022BA1EB05
S315080009A00C01FFF7F2BE5FEAC17C24BF00F8012BF9
S315080009B000F8012B48BF00F8012B70470048704724
S315080009C014C10020007B00F0800070470048704783
S315080009D014C100207546FFF7F9FFAE4605006946C3
S315080009E0534620F00700854618B020B5FFF772FC7D
S315080009F0BDE820404FF000064FF000074FF0000812
S31508000A004FF0000B21F00701AC46ACE8C009ACE892
S31508000A10C009ACE8C009ACE8C0098D46704710B5F6
S31508000A200446AFF300802046BDE81040FFF724BC1B
S31508000A3021B1826842F00102826003E0826822F0F6
S31508000A4001028260704700000021084A1168084ABE
S31508000A501140D0E900231A4383681A43C3681A432E
S31508000A601143044AC2F804137047000004230140E6
S31508000A70E030FCFF002001400146C86C80B2704798
S31508000A800246002013680B400BB1012000E000204D
S31508000A907047000030B50246002000235068104C0D
S31508000AA020400D790C6844EA05242043506090687C
S31508000AB00C4C2040D1E903542C438D682C434D79C6
S31508000AC044EA450420439060D06A20F470000C7D07
S31508000AD0641EE4B2234340EA0350D06230BD0000EE
S31508000AE0FFFEFFFCFDF7FFC0F0B504460D460020EB
S31508000AF00021092D11DDE068A5F10A0606EB460777
S31508000B00072606FA07F18843A5F10A0606EB460604
S31508000B1003FA06F10843E0600CE0206905EB450797
S31508000B20072606FA07F1884305EB450603FA06F198
S31508000B3008432061072A0FDA606B561E06EB860704
S31508000B401F2606FA07F18843561E06EB860605FA9F
S31508000B5006F10843606322E00D2A0FDA206BD61FE0
S31508000B6006EB86071F2606FA07F18843D61F06EB0B
S31508000B70860605FA06F10843206310E0E06AA2F14A
S31508000B800D0606EB86071F2606FA07F18843A2F12B
S31508000B900D0606EB860605FA06F10843E062F0BD87
S31508000BA0816841F0804181607047000010B50020DF
S31508000BB0044908700448054908600146C8681EF0DB
S31508000BC09FFF10BD550400205C0400205804002037
S31508000BD02DE9F0415D48007830B101283ED0022861
S31508000BE063D0032839D187E000205949087059484D
S31508000BF0006822F013F9044601221146564802F00D
S31508000C002DFC564804600120554908705348006871
S31508000C10022806D1002302220121524823F06EF849
S31508000C2013E04E48006830B90023022201214E48DD
S31508000C3023F064F809E049480068012805D1002333
S31508000C4002220121494823F059F8601C044681B262
S31508000C5001224048006822F031FB74E001203C493B
S31508000C6008704348006822F0D9F80446601C044618
S31508000C7081B201223E48006822F020FB3D48006808
S31508000C8022F0CCF8C5B23A48006822F0C7F8C6B2D6
S31508000C903948006822F0C2F8401CC7B200232A4629
S31508000CA03146384601F032FF4DE0012028490870E8
S31508000CB03048006822F0B2F80446601C044681B247
S31508000CC001222C48006822F0F9FA2A48006822F026
S31508000CD0A5F8C5B22648006822F0A0F8C6B226488C
S31508000CE0006822F09BF8401CC7B200232A4631460A
S31508000CF0384601F00BFF26E00020154908701E480B
S31508000D00006822F08BF80446601C044681B2012272
S31508000D101948006822F0D2FA1648006822F07EF8D0
S31508000D20C5B21348006822F079F8C6B212480068BE
S31508000D3022F074F8401CC7B200232A4631463846CA
S31508000D4001F0E4FE00BF00BFBDE8F081B00200205C
S31508000D5055040020A802002000080040B402002024
S31508000D602C0400209D0E0008490F000811100008E9
S31508000D70A0020020A40200209C0200201CB500202E
S31508000D80154908701548006801901549154A1278E2
S31508000D9051F8220000221146019B1FF053FC11480E
S31508000DA00078401C0F4908700878C11700EB91714C
S31508000DB08910A0EB81010B4A11700848001D0068D4
S31508000DC000900749127851F8220000221146009B2C
S31508000DD01FF038FC1CBD000055040020988F06083B
S31508000DE0AC870020B002002010B507F09BFF25F065
S31508000DF0B5FD26F00FFB28F051FD10BD00B58DB0EE
S31508000E000121084601F0D2FA0121080201F0EEFAA2
S31508000E1002200B9003208DF8300000208DF8330057
S31508000E200BA91C4800F094FB01200B9003208DF8B9
S31508000E3030008DF8310000208DF833000BA91548D5
S31508000E4000F086FB0121080201F0E0FA00214FF4C8
S31508000E50807001F0DBFA002007900A9009904FF4A1
S31508000E608030089007A8FFF7EFFD002001908DF865
S31508000E7008008DF809000390059002208DF81800E7
S31508000E8001A90548FFF706FE01210348FFF7D0FD33
S31508000E900DB000BD000002400020014010B5044618
S31508000EA024480068401C2349086008460068002852
S31508000EB007DD08460068642803DA19201E49086019
S31508000EC00FE01C480068C82808DD1A480068B0F515
S31508000ED0FA7F03DA5F201849086002E00020164905
S31508000EE0086014480068B0F5487F07DB0020114900
S31508000EF0086012480068401C104908600F480068DE
S31508000F00052806D00E48007890B10C4800680228DB
S31508000F100EDD00200749086008490860084908707E
S31508000F2000220121074802F099FA204622F062FFC2
S31508000F3010BD000038040020280400203C040020CE
S31508000F402C0400200008004010B504462B48006811
S31508000F50401C2A49086008460068002807DD08463C
S31508000F600068642803DA1920254908601DE023482B
S31508000F700068C82808DD21480068B0F5967F03DABE
S31508000F8028201F49086010E01C480068B0F5C87F93
S31508000F9008DD1A480068B0F5FA7F03DA19201849FF
S31508000FA0086002E000201649086014480068B0F599
S31508000FB0487F07DB00201149086012480068401C7A
S31508000FC0104908600F480068052806D00E480078C2
S31508000FD090B10C48006802280EDD00200749086019
S31508000FE0084908600849087000220121074802F0EC
S31508000FF035FA204622F0FEFE10BD0000400400200F
S3150800100028040020440400202C0400200008004086
S3150800101010B5044632480068401C31490860084645
S315080010200068002807DD08460068642803DA1920E6
S315080010302C4908602BE02A480068C82808DD28489B
S315080010400068B0F5967F03DA2820264908601EE076
S3150800105023480068B0F5C87F08DD21480068B0F568
S31508001060FA7F03DA19201F49086010E01C48006857
S31508001070B0F5167F08DD1A480068B0F52F7F03DA49
S315080010803C201849086002E0002016490860144808
S315080010900068B0F5966F07DB002011490860124812
S315080010A00068401C104908600F480068052806D0EB
S315080010B00E48007890B10C48006802280EDD002022
S315080010C00749086008490860084908700022012194
S315080010D0074802F0C3F9204622F08CFE10BD000036
S315080010E048040020280400204C0400202C0400207A
S315080010F00008004010B5044617480068401C164909
S31508001100086008460068002807DD08460068642865
S3150800111003DA1920114908600EE00F480068A02874
S3150800112007DD0D480068F02803DA28200B49086017
S3150800113002E000200949086007480068F0280ADB31
S3150800114000200549086000220121054802F086F9B9
S31508001150204622F04FFE10BD34040020280400204B
S315080011600008004000B587B00121042001F01EF9EF
S315080011704FF40050059003208DF8190001208DF8D2
S31508001180180000208DF81A0001208DF81B0005A90B
S31508001190084800F0DDF9142207496846FFF7B9FA4E
S315080011A0684629F0B9FA00220121044802F056F9E6
S315080011B007B000BD00080240F08F0608000800408E
S315080011C000BFFEE710B50949094800F0F3F858B121
S315080011D01021084800F029FA0748006816F064F854
S315080011E00249034800F00AF810BD00000080001804
S315080011F05864024000000240D80400200246094B09
S315080012009A4201D2084801E00648103801F0005316
S315080012101BB1064B0B40C36002E0044B0B408360D6
S315080012207047000010640240006002407D0F7D0F89
S3150800123021B1026842F00102026003E0026822F06E
S315080012400102026070470000016821F00101016097
S315080012500021016041608160C16001612121416115
S315080012604A49884204D13D21484A103A91608CE0A7
S3150800127046491831884205D14FF47461434A103AF9
S31508001280916082E041493031884205D14FF47411AA
S315080012903E4A103A916078E03C494831884205D187
S315080012A04FF07461394A103A91606EE037496031FF
S315080012B0884204D13649354A103AD16065E0334947
S315080012C07831884204D13349304A103AD1605CE01B
S315080012D02E499031884204D12F492C4A103AD160C0
S315080012E053E02A49A831884205D14FF03D51274A93
S315080012F0103AD16049E02949884204D13D21274A5C
S31508001300083A116041E025491831884205D14FF461
S315080013107461224A083A116037E020493031884220
S3150800132005D14FF474111D4A083A11602DE01B4986
S315080013304831884205D14FF07461184A083A11605D
S3150800134023E016496031884204D11149134A121F15
S3150800135011601AE011497831884204D10D490F4AC3
S31508001360121F116011E00D499031884204D10A49D3
S315080013700A4A121F116008E00849A831884204D1B8
S315080013804FF03D51054A121F116070471060024028
S315080013903D000020400F002000003D201064024060
S315080013A0014600200A6802F001020AB1012000E0A5
S315080013B00020704770B50246002000240025124E12
S315080013C0B24201D2114B01E00F4B103B104E0E40BA
S315080013D036B11E2606EAD124166806EA040502E096
S315080013E0566906F0800501F000560EB15C6800E00B
S315080013F01C68084E344004EA010616B10DB10120F6
S3150800140000E0002070BD0000106402400060024049
S315080014103C0F3C0F7D0F7D0F10B501F080034BB1DB
S3150800142022B1436943F08003436103E0436923F033
S315080014308003436180290BD02AB1036801F01E049A
S315080014402343036004E0036801F01E04A34303601A
S3150800145010BD000010B500220268134B1A40CC6874
S315080014600B6823434C6923438C692343CC69234384
S315080014700C6A23434C6A23438C6A23434C6B2343ED
S315080014808C6B23431A430260426922F00702D1E9B2
S315080014900B3423431A4342610B6943604B688360EC
S315080014A08B68C36010BD00003F801CF070470000C9
S315080014B00149086070470000143C01400021234997
S315080014C08279002A3AD00A46126803689A430B467C
S315080014D01A600A1D126803689A430B1D1A6002797E
S315080014E011440A6803681A430A60184A08321268DF
S315080014F003689A43154B08331A601A1D1268036865
S315080015009A43124B0C331A604279102A0ED11A1FCD
S31508001510126803681A430D4B08331A601A1D1268BD
S3150800152003681A43094B0C331A600DE007494279E0
S3150800153011440A6803681A430A6005E002791144EF
S315080015400A6803689A430A6070470000003C014035
S31508001550F0B50A4600210023002400BF3DE001251E
S3150800156005FA01F3156805EA03049C4234D10568B7
S315080015704F000326BE40B543056015794E00B540B9
S315080015800668354305601579012D02D01579022DB7
S3150800159016D185684F000326BE40B5438560557948
S315080015A04E00B540866835438560456801268E40FD
S315080015B0B5434560456896798E40B6B23543456071
S315080015C0C5684F000326BE40B543C560D5794E00B1
S315080015D0B540C6683543C560491C1029BFD3F0BD60
S315080015E0F0B5002300244D07ED0E02FA05F3CE10E0
S315080015F000F1200555F826504E07F70E0F26BE4077
S31508001600B543CF1000F1200646F82750CE1000F15A
S31508001610200555F8265045EA0304CE1000F12005AA
S3150800162045F82640F0BD41837047018370470000A6
S3150800163010B510F077F900200449087004480549E8
S3150800164008600146C8681EF05BFA10BD5504002004
S315080016505C0400205804002010B50448007820B91E
S3150800166010F0A6F901200149087010BDD10200202A
S3150800167010B510F057F910BD2DE9F04107460C4694
S315080016800025002605E0384600F00AF80544701CD7
S31508001690C6B2A642F7DBB5FBF4F080B2BDE8F0812E
S315080016A010B50446E1B2072301220848FFF71CFAE1
S315080016B00648FFF775FA00BF02210448FFF7E0F96C
S315080016C00028F9D00148FFF7D7F910BD00200140DE
S315080016D000BFFEE700B587B064200AF065FF00F09A
S315080016E029FA01214FF4E15028F07CFF00F02EF88A
S315080016F000F016F90020F02387220146009000F03A
S31508001700B4F8FFF77BFBFFF72DFD00BF00F072FC76
S315080017100028FBD100BF23F031FD0028FBD100F0E3
S31508001720ACFD0021042001F067FA1422064902A83C
S31508001730FEF7EFFF02A828F0EFFF1AF0C7FB20F02C
S315080017401DFB07B000BD0000587D05081CB501212A
S31508001750022000F04BFE47F24000009000208DF872
S31508001760040001208DF8070003208DF8050069465E
S315080017700148FFF7EDFE1CBD0004024010B5044603
S315080017802548007801282BD12448006858B12348F9
S315080017901C30006838B121482030006818B11F484D
S315080017A018300068E0B90C200AF01CFF00201A491E
S315080017B008701A48006808B9012010BD17481C307F
S315080017C0006808B90220F8E714482030006808B90C
S315080017D00320F2E7114818300068B0B90420ECE796
S315080017E00E480068012810D10C481C3000680128F2
S315080017F00BD10A4820300068012806D1074818305E
S315080018000068012801D104490870012C02D1012081
S31508001810014908700020D0E7CC0400201882404215
S315080018202DE9F04104460D4616461F462A2000F0CB
S3150800183057F904F1340188B200F042F906F134018F
S3150800184088B200F03DF92B2000F04AF905F128018D
S3150800185088B200F035F907F1280188B200F030F9AE
S315080018602C2000F03DF9BDE8F0812DE9F047064649
S315080018700F4614461D46DDF820A0681E83B2601E7A
S3150800188082B239463046FFF7CBFFB8460EE0B1467E
S3150800189006E0504600F014F909F101001FFA80F934
S315080018A0A145F6DB08F101001FFA80F8A845EEDB32
S315080018B0BDE8F0871CB50121032000F077FD012063
S315080018C000908DF8040000208DF8060003208DF89E
S315080018D0050001208DF8070069460F48FFF738FE16
S315080018E001210D48FFF7A1FE4020009001208DF848
S315080018F0040000208DF8060003208DF8050001205D
S315080019008DF8070069460548FFF722FE402103487F
S31508001910FFF78BFE1CBD00000004024000000240D9
S3150800192010B501F07FFAFFF7C5FF01216348FFF7FD
S315080019307AFE0A200AF056FE01216048FFF775FE76
S315080019400A200AF04FFE0A200AF04CFE112000F089
S31508001950C7F878200AF046FE362000F0C1F80020C5
S3150800196000F0B7F83A2000F0BBF8052000F0B1F80F
S31508001970B22000F0B5F80C2000F0ABF80C2000F00F
S31508001980A8F8002000F0A5F8332000F0A2F83320CC
S3150800199000F09FF8B72000F0A3F8352000F099F87A
S315080019A0BB2000F09DF8192000F093F8C02000F045
S315080019B097F82C2000F08DF8C22000F091F801204D
S315080019C000F087F8C32000F08BF8122000F081F8A9
S315080019D0C42000F085F8202000F07BF8C62000F02F
S315080019E07FF80F2000F075F8D02000F079F8A420D1
S315080019F000F06FF8A12000F06CF8E02000F070F815
S31508001A00D02000F066F8042000F063F80D2000F0FE
S31508001A1060F8112000F05DF8132000F05AF82B202A
S31508001A2000F057F83F2000F054F8542000F051F821
S31508001A304C2000F04EF8182000F04BF80D2000F06E
S31508001A4048F80B2000F045F81F2000F042F8232044
S31508001A5000F03FF8E12000F043F8D02000F039F814
S31508001A60042000F036F80C2000F033F8112000F0BE
S31508001A7030F8132000F02DF82C2000F02AF83F202B
S31508001A8000F027F8442000F024F8512000F021F84F
S31508001A902F2000F01EF81F2000F01BF81F2000F072
S31508001AA018F8202000F015F8232000F012F821205D
S31508001AB000F016F8292000F013F810BD00040240C3
S31508001AC010B50446201200F01BF8E0B200F018F832
S31508001AD010BD10B50446204600F012F810BD0000EF
S31508001AE010B5044640210548FFF79DFD204600F045
S31508001AF007F840210148FFF798FD10BD0000024095
S31508001B0010B5044600BF0221094801F05EF9002815
S31508001B10F9D02146064801F064F900BF01210448BE
S31508001B2001F053F90028F9D0014801F057F910BD22
S31508001B30003001401CB50121062000F037FC4FF4A7
S31508001B400050009003208DF8050001208DF8040050
S31508001B5000208DF8060001208DF807006946074821
S31508001B60FFF7F6FC44F22000009069460448FFF7A8
S31508001B70EFFC20210248FFF758FD1CBD0008024073
S31508001B800004024010B500200449087004480549BD
S31508001B9008600146C8681DF0B3FF10BD5504002053
S31508001BA05C0400205804002010B52DED048B01209C
S31508001BB01A4908701A4800686430194908600846C6
S31508001BC00068B0F5E15F02D34FF4E15008601448AD
S31508001BD00068642148434FF4E151B0FBF1F0114924
S31508001BE00860084610A10268124800681BF0C6FA89
S31508001BF00C48006829F049FF9FED0F0B53EC102B9A
S31508001C0029F0AAFF29F014FF84B2224600210C48C5
S31508001C10006813F0CFF9BDEC048B10BD5504002005
S31508001C2040040040F8020020236666666666662061
S31508001C3025642000F0020020CDCCCCCCCCCC0C40C6
S31508001C40F402002010B52DED048B01201A49087006
S31508001C501A480068642802D864201849086017489A
S31508001C6000686438154908600846006864214843D6
S31508001C704FF4E151B0FBF1F011490860084611A193
S31508001C800268134800681BF079FA0D48006829F0C5
S31508001C90FCFE9FED100B53EC102B29F05DFF29F08D
S31508001CA0C7FE84B2224600210C48006813F082F968
S31508001CB0BDEC048B10BD0000550400204004004014
S31508001CC0F80200202366666666666620256420009C
S31508001CD0F0020020CDCCCCCCCCCC0C40F4020020B9
S31508001CE010B507F08BF809F009FE10BD10B52DEDFB
S31508001CF0088B82B001AB02224121682000F0D4F99A
S31508001D009DF805009DF8041040EA012004B220461B
S31508001D1029F0BBFE41EC1B0B9FED0C0B53EC102B73
S31508001D2029F0FEFC41EC1A0B9FED0A0B53EC102B25
S31508001D3029F042FC41EC190B29F00CFC08EE100ABC
S31508001D40B0EE480A02B0BDEC088B10BD00000000DA
S31508001D5000407540A4703D0AD743424010B50020A4
S31508001D600E4908600E48006820F440300C490860A7
S31508001D700846006840F48030086000200949C1F828
S31508001D80A00200F011F801200449086000F00CF8E0
S31508001D9000200449C1F8A40210BD0000A4824042F4
S31508001DA0000402400080404210B502200AF036FCCA
S31508001DB010BD00001CB50121022000F017FB4FF4EE
S31508001DC04070009003208DF8050001208DF804006E
S31508001DD000208DF8060069460148FFF7B9FB1CBDCF
S31508001DE00004024010B500200E4908600E4800683D
S31508001DF020F440300C4908600846006840F48030FA
S31508001E00086001200949C1F8A002FFF7CDFF0120AB
S31508001E1004490860FFF7C8FF00200449C1F8A40276
S31508001E2010BD0000A48240420004024000804042E7
S31508001E3070B5054600241548006820F4403013495B
S31508001E400860084600680860002614E0002010496B
S31508001E500860FFF7A9FF01200E49C1F8A402600631
S31508001E60040E0B488438006808B1601CC4B2FFF73A
S31508001E709BFF701CC6B2082EE8DB15B9FFF7B2FF48
S31508001E8001E0FFF76BFF204670BD0000000402402A
S31508001E90A48240420080404270B504461648006855
S31508001EA020F44030144908600846006840F4803041
S31508001EB00860002011490860002519E0E00920B1F2
S31508001EC001200E49091F086003E000200B49091F7D
S31508001ED008606006040E012008490860FFF764FFE1
S31508001EE000200749C1F8A402FFF75EFF681CC5B2C7
S31508001EF0082DE3DB70BD000000040240A4824042C6
S31508001F000080404210B50E48006820F440300C4965
S31508001F1008600846006840F48030086001200949D6
S31508001F2008600949C1F8A402FFF73EFF00200549E9
S31508001F300860FFF739FF00200349C1F8A40210BD65
S31508001F4000040240A08240420080404210B50E487C
S31508001F50006820F440300C4908600846006840F4E0
S31508001F60803008600020094908600949C1F8A002C4
S31508001F70FFF71AFF0120054908600549C1F8A002C4
S31508001F80FFF712FF10BD000000040240A482404281
S31508001F900080404210B500241348006820F4403001
S31508001FA01149086008460068086001200F49086062
S31508001FB0FFF7FAFE01200E49C1F8A402FFF7F4FE66
S31508001FC007E0601CC4B2FA2C03DDFFF7BFFF01204F
S31508001FD010BD0648803800680028F2D10349091D5B
S31508001FE0086000BFF4E7000000040240A0824042F7
S31508001FF00080404210B5FFF7DDFE80216B2000F01F
S31508002000D7F864200AF0EEFA00216B2000F0D0F829
S31508002010032000F08BF8002000F080F8C82000F0BC
S31508002020AAF80021382000F0C3F800216A2000F041
S31508002030BFF80021232000F0BBF88021372000F0EC
S31508002040B7F8752000F013F80446682C0BD1012167
S315080020506B2000F0ADF800216C2000F0A9F8C8202C
S3150800206000F089F801E0012010BD0020FCE770B5FA
S315080020700446FFF747FFD020FFF70EFFFFF78AFF5A
S315080020802046FFF709FFFFF785FFFFF73BFFD12043
S31508002090FFF702FFFFF77EFF0020FFF7C9FE0546A0
S315080020A0FFF754FF284670BD2DE9F04106460F4656
S315080020B014461D46FFF726FF002141EA4601C8B22D
S315080020C0FFF7EAFEFFF766FF20B1FFF73FFF0120A3
S315080020D0BDE8F0813846FFF7DFFEFFF75BFFFFF745
S315080020E011FF012101EB4601C8B2FFF7D5FEFFF744
S315080020F051FF0DE0012C04D10020FFF799FE28704E
S3150800210003E00120FFF794FE2870601EC4B26D1C20
S31508002110002CEFD1FFF71AFF0020D9E710B50446C7
S31508002120E006010E1C2000F043F810BD10B5044669
S31508002130E006010E1B2000F03BF810BD70B5044602
S315080021400025BC2C01DB012510E0622C01DB0225F1
S315080021500CE02A2C01DB032508E0142C01DB0425FE
S3150800216004E00A2C01DB052500E0062529461A208D
S3150800217000F01EF870BD70B50446B4F57A7F01DD2F
S315080021804FF47A74042C00DA04244FF47A7090FB26
S31508002190F4F0401EC5B22946192000F009F8054694
S315080021A0264604EBD671C1F34F00FFF7C7FF70BD93
S315080021B070B505460C46FFF7A5FED020FFF76CFE66
S315080021C0FFF7E8FE18B1FFF7C1FE012070BD2846EB
S315080021D0FFF762FEFFF7DEFE2046FFF75DFEFFF71C
S315080021E0D9FE18B1FFF7B2FE0120EFE7FFF7AEFE02
S315080021F00020EBE72DE9F04105460E4617469846BE
S31508002200FFF780FE002141EA4501C8B2FFF744FE08
S31508002210FFF7C0FE20B1FFF799FE0120BDE8F08167
S315080022203046FFF739FEFFF7B5FE00240CE018F834
S315080022300400FFF731FEFFF7ADFE18B1FFF786FE83
S315080022400120EBE7601CC4B2BC42F0DBFFF77EFE60
S315080022500020E3E77047000010B504480449086009
S315080022600146C8681DF04CFC10BD00005C04002047
S3150800227058040020704700BFFEE73EB541F6FF74DC
S315080022800121080700F0A2F8012000F087F80020D5
S3150800229000F0DCFA45F25001884237D0012000F000
S315080022A0E5F800BF412000F0C1F80028FAD04FF445
S315080022B0807000F0F7F8012000F0EEF800F0DEFC80
S315080022C07F200190FF20029000200090684600F0D1
S315080022D08BFA00230A221821104600F07BFC0423FF
S315080022E019220B21152000F063FC002332223B2122
S315080022F00A2000F06FFC042307221946162000F076
S3150800230057FC45F25001002000F03CFD4FF4807068
S3150800231000F086F94FF4806000F082F900203EBD97
S315080023207047000070B5002100230F22C4781CB343
S31508002330174C246804F4E064C4F5E064C4F3072188
S31508002340C1F10404E3B20A4144789C40E1B28478BE
S31508002350144021430C07210E0E4C0578615504786C
S3150800236004F01F050124AC4005786D11AD0005F198
S31508002370E025C5F8004109E0047804F01F050124AA
S31508002380AC40054D0678761145F8264070BD00002C
S315080023900CED00E000E400E080E100E0014908629D
S315080023A07047000000000E427047000029B1064A37
S315080023B012680243044B1A6004E0034A1268824317
S315080023C0014B1A60704700003038024029B1064AAE
S315080023D012680243044B1A6004E0034A12688243F7
S315080023E0014B1A60704700004038024029B1064A7E
S315080023F012680243044B1A6004E0034A12688243D7
S31508002400014B1A60704700004438024029B1064A59
S3150800241012680243044B1A6004E0034A12688243B6
S31508002420014B1A60704700002438024010B5014677
S315080024300022002300204A11012A02D10A4C2368EF
S3150800244008E0022A03D1084C7034236802E0064CDF
S315080024507434236801F01F02012494401C400CB117
S31508002460012000E0002010BD003802400021094A82
S3150800247011701170012802D0042808D103E0012147
S31508002480044A117004E00521024A117000E000BFF9
S3150800249000BF704770380240014908607047000065
S315080024A03C0E4742002100F44072B2F5407F08D145
S315080024B0094A116821F4F811084A02401143064AEC
S315080024C01160054A68321268C0F30B031A43024BBF
S315080024D068331A607047000008380240FFFCFF0F97
S315080024E038B502460024009400230020CA24184D5B
S315080024F02C6053242C6041B1154C1C3C24681443B1
S31508002500134D1C3D2C6001201EE0114C1C3C246818
S3150800251094430F4D1C3D2C6000BF0D4C183C24689D
S3150800252004EA1223009C641C0094009CB4F5803FC6
S3150800253001D0002BF1D0064C183C246804EA12247A
S315080025400CB9002000E00120FF24014D2C6038BDA5
S315080025502428004010B54FF4807000F0D7F8012801
S3150800256032D1000200F05CF81A48006808B9012068
S3150800257000E000201749086001221146164800F0BD
S315080025806DFF16480068022806D1002302220121A1
S31508002590134821F0B3FB13E01048006830B9002354
S315080025A0022201210F4821F0A9FB09E00B48006827
S315080025B0012805D10023022201210B4821F09EFBA8
S315080025C04FF4807000F02CF84FF40030FEF770FFDF
S315080025D010BD00009482404200080040B40200206A
S315080025E09D0E0008490F000811100008014600BF9B
S315080025F0080900EB8000420001F00F001044C0B249
S3150800260070470146002204E0501CC2B2A1F10A003C
S31508002610C1B20A29F8DA100741EA106070470000CB
S3150800262081B241F08001044A126802F0800262EA2F
S315080026300101014A116070470C2800400021010978
S315080026408AB242F08002044B1B6803F0800363EAF7
S315080026500202014B1A6070470C28004008B5002298
S31508002660009200200021104A126802F04002CAB9FE
S31508002670421E0D4B1A6000BF0B4A126802F0400159
S31508002680009A521C0092009AB2F5803F01D00029A8
S31508002690F2D0054A126802F040020AB1012002E0AF
S315080026A0002000E0012008BD0C280040034800680F
S315080026B020F0800001490860704700000C2800409F
S315080026C070B506460C4600250E4800680E4900EA15
S315080026D00105280CE070C5F30420607005F03F0082
S315080026E0A070C5F3423020705EB9E078FFF77EFF30
S315080026F0E0706078FFF77AFF6070A078FFF776FFE2
S31508002700A07070BD042800403FFFFF0010B50146C9
S3150800271000200022054B1B68054C03EA040202EA66
S3150800272001030BB1012000E0002010BD0C28004079
S315080027307F7F010070B506460C4600250F480068E5
S315080027400F4900EA0105C5F305402070C5F30620C8
S31508002750607005F07F00A07005F48000000CE07042
S315080027605EB92078FFF742FF20706078FFF73EFFDA
S315080027706070A078FFF73AFFA07070BD002800408F
S315080027807F7F7F00CA22174B1A6053221A6091B1C5
S31508002790144A1C3A126820F004031A43114B1C3BD6
S315080027A01A60104A1C32126800F004031A430D4BD3
S315080027B01C331A6011E00B4A1C3A126820F0040315
S315080027C09A43084B1C3B1A60064A1C32126800F0F2
S315080027D004039A43034B1C331A60FF22014B1A6009
S315080027E0704700002428004030B504460025CA205A
S315080027F01549086053200860FFF730FF00B91DE04F
S3150800280011481C38006820F040000F491C39086040
S3150800281008460068216808430B491C3908600A49BC
S315080028201439A068086008460068A18840EA014093
S31508002830054914390860FFF739FF0125FF200249C9
S315080028400860284630BD00002428004008B5014627
S315080028500020009004480090009800EB810000904A
S315080028600098006808BD0000502800402DE9F04196
S3150800287005460E461446002765B93648006800F036
S31508002880400000B102E00020E07000BFA06800B977
S3150800289019E018E02F48006800F0400020B12078C1
S315080028A0FFF7A4FE074602E00020E07000BFA0681C
S315080028B020B9207BFFF79AFE074604E0207BFFF746
S315080028C095FE074600BF95B120780004617840EA76
S315080028D00120A1780843E17840EA0140217B40EADB
S315080028E00160A1680843616840EA01071BE0207897
S315080028F0FFF787FE4FEA00486078FFF782FE48EA4E
S315080029000028A078FFF77DFE48EA0008E07848EA44
S315080029100048207BFFF775FE48EA0060A168084377
S31508002920616840EA0107CA200A491C310860532039
S315080029300860B6F5807F03D106481430076002E0C8
S31508002940044818300760FF2002491C310860BDE8BA
S31508002950F0810000082800402DE9F04105460C46A4
S31508002960002600274DB9607800F01000102804D121
S31508002970607820F010000A30607005B908E06078C9
S31508002980FFF734FE0646A078FFF730FE064600BF7E
S3150800299055B1E0780004617840EA0120A17808433F
S315080029A0217840EA413611E0E078FFF72AFE4FEA3F
S315080029B000486078FFF725FE48EA0028A078FFF768
S315080029C020FE48EA0008207848EA4036CA2012491C
S315080029D0086053200860FFF741FE08B9002714E095
S315080029E00E4830400C4920390860FFF75FFE0A4858
S315080029F01C38006800F0200030B900F03FF908B92B
S31508002A00002702E0012700E00127FF2002490860AD
S31508002A103846BDE8F0810000242800403FFFFF004B
S31508002A202DE9F04105460C46002600274DB92E48EB
S31508002A30006800F0400000B102E00020E07000BF2E
S31508002A400DE02948006800F0400020B12078FFF723
S31508002A50CDFD064602E00020E07000BF00BF55B17C
S31508002A6020780004617840EA0120A1780843E178DB
S31508002A7040EA014611E02078FFF7C3FD4FEA004817
S31508002A806078FFF7BEFD48EA0028A078FFF7B9FD91
S31508002A9048EA0008E07848EA0046CA2012491C318C
S31508002AA0086053200860FFF7D9FD08B9002713E02E
S31508002AB00E4830400C4908390860FFF7F7FD0A4808
S31508002AC0006800F0200030B900F0D8F808B90027EF
S31508002AD002E0012700E00127FF2003491C310860B6
S31508002AE03846BDE8F0810000082800407F7F7F0057
S31508002AF0CA21054A1160532111600349103908603B
S31508002B00FF2111607047000024280040F0B585B009
S31508002B1004460D4616461F4600214FF48070FFF7FF
S31508002B20DFFC8DF800508DF801608DF802700020EA
S31508002B308DF803008DF810404FF080400390002078
S31508002B4002900098019001AA4FF480710020FFF7C7
S31508002B508DFE4FF48050FFF771FD4FF40030FEF7FD
S31508002B60A7FC01210803FFF70DFE01210802FFF764
S31508002B70B7FC4FF400300C490860002008710820A3
S31508002B804871012088710846FEF798FC29200749F4
S31508002B9008700220487088700120C8700846FFF740
S31508002BA0C1FB05B0F0BD0000600200205C020020F9
S31508002BB0F8B504460D4617461E468DF802708DF880
S31508002BC001508DF800608DF8034069460020FFF734
S31508002BD0C3FEF8BDF8B504460D4616461F468DF8E1
S31508002BE000408DF801508DF802608DF80370694633
S31508002BF00020FFF715FFF8BD70B504460D46002006
S31508002C0000F084F8204600F069F80020FFF770FF0E
S31508002C104FF48040FFF712FD4FF48000FEF748FCA2
S31508002C2001218803FFF7AEFD012000F06FF84FF48D
S31508002C3080000B49086000200871082048710120AF
S31508002C4088710846FEF73AFC0320064908700220F8
S31508002C50487088700120C8700846FFF763FB70BD8E
S31508002C60600200205C02002010B54FF48060FFF778
S31508002C704DFD4FF48000FEF71BFC10BD08B5002281
S31508002C80009200200021CA22134B1A6053221A60B0
S31508002C90114A183A126822F0A0020F4B183B1A6024
S31508002CA000BF0D4A183A126802F02001009A521C19
S31508002CB00092009AB2F5003F01D00029F1D0064AE9
S31508002CC0183A126802F020020AB1012000E000203A
S31508002CD0FF22014B1A6008BD24280040CA210A4A6F
S31508002CE011605321116008491C39096821F0070150
S31508002CF0054A1C3A11601146096801431160FF2113
S31508002D00014A1160704700002428004018B50146A2
S31508002D100023009300220020CA23194C2360532362
S31508002D20236049B1164B1C3B1B6843F48063144C63
S31508002D301C3C236001201FE0114B1C3B1B6823F43D
S31508002D4080630F4C1C3C236000BF0D4B183B1B686F
S31508002D5003F00402009B5B1C0093009BB3F5803FC5
S31508002D6001D0002AF1D0064B183B1B6803F0040378
S31508002D700BB9002000E00120FF23014C236018BD99
S31508002D802428004008B500220092044A0092009ABE
S31508002D9002EB80020092009A116008BD502800409C
S31508002DA021B1028842F04002028004E002884FF610
S31508002DB0BF731A40028070471AB183880B43838019
S31508002DC002E083888B43838070470246002013897C
S31508002DD00B400BB1012000E00020704701468889AE
S31508002DE070478181704710B50022028802F441526B
S31508002DF00B884C8823438C882343CC8823430C892F
S31508002E0023434C8923438C892343CC8923431A4380
S31508002E100280838B4FF2FF74234083830B8A0382DD
S31508002E2010BD000000B587B001210846FFF7BEFABD
S31508002E3001210803FFF7DAFAB020059002208DF881
S31508002E40180000208DF81A0003208DF8190005A92E
S31508002E501F48FEF77DFB052207211D48FEF7C0FB2C
S31508002E60052211461A48FEF7BBFB01210803FFF7A6
S31508002E70CDFA00214FF48050FFF7C8FA0020ADF8CC
S31508002E8000004FF48270ADF802000020ADF804008F
S31508002E900220ADF806000120ADF808004002ADF8A2
S31508002EA00A000820ADF80C000020ADF80E000A2034
S31508002EB0ADF8100069460748FFF795FF0121054858
S31508002EC0FFF76EFFFF20FEF71BFE07B000BD0000F0
S31508002ED000000240003001407047000010B5002095
S31508002EE01349087013480068438A13480068408AE3
S31508002EF0181A01B20E480078104B1B7810FB03F025
S31508002F00404202B20E4811F0EEFD0D4811F006FEE1
S31508002F100C480DA142680D4800681AF02FF90C48B4
S31508002F200C4908600146C8681CF0EAFD10BD00009F
S31508002F30680300206C030020740300206903002046
S31508002F40508A0020780300202573000070030020B3
S31508002F506C0400205804002010B50C480C49097868
S31508002F6000EB0110C06880B108480949097800EBF0
S31508002F700110C068074908600449054A127801EB40
S31508002F800211C968C8681CF0BBFD10BD7803002093
S31508002F90680300205804002010B518480078401C23
S31508002FA016490870084600780521B0FBF1F201FBC6
S31508002FB012001249087012480068438A11480068CE
S31508002FC0408A181A01B20D4800780F4B1B7810FB7F
S31508002FD003F0404202B20D4811F085FD0B4811F08E
S31508002FE09DFD0B480549097800EB011009A14268C7
S31508002FF0094800681AF0C2F810BD000068030020EE
S315080030006C0300207403002069030020508A002006
S31508003010780300202573000070030020224800680A
S3150800302040F08050204908602048006840F440403D
S315080030301E4908601C48383800681B49383908603A
S315080030400846006808600846006840F48050086032
S315080030501748091F0860081F006840F08070091F9C
S31508003060086000BF10484038006800F0007000286B
S31508003070F8D040F202700F4908600B4838380068EB
S3150800308020F003000849383908600846006840F00F
S315080030900200086000BF04483838006800F00C00D9
S315080030A00828F8D1704700004038024000700040F8
S315080030B010640107003C024010B50020044908705E
S315080030C00448054908600146C8681CF019FD10BD8A
S315080030D0550400205C0400205804002070B55949A6
S315080030E00020FFF727FB58490020FFF7E9FA574861
S315080030F0007807281BD2DFE800F0041B314057721E
S31508003100890050480478641C182094FBF0F100FBF1
S3150800311011444C4B9A785978E0B20023FFF75AFDD0
S3150800312048490A784A4908684AA11AF027F886E001
S3150800313044484478641C3C2094FBF0F100FB11449D
S31508003140404B9A78E1B218780023FFF743FD4049CF
S31508003150224648683FA11AF011F870E0394A5178BA
S31508003160107800231A46FFF735FD36498A7838491C
S31508003170886838A11AF002F861E03348C478641CFC
S31508003180642094FBF0F100FB11442F4D2B78AA78AC
S315080031906978E0B2FFF70CFD2946CA782C49C86859
S315080031A02EA119F0EBFF4AE027480478072094FB84
S315080031B0F0F100FB1144641CE3B2234DAA78697848
S315080031C0E878FFF7F5FC29460978491E254B03EBF5
S315080031D081021F49086924A119F0D0FF2FE01A4877
S315080031E04478641C0C2094FBF0F100FB1144164D46
S315080031F02B78AA78E1B2E878FFF7DAFC29464A780C
S315080032001349486913A119F0B9FF18E00E488478E4
S31508003210641C2046E11704EBD1614911A4EB411463
S31508003220094D2B78E2B26978E878FFF7C1FC2946A0
S315080032308A780749886907A119F0A0FF00BF00BF6F
S3150800324070BD00005402002058020020D803002058
S31508003250908A002025303264000000002025303294
S31508003260640000001C030020257300001CB51448E8
S315080032700068019013490A780978491C114B19709E
S31508003280114951F8220000221146019B1DF0E7F969
S315080032900C490878C11700EB5171C910A0EBC101A0
S315080032A0084A11700648001D006800900649127801
S315080032B051F8220000221146009B1DF0D0F91CBDD2
S315080032C0CC8F0608D8030020AC8A002010B505F07C
S315080032D0C3FD26F081FB23F0B9FB002303226421FA
S315080032E0014820F00BFD10BD79A80208042808D172
S315080032F04FF0E021096941F004014FF0E022116125
S3150800330007E04FF0E021096921F004014FF0E022BF
S315080033101161704710B51548006840F470001349EC
S3150800332008601348006840F0010011490860002051
S315080033300F49083108600E4800680E4908400C49D4
S3150800334008600D48091D0860081F006820F48020E1
S31508003350091F0860002006490C310860FFF75EFE69
S315080033604FF0006001498039086010BD88ED00E023
S3150800337000380240FFFFF6FE1030002410B508485A
S31508003380008A00F0010010B106480068804704482A
S31508003390008A4FF6FE7108400149088210BD0000F8
S315080033A0000001406802002010B54FF08040008AF6
S315080033B000F0010010B10648006880474FF08040D1
S315080033C0008A4FF6FE7108404FF08041088210BD12
S315080033D06C02002010B50848008800F0010010B102
S315080033E0064800688047044800884FF6FE71084082
S315080033F00149088010BD000010040040700200203A
S3150800340010B50848008800F0010010B106480068A9
S315080034108047044800884FF6FE7108400149088035
S3150800342010BD0000100800407402002021B1028877
S3150800343042F08002028004E002884FF67F731A4049
S315080034400280704721B1028842F00102028004E03E
S3150800345002884FF6FE731A40028070471AB18389B4
S315080034600B43838102E083898B4383817047000085
S3150800347070B5002200230024058C4EF6FF763540F1
S315080034800584038C8488828B48F6FF752A404FF69C
S31508003490FF452A400D884FF6FF7606EA05252A439A
S315080034A04DF6FF752B408D8906EA05352B434D8869
S315080034B006EA05352B430A4DA84202D0094DA84213
S315080034C008D14BF6FF752C400D8A4FF6FF7606EAB3
S315080034D085152C43848082838D680564038470BDBA
S315080034E000000140000401400A460021818B4FF28A
S315080034F0FF7319404FF6FF7303EA022319438183CA
S31508003500704701647047000000220288184B9842F1
S315080035100ED0184B98420BD0B0F1804F08D0164BFE
S31508003520984205D0154B984202D0154B984204D1C3
S315080035304FF68F731A404B881A43124B984207D09E
S31508003540114B984204D04FF6FF431A400B891A4391
S3150800355002804B68C3620B880385054B984202D0EC
S31508003560044B984201D18B7A0386012383827047E4
S31508003570000001400004014000040040000800402B
S31508003580000C0040001000400014004010B5002058
S31508003590044908700448054908600146C8681CF0D3
S315080035A0AFFA10BDED0300205C040020580400208B
S315080035B010B50848007848B9002305220A210648AC
S315080035C020F09CFB01200349087002E00020014915
S315080035D0087010BDED03002021A9020808B523488C
S315080035E00078E8B1224800882249234A00901278D8
S315080035F051F8220021490B7821490A7821A119F0AE
S31508003600BDFD1D480078401C1B4908700846007817
S31508003610032190FBF1F201FB12001749087024E020
S31508003620002015490870134908681AA119F01AFDEF
S315080036301049486817A119F015FD0E49886815A1A3
S3150800364019F010FD00200A4908800C4908700C4939
S3150800365008700748008800900848037808460278EA
S315080036600FA11948006819F089FD08BDED0300206F
S31508003670E8030020288C0020EC030020EA03002041
S31508003680EB030020253032643A253032642E25308B
S31508003690326400002D2D3A2D2D2E2D2D0000000010
S315080036A02530326423666630303030203A232530A0
S315080036B032640D0A202366663030303020202E23EF
S315080036C02530326400000000E403002010B505F040
S315080036D001FC07F055FF23F05FFA10BD10B540F264
S315080036E025511D4800F03EF810B31B4800F064F859
S315080036F0C4B21A48008800F40040C8B917480088C0
S3150800370000F4804060B10A2C03D0002013490880D9
S3150800371020E01248008840F400401049088019E06B
S315080037200D2C06D10D48008840F480400B490880CE
S3150800373010E00A480088C0F30D0009490C540748F0
S315080037400088401C0549088008460088C72801DD0E
S315080037500020088010BD000000100140E40400208D
S3150800376068BF002070B5024600240023002500200B
S3150800377040F66A16B14200D100BFC1F3421501F006
S315080037801F03012606FA03F3012D02D19689334059
S3150800379006E0022D02D1168A334001E0968A3340AC
S315080037A00C12012606FA04F41688344013B10CB13B
S315080037B0012000E0002070BD01468888C0F308009B
S315080037C0704700BFFEE703B401984100009850EA2D
S315080037D0C12018BF04204A0D18BF40F0010040F26E
S315080037E0FF72B2EB515F08BF40F00200012808BF24
S315080037F0052002B07047000070B5C1482DED020BD8
S315080038002DED0E8B82B0119D25F000449FEDBEDB99
S315080038109FEDBFEB84423EDBA4F140511098A1F125
S315080038207F6108430FD0BC48844202DC28D1109837
S3150800383030B39DED100B02B0BDEC0E8B02B0BDE8A7
S31508003840704001F09DB89DED100B53EC1D2B51EC0B
S31508003850100B28F081F99DED100B41EC180B53EC79
S315080038601E2B51EC100B28F077F953EC182B27F088
S31508003870A3FE41EC100B02B0BDEC0E8B02B070BD7E
S315080038800120FCF7F0FF02B0BDEC0E8B02B0BDE8DC
S31508003890704001F089B8A1489FEDA18B844256DAA1
S315080038A09DED100BB4F1795F0ADA51EC100BFFF7B6
S315080038B08AFF042808BF01F087F89DED100BDAE7A8
S315080038C053EC102B51EC100B28F046F941EC190B70
S315080038D095480621B0EE490AF0EE690A784400F0E8
S315080038E03BFF53EC192B51EC100B28F035F941EC42
S315080038F01A0B8E48B0EE490AF0EE690A042178449C
S3150800390000F02AFF53EC192B51EC100B28F024F980
S3150800391053EC182B27F050FE41EC100B51EC1A0B08
S3150800392053EC102B27F0FCFECDE900019DED000BB2
S3150800393053EC102B9DED100B51EC100B28F00CF9E5
S315080039409DED101B53EC112B27F036FED2E09DEDB2
S31508003950100B51EC100B0DF054FC53EC182B28F0FF
S31508003960F9F99FED730BCDE9000153EC102B9DED92
S31508003970000B51EC100B28F0EFF841EC190B6E48D0
S315080039800621B0EE490AF0EE690A784400F0E4FE32
S3150800399053EC192B51EC100B28F0DEF841EC1B0BFD
S315080039A06648B0EE490AF0EE690A0421784400F048
S315080039B0D3FE53EC192B51EC100B28F0CDF853EC31
S315080039C0182B27F0F9FD41EC1C0B51EC190B24F0D0
S315080039D0C4FD41EC180B5A489FED5BABA04222DCB4
S315080039E053EC1C2B51EC1B0B27F09AFECDE900017A
S315080039F09DED000B51EC180B53EC102B28F0ACF88E
S31508003A0053EC182B27F0D8FD53EC1A2B28F0A4F802
S31508003A1053EC1D2B28F076FA53EC1E2B28F09AF956
S31508003A2041EC100B5FE08DED008B002000909DEDC2
S31508003A30000B51EC180B53EC102B27F0BDFD9DED38
S31508003A40000B41EC1E0B53EC102B51EC100B28F01D
S31508003A5083F853EC192B28F07DF953EC1E2B27F02D
S31508003A605FFE41EC190B53EC1C2B51EC1B0B27F09A
S31508003A7057FE41EC1B0B53EC1A2B51EC190B28F093
S31508003A806BF853EC1D2B28F065F941EC190B53EC38
S31508003A901A2B51EC180B28F05FF853EC1B2B28F067
S31508003AA05BF853EC192B28F02DFA9DED000B41EC31
S31508003AB0180B53EC1A2B51EC100B28F04DF89FED10
S31508003AC0249B53EC192B28F045F941EC100B51ECCB
S31508003AD0180B53EC102B28F015FA53EC192B28F079
S31508003AE039F941EC100B002D3FF7C5AE51EC100B20
S31508003AF027F023FD41EC100BBDE600000000000096
S31508003B000000F03F00000000075C143326A6913C35
S31508003B10182D4454FB21F93F0000F07F0000E03FD8
S31508003B20000000000000F03F385706004657060020
S31508003B30000000000000E03F8A560600985606007E
S31508003B403333EF3F00000000000000000000004093
S31508003B50182D4454FB21E93F70B59B482DED020B07
S31508003B602DED068B079D25F00044A04218DC9748EA
S31508003B70844202DC0AD1069840B19DED060BBDECE5
S31508003B80068B02B0BDE8704000F0FABE002DCCBF2F
S31508003B909FED8F0B9FED900BBDEC068B02B070BDB1
S31508003BA08F48A04215DD8F48A042D8BF4FF0FF349A
S31508003BB058DD9DED060B51EC100BFFF704FE0428AB
S31508003BC008BF00F001FF9DED060BBDEC068B02B0A9
S31508003BD070BD9DED060B51EC100B0DF012FBCDE9F7
S31508003BE0060181489FED828BA0423CDD8248A042B7
S31508003BF01FDD00249FED82AB9DED060B53EC1A2BBF
S31508003C0051EC100B27F0D8FC9DED060B41EC190B77
S31508003C1053EC1A2B51EC100B27F09EFF53EC182B84
S31508003C2028F070F953EC192B27F07AFDCDE9060137
S31508003C3049E09DED060B012453EC182B51EC100BB3
S31508003C4027F0BAFC9DED060B41EC190B53EC182B2B
S31508003C5051EC100B28F056F953EC192B27F060FDA0
S31508003C60CDE906012FE06848A0421FDD02249FED3A
S31508003C70689B9DED060B53EC192B51EC100B27F0A6
S31508003C806BFF53EC182B27F097FC9DED060B41ECC8
S31508003C90180B53EC192B51EC100B28F033F953EC95
S31508003CA0182B27F03DFDCDE906010CE09DED060B2E
S31508003CB0032453EC102B9FED580B51EC100B27F0F7
S31508003CC02FFDCDE906019DED060B53EC102B51ECAB
S31508003CD0100B27F041FF41EC180B53EC182B27F07B
S31508003CE03BFF41EC190B4E480621B0EE490AF0EEAF
S31508003CF0690A784400F030FD53EC182B51EC100B90
S31508003D0027F02AFF41EC180B4648B0EE490AF0EEB8
S31508003D10690A0521784400F01FFD53EC192B51EC74
S31508003D20100B27F019FF41EC100B51EC180B53EC54
S31508003D30102B002C0EDA27F03FFC9DED061B53ECEA
S31508003D40112B27F009FF9DED061B53EC112B28F0CC
S31508003D5001F835E027F030FC9DED061B53EC112BDE
S31508003D6027F0FAFE41EC100B2F48784400EBC4000C
S31508003D7090ED001B51EC100B53EC112B28F0C2F8F8
S31508003D809DED061B53EC112B28F0BCF841EC100BEB
S31508003D902648784400EBC40090ED001B51EC100B4C
S31508003DA053EC112B27F0D6FF41EC100B002DA2BFC8
S31508003DB0BDEC068B02B070BD51EC100B27F0BDFBB5
S31508003DC041EC100B01E70000000010440000F07FF2
S31508003DD0182D4454FB21F93F182D4454FB21F9BFF3
S31508003DE00000DC3F0000203E0000F33F000000001A
S31508003DF0000000000000F03F0000E63F0000000061
S31508003E0000000000000000400080034000000000A1
S31508003E10000000000000F83F000000000000F0BFAE
S31508003E20DA530600905306001A530600D2520600CB
S31508003E3070B56B4E2DED040B2DED028B82B0DDF8BF
S31508003E401CC0DDE905235C422CF000411C4341EA15
S31508003E50D474049D22F00040B44205D86C422C4329
S31508003E6040EAD474B4420BD99DED061B9DED040BB4
S31508003E7002B0BDEC028B04B0BDE8704000F08ABD0C
S31508003E80ACF14054A4F17F641C430BD0022404EA2D
S31508003E90AC7444EAD27405439FED538B9FED542BC3
S31508003EA007D015E09DED040B51EC100B04F032FF22
S31508003EB042E0002C11BF012C9DED040B02B0BDECB5
S31508003EC0028B04BF04B070BD022C38D0032C3BD043
S31508003ED00B439FED491B9FED4A0B0AD0B14218D1FF
S31508003EE0B04209D121F0804120F080400791059029
S31508003EF00FE0002A15DA10E0434B7B44002C08BF7C
S31508003F0093ED000B0DD0012C10D0022C17D0032CEA
S31508003F101AD0B0421DD1002A03DAB0EE410AF0EEFB
S31508003F20610A02B0BDEC028B04B070BD93ED000BC4
S31508003F3051EC100B27F001FB41EC100BF1E7B0EE4A
S31508003F40480AF0EE680AECE7B0EE420AF0EE620ABA
S31508003F50E7E7401A00153C28C8BF8DED000B19DCB1
S31508003F60BCF1000FBEBF10F13C0F9FED290B8DED84
S31508003F70000B0FDB9DED060B53EC102B9DED040B90
S31508003F8051EC100B27F0CCFB0DF03BF904F0C2FE08
S31508003F90CDE90001002C08BF9DED000BC1D0012C16
S31508003FA010D0022C9FED1C0B53EC102B9DED000B33
S31508003FB051EC100B0DD027F0A5FF53EC182B27F06A
S31508003FC0A1FFB9E7019880F0004001909DED000B34
S31508003FD0A7E727F097FF53EC182B27F0BBFEABE7B4
S31508003FE00000F07F00000000182D4454FB21094012
S31508003FF0182D4454FB2109C0182D4454FB21F9BF40
S31508004000182D4454FB21F93F3252060000000000E7
S315080040100000000000000000075C143326A6A13C3F
S3150800402010B52F499FED2C1B2DED020B84B005987A
S3150800403020F000408842D8BF9DED040B2DDD2949AC
S31508004040884209D1049840B94FF00100FCF70BFCEF
S3150800405000F0AAFC06B010BD05DB9DED040B00F0D0
S315080040608FFC06B010BD68469DED040B00F0A0F865
S3150800407010F0030004BF9DED021B9DED000B0CD054
S3150800408001280ED09DED021B9DED000B022817D0CE
S31508004090012000F0DDFB06B010BD00F0A5FA06B061
S315080040A010BD9DED021B9DED000B012000F0D0FB1D
S315080040B051EC100B27F041FA06B041EC100B10BD7D
S315080040C000F092FA51EC100B27F037FA06B041ECE3
S315080040D0100B10BD000000000000000000000000EA
S315080040E0FB21E93F0000F07F10B52F499FED2C1BFF
S315080040F02DED020B84B0059820F000408842DCBF05
S3150800410000209DED040B32DD2849884209D1049828
S3150800411040B94FF00100FCF7A6FB00F045FC06B0DD
S3150800412010BD05DB9DED040B00F02AFC06B010BDA2
S3150800413068469DED040B00F03BF810F0030011D023
S31508004140012818D09DED021B9DED000B02281AD000
S3150800415000F04AFA51EC100B27F0EFF906B041ECE3
S31508004160100B10BD9DED021B9DED000B012000F00C
S315080041706FFB06B010BD9DED021B9DED000B00F018
S3150800418033FA06B010BD012000F062FB51EC100BAB
S3150800419027F0D3F906B041EC100B10BD0000000063
S315080041A00000000000000000FB21E93F0000F07F4E
S315080041B02DE9F14F04462DED020B2DED088B8AB043
S315080041C09FEDE70B80ED020B139EE74826F00045AE
S315080041D085420ADC9DED120B002084ED000B0AB027
S315080041E0BDEC088B03B0BDE8F08FE0489FEDE0AB6F
S315080041F09FEDE1BBA84247DDE14F9FEDE39B9FEDB5
S31508004200E48B9DED120B53EC1A2B51EC100B002E80
S315080042101CDD27F077FE41EC100BBD4208D053ECAD
S315080042201B2B51EC100B27F06DFEC4E900010BE0C7
S3150800423053EC192B51EC100B27F064FE53EC182B9A
S3150800424027F060FEC4E900010120C8E727F0B4F9A9
S3150800425041EC100BBD4208D053EC1B2B51EC100B54
S3150800426027F0AAF9C4E900010BE053EC192B51EC2D
S31508004270100B27F0A1F953EC182B27F09DF9C4E988
S3150800428000014FF0FF30AAE7C348A84279DB9DED4D
S31508004290120B51EC100B0CF0B4FF41EC180B9FED10
S315080042A0C00B53EC102B27F057FC9FEDBF1B53ECAC
S315080042B0112B27F081F927F08BFB074627F0E5FB42
S315080042C041EC190B53EC1A2B27F046FC53EC182B30
S315080042D027F040FD41EC180B53EC1B2B51EC190B46
S315080042E027F03AFCDFF8C8A241EC100B4FEA155844
S315080042F00125FA4453EC102B51EC180B27F002FE5B
S31508004300032DC4E900013DD0C1F30A5005EB451160
S31508004310A8EB00001139814234DA0AEB051BB0EE2E
S3150800432048AA9BED000BF0EE68AA53EC102B51EC53
S31508004330190B27F011FC41EC1B0B51EC1A0B53EC33
S315080043401B2B27F0DFFD41EC180B51EC1A0B53EC35
S31508004350182B27F0D7FD53EC1B2B27F0D3FD9BED2D
S31508004360020B41EC1A0B53EC102B51EC190B27F0EE
S31508004370F3FB53EC1A2B27F0C5FD41EC100B6D1C13
S31508004380B8E70EE0002EA8BF3846BFF628AF94ED72
S31508004390000B51EC100B27F0D0F8C4E90001784265
S315080043A01DE7C6F3130040F4801EC6F30A50A0F2B8
S315080043B0F530471100F01F05C5F12000DDF848B0BB
S315080043C008900020069007900520EC467949002DB4
S315080043D007EB0002794408BF51F8221009D051F8BA
S315080043E0223001EB8201AB404A68089922FA01F1B2
S315080043F01943A1FB0E26A1FB0B131A449A4234BF9C
S315080044000123002303EB06080CEB8003D3E901A67E
S315080044100E448E4234BF0121002192448A4411B1D0
S31508004420924502D903E0924501D2012100E000211C
S31508004430C3E901A641444CF82010011EA0F1010071
S31508004440C4DC029800F10050850F0298DDE9036785
S315080044508000DDF8148027F018FB41EC1A0B304673
S3150800446027F02AFB9FED541B53EC112B27F074FB06
S3150800447041EC1B0B384627F01FFB9FED511B53ECF5
S31508004480112B27F069FB41EC180B404627F014FB6B
S315080044909FED4D1B53EC112B27F05EFB41EC190BDE
S315080044A051EC180B53EC192B27F086F853EC1B2B01
S315080044B027F082F853EC1A2B27F07EF8CDE908018D
S315080044C0002008909DED080B53EC1A2B51EC100BAD
S315080044D027F018FD53EC1B2B27F014FD53EC182B73
S315080044E027F010FD53EC192B27F034FC9FED381BF1
S315080044F053EC112B27F030FB9FED370B41EC180BD3
S3150800450053EC102B9DED080B51EC100B27F024FBF8
S3150800451053EC182B27F050F89FED310B41EC180B94
S3150800452053EC102B9DED080B51EC100B27F014FBE8
S3150800453053EC182B27F040F841EC100B139810F0A9
S31508004540004F06D06D4251EC100B26F0F6FF41ECF9
S31508004550100B284684ED000B41E600000000000021
S315080045600000000000000000FB21E93F7CD9024062
S3150800457000004054FB21F93F3163621A61B4D03D13
S31508004580FB21F93F000000000000601A61B4D03D2D
S315080045907370032E8A19A33BFB21394100000000E2
S315080045A083C8C96D305FE43F000000000000E03FAB
S315080045B0424E0600904D0600000000000000103E26
S315080045C0000000000000103C000000000000103A47
S315080045D0182D4454FB21F93D3326A611460B113CF0
S315080045E000000054FB21F93D10B52DED040B2DED0F
S315080045F0088B82B0B0EE419AF0EE619A0B9820F0E3
S3150800460000449FED4BABB4F1795F11DA9DED0A0BCF
S3150800461051EC100B27F0DCF9002801BFB0EE4A0A6E
S31508004620F0EE6A0A02B0BDEC088B04BF04B010BDF8
S315080046309DED0A0B53EC102B51EC100B27F08CFA5E
S3150800464041EC180B3C480621B0EE480AF0EE680A21
S31508004650784400F081F853EC182B51EC100B27F036
S315080046607BFA9DED0A0B41EC1B0B53EC192B51EC15
S31508004670100B27F071FA41EC190B53EC1B2B51EC7C
S31508004680180B27F069FA53EC192B27F03BFC9FED22
S315080046902C0B41EC190B53EC102B51EC180B27F093
S315080046A05BFA41EC100B2848844210DA53EC192BBC
S315080046B051EC100B27F026FC53EC1A2B27F04AFB7B
S315080046C041EC100B02B0BDEC088B04B010BD1F48BE
S315080046D0A042BCBF9FED1E1B8DED001B06DBA4F59B
S315080046E000100190002000909DED001B51EC100B6E
S315080046F053EC112B27F006FC9DED000B41EC180B33
S3150800470053EC102B51EC1A0B27F0FCFB41EC1A0B5F
S3150800471053EC192B51EC180B27F0F4FB53EC1A2B1E
S3150800472027F018FB41EC100BCCE700000000000056
S31508004730000000000000F03FAC4A06000000000040
S31508004740000000000000E03F3333D33F0000E93F9C
S31508004750000000000000D23F70B504462DED028B24
S315080047604D1E00EBC500B0EE408AF0EE608A90ED73
S31508004770000B35F0060017D053EC182B51EC100B34
S3150800478027F0EAF941EC100B6D1E04EBC50090ED1D
S31508004790001B51EC100B53EC112B26F00DFF41ECCE
S315080047A0100B35F00600E7D1022D36D0042D1CD0AB
S315080047B0062D1CBFBDEC028B70BD53EC182B51ECBB
S315080047C0100B27F0C9F994ED0A1B53EC112B26F0B0
S315080047D0F3FE53EC182B27F0BFF994ED081B53ECA6
S315080047E0112B26F0E9FE41EC100B53EC182B51EC7B
S315080047F0100B27F0B1F994ED061B53EC112B26F09C
S31508004800DBFE53EC182B27F0A7F994ED040B53ECB9
S31508004810102B26F0D1FE41EC100B53EC182B51EC63
S31508004820100B27F099F994ED021B53EC112B26F087
S31508004830C3FE53EC182B27F08FF994ED001B53ECAD
S31508004840112B26F0B9FEBDEC028B41EC100B70BDA6
S3150800485031B504462DED040B2DED0A8BB0EE41BAA9
S31508004860F0EE61BA0B989DED0A0B20F00040B0F10E
S31508004870795F0DDA51EC100BFEF7A5FF042808BF87
S3150800488000F0A2F89DED0A0BBDEC0A8B05B030BD11
S3150800489053EC102B51EC100B27F05EF941EC180B7A
S315080048A09DED0A0B53EC182B51EC100B27F054F91D
S315080048B041EC190B2C48B0EE480AF0EE680A0521BF
S315080048C07844FFF749FF9FED2ACBB0EE40AAF0EEF9
S315080048D060AA9CB353EC1C2B51EC190B27F03CF93E
S315080048E041EC1C0B53EC1A2B51EC190B27F034F93D
S315080048F09FED210B41EC190B53EC102B51EC1B0BC4
S3150800490027F02AF953EC192B27F0FCFA53EC182B4D
S3150800491027F022F953EC1B2B27F0F4FA53EC1C2B47
S3150800492027F0F0FA9DED0A1B53EC112B27F012FA2B
S31508004930BDEC0A8B05B041EC100B30BDFFE753EC1C
S315080049401A2B51EC180B27F007F953EC1C2B26F001
S3150800495033FE53EC192B27F0FFF89DED0A1B53EC99
S31508004960112B26F029FEE3E73C490600000000006B
S31508004970495555555555C5BF000000000000E03F94
S3150800498010B553EC102B51EC100B26F015FE41EC2C
S31508004990100B10BD10B553EC112B51EC100B26F073
S315080049A00BFE41EC100B10BD9FED050B10B553EC3B
S315080049B0102B51EC100B26F0B3FE41EC100B10BD7A
S315080049C000000000000000009FED050B10B553EC39
S315080049D0102B51EC100B27F0BFF841EC100B10BD53
S315080049E0000000000000001070B50446002508E02D
S315080049F02168481C20600878303805EB850100EBF3
S31508004A0041052168087800F004F80028F0D1284606
S31508004A1070BD0146302903DB392901DC01207047C6
S31508004A200020FCE730380A2801D201207047002010
S31508004A307047000010B54021084801F0E2FC002349
S31508004A4004221E2106481FF059F90649086003F09A
S31508004A50A1FF00200449087010BD000024060020AC
S31508004A60818A000868010020640100202DE9F047CA
S31508004A7005460F4616461C46152E30D2DFE806F0C8
S31508004A800B3034495765839AAFCDD6F9F7F6F5F466
S31508004A90F3F2F1F0EF00284610F0CCFE814600EB69
S31508004AA0D9704FEA600A384610F0C4FE804600EB1B
S31508004AB0D870AAEB600000B22080284610F05CFE91
S31508004AC0814600EBD9704FEA600A384610F054FE6A
S31508004AD0804600EBD870AAEB600000B260806AE1FD
S31508004AE000202080608066E1284610F0A3FE8146FB
S31508004AF000EBD9704FEA600A384610F09BFE8046F4
S31508004B0000EBD870AAEB600000B22080002060801D
S31508004B1051E1284610F08EFE8046384610F08AFE8F
S31508004B20A8EB000000B220800020608043E100204E
S31508004B302080284610F020FE8046384610F01CFEDD
S31508004B40A8EB000000B2608035E1284610F072FE3E
S31508004B50814600EBD9704FEA600A384610F06AFEC3
S31508004B60804600EBD870AAEB600000B22080284689
S31508004B7010F002FE8046384610F0FEFDA8EB000055
S31508004B8000B2608017E1284610F054FE8046384689
S31508004B9010F050FEA8EB000000B22080284610F066
S31508004BA0EBFD8046384610F0E7FDA8EB000000B2A2
S31508004BB0608000E100202080284610F0DDFD814657
S31508004BC000EBD9704FEA600A384610F0D5FD8046EA
S31508004BD000EBD870AAEB600000B26080EBE02846D4
S31508004BE010F028FE8046384610F024FEA8EB000098
S31508004BF000B22080284610F0BFFD814600EBD97030
S31508004C004FEA600A384610F0B7FD804600EBD870C8
S31508004C10AAEB600000B26080CDE000202080384614
S31508004C2010F0AAFD404200B26080C4E0284610F0A9
S31508004C3001FE814600EBD9704FEA600A384610F04B
S31508004C40F9FD804600EBD870AAEB600000B2208020
S31508004C50384610F091FD404200B26080ABE09AE021
S31508004C6082E07AE067E04DE043E032E01AE012E0E5
S31508004C70FFE7284610F0DEFD8046384610F0DAFDDC
S31508004C80A8EB000000B22080384610F075FD4042BF
S31508004C9000B260808FE000202080284610F06CFD6E
S31508004CA0608088E0284610F0C5FD814600EBD97083
S31508004CB04FEA600A384610F0BDFD804600EBD87012
S31508004CC0AAEB600000B22080284610F055FD6080EF
S31508004CD071E0284610F0AEFD8046384610F0AAFD71
S31508004CE0A8EB000000B22080284610F045FD608041
S31508004CF061E0384610F09EFD404200B22080002058
S31508004D00608058E0384610F095FD404200B2208099
S31508004D10284610F031FD814600EBD9704FEA600A4B
S31508004D20384610F029FD804600EBD870AAEB6000E3
S31508004D3000B260803FE0384610F07CFD404200B289
S31508004D402080284610F018FD8046384610F014FDDD
S31508004D50A8EB000000B260802DE0284610F06AFD3E
S31508004D6020800020608026E0284610F063FD208021
S31508004D70284610F001FD814600EBD9704FEA600A1B
S31508004D80384610F0F9FC804600EBD870AAEB6000B4
S31508004D9000B260800FE0284610F04CFD20802846BF
S31508004DA010F0EAFC8046384610F0E6FCA8EB000056
S31508004DB000B2608000BF00BF20882988084400B27E
S31508004DC0208060886988084400B26080BDE8F08762
S31508004DD030B50346B1F90040B2F90050AC4202DDE5
S31508004DE0B1F9004001E0B2F900401C80B1F9024077
S31508004DF0B2F90250AC4202DDB1F9024001E0B2F963
S31508004E0002405C80B1F90440B2F90450AC4202DABF
S31508004E10B1F9044001E0B2F904409C80B1F90640BA
S31508004E20B2F90650AC4202DAB1F9064001E0B2F92D
S31508004E300640DC800120B3F90040B3F90450AC42C7
S31508004E4005DCB3F90240B3F90650AC4200DD002098
S31508004E5030BDF8B504460D4616460027B4F90000DD
S31508004E60B5F90010884212DBB4F90200B5F9021050
S31508004E7088420CDBB4F90400B5F90410884206DC54
S31508004E80B4F90600B5F90610884200DC01270FB907
S31508004E900020F8BD0EB90120FBE72088ADF8000018
S31508004EA06088ADF8020032466946284600F04CF89C
S31508004EB008B90020EDE7A088ADF800006088ADF8D5
S31508004EC0020032466946284600F03EF808B9002036
S31508004ED0DFE72088ADF80000E088ADF8020032462A
S31508004EE06946284600F030F808B90020D1E7A088BE
S31508004EF0ADF80000E088ADF802003246694628465B
S31508004F0000F022F808B90020C3E70120C1E70246ED
S31508004F10B2F90000B1F90430984213DCB2F9040082
S31508004F20B1F9003098420DDBB2F90200B1F906304A
S31508004F30984207DCB2F90600B1F90230984201DB63
S31508004F40012070470020FCE72DE9FC5F05460E4668
S31508004F5014464FF0000AB6F90000B5F90010884269
S31508004F6013DBB6F90000B5F9041088420DDCB6F972
S31508004F700200B5F90210884207DBB6F90200B5F956
S31508004F800610884201DC4FF0010ABAF1000F02D17F
S31508004F900020BDE8FC9F002C01DC0120F9E728462B
S31508004FA010F048FC834600EBDB704710284610F0EB
S31508004FB0E3FB834600EBDB704FEA6008474501DAFE
S31508004FC0384600E0404681464C4500DD4C46288878
S31508004FD0ADF800002888204400B2ADF804006888BF
S31508004FE0ADF802006888204400B2ADF80600002239
S31508004FF031466846FFF7A8FF80B1BDF80400204493
S3150800500000B2ADF80400BDF80600204400B2ADF8C1
S315080050100600314668461CF089FEBAE7E888001B98
S3150800502000B2ADF80200E888ADF806000022314665
S315080050306846FFF789FF80B1BDF80400204400B236
S31508005040ADF80400BDF80200001B00B2ADF802007E
S31508005050314668461CF06AFE9BE7A888001B00B22A
S31508005060ADF80000A888ADF804000022314668466D
S31508005070FFF76AFF80B1BDF80000001B00B2ADF86B
S315080050800000BDF80200001B00B2ADF80200314670
S3150800509068461CF04BFE7CE76888ADF80200688815
S315080050A0204400B2ADF80600002231466846FFF7F4
S315080050B04BFF80B1BDF80000001B00B2ADF8000040
S315080050C0BDF80600204400B2ADF806003146684631
S315080050D01CF02CFE5DE701205BE710B5B1F9003046
S315080050E0B2F90040A34202DAB1F9003001E0B2F9A0
S315080050F000300380B1F90230B2F90240A34202DA65
S31508005100B1F9023001E0B2F902304380B1F9043056
S31508005110B2F90440A34202DDB1F9043001E0B2F964
S3150800512004308380B1F90630B2F90640A34202DDA5
S31508005130B1F9063001E0B2F90630C38010BD2DE999
S31508005140F04104460D461646204610F073FB074606
S31508005150204610F011FB8046258066803946204699
S3150800516010F08AFB4146204610F080FBBDE8F0812E
S31508005170F0B506460D460024002E02DA601CC4B2BD
S3150800518076423746002D02DAA01CC4B26D42AC4600
S31508005190674509D9CCEB0C1000EB4000B0FBF7F3E0
S315080051A004F11000C4B205E0C7EB071000EB40009D
S315080051B0B0FBFCF30022D9B2162910DD2C2901DC3C
S315080051C0501CC2B2292901DC501CC2B2252901DCB7
S315080051D0501CC2B2202912DC501CC2B20FE00229B0
S315080051E001DB501CC2B2062901DB501CC2B20A29D7
S315080051F001DB501CC2B20F2901DB501CC2B213449A
S3150800520004F0100008B1C3F15A0304F0020038B1E3
S3150800521004F0010008B1B43307E0C3F1B40304E0B5
S3150800522004F0010008B1C3F5B47398B2F0BD2DE9D6
S31508005230F04F04460D46C4F5806101FB01F0860A6D
S3150800524006FB01F04FEA902C04FB04F0870A07FBE3
S3150800525004F04FEA90280CFB05F04FEA902906EB7C
S315080052604600604350434FEA105A01EB4100784329
S3150800527058434FEA105B099808FB00F04FEA902E56
S3150800528009EB0A0058447044BDE8F08F2DE9FF4F3A
S3150800529087B01C46DDE91478B8F1020F02DA0BB0C4
S315080052A0BDE8F08F07B9FAE702F01AF8054628466E
S315080052B012F000F8814609F11006D9F808000690A0
S315080052C0686A10B12846696A884704A8DDE90712A2
S315080052D0FFF77EFD8346BBF1000F00D1DFE7BDF87F
S315080052E010003188401A00B2ADF81000BDF812005F
S315080052F07188401A00B2ADF81200BDF81400318862
S31508005300401A00B2ADF81400BDF816007188401AAC
S3150800531000B2ADF81600CCB1287A00F00100A8B9A1
S3150800532004A810F05DFA03904FF0000A0AE014F89A
S315080053300A00802801DDFF2000E0002004F80A00AA
S315080053400AF1010A03988245F1DB00BF686948B192
S31508005350CDE90084029704AA3046099B06990CF009
S31508005360E2F916E0169848B9CDE90084029704AA2E
S315080053703046099B06990CF003F80AE01698CDE921
S315080053800084CDE9027004AA3046099B06990BF001
S3150800539045FF00BF83E72DE9FF4F89B017461C4636
S315080053A0DDE91689B9F1020F02DA0DB0BDE8F08F12
S315080053B0B8F1000F00D1F8E707A8DDE90912FFF7F1
S315080053C007FD0690069800B9EFE701F089FF054644
S315080053D0284611F06FFF82460AF11006DAF808002F
S315080053E00590686A10B12846696A8847BDF81C00A6
S315080053F03188401A00B2ADF81C00BDF81E0071884D
S31508005400401A00B2ADF81E00BDF820003188401AD7
S3150800541000B2ADF82000BDF822007188401A00B22B
S31508005420ADF82200CCB1287A00F00100A8B907A887
S3150800543010F0D6F904904FF0000B0AE014F80B00B0
S31508005440802801DDFF2000E0002004F80B000BF1A6
S31508005450010B04988345F1DB00BF686950B1CDE9BB
S315080054600079CDE9024807AA30460A9B05991FF03C
S31508005470A0FC18E0189850B9CDE90079CDE90248A2
S3150800548007AA30460A9B05991FF0BEFA0BE0189842
S31508005490CDE90079CDE90248049007AA30460A9B6F
S315080054A005991FF0F5F900BF7FE700002DE9FF5FBA
S315080054B081461EF0C1FE0390002002906D49D9F87E
S315080054C00C000860002148461EF0CCFD69480068BB
S315080054D0C06B60B9002167480068D0F8780161F3AD
S315080054E0194064490968C1F87801BDE8FF9F1CF0B6
S315080054F0A3FE1CF0E5FD5F480068D0F87801C0F30C
S31508005500094000287ED05B48006811F084FF002817
