:020000040800F2
:10000000F8890020810200083D1200088B0C0008CE
:1000100039120008CD0A0008B717000800000000D8
:100020000000000000000000000000009113000824
:10003000A10B0008000000003F1200089902000810
:100040009B0200089B0200089B0200087D13000829
:100050009B0200089B0200089B0200089B0200080C
:100060009B0200089B0200089B0200089B020008FC
:100070009B0200089B0200089B0200089B020008EC
:100080009B0200089B0200089B0200080000000081
:100090000000000000000000000000009B020008BB
:1000A0009B020008C11400089B0200089B02000884
:1000B000ED14000819150008451500089B020008FA
:1000C0009B0200089B0200089B0200089B0200089C
:1000D0009B020008D11600089B02000800000000E7
:1000E0009B020008A11200089B020008000000000B
:1000F0000000000000000000000000009B0200085B
:10010000000000009B0200089B0200089B02000800
:1001100000000000000000000000000000000000DF
:100120009B0200089B0200089B020008D10A0008FD
:100130009B0200080000000000000000000000001A
:100140000000000000000000000000009B0200080A
:100150009B0200089B0200089B0200089B0200080B
:100160009B0200089B020008000000000000000045
:10017000000000000000000000000000000000007F
:10018000000000009B0200080000000000000000CA
:100190009B0200089B02000800F002F800F061F8E2
:1001A0000AA090E8000C82448344AAF10107DA45D2
:1001B00001D100F056F8AFF2090EBAE80F0013F0C3
:1001C000010F18BFFB1A43F001031847484F000006
:1001D000684F00000A444FF0000C10F8013B13F088
:1001E000070408BF10F8014B1D1108BF10F8015B90
:1001F000641E05D010F8016B641E01F8016BF9D183
:1002000013F0080F1EBF10F8014BAD1C0C1B09D1D9
:100210006D1E58BF01F801CBFAD505E014F8016B4B
:1002200001F8016B6D1EF9D59142D6D370470000DD
:100230000023002400250026103A28BF78C1FBD8EF
:10024000520728BF30C148BF0B607047642900F0D7
:10025000DF80002070471FB504F0FAF81FBD10B50D
:1002600010BD00F0D9FA1146FFF7F5FF03F01AF8B8
:1002700000F0F7FA03B4FFF7F2FF03BC01F0BCFC97
:100280000948804709480047FEE7FEE7FEE7FEE72A
:10029000FEE7FEE7FEE7FEE7FEE7FEE70448054966
:1002A000054A064B704700005914000899010008E0
:1002B000F8830020F8890020F8850020F8850020C8
:1002C000704753EA020C00F069802DE9F04B4FF0C3
:1002D0000006002B1FBFB3FA83F503FA05F424FAD6
:1002E00005F65E4012BF1643B2FA82F502FA05F433
:1002F000C5F120051EBF22FA05FC44EA0C04203596
:1003000056EA044C4FEA144418BF641C4FF000082E
:100310004FF00009904271EB030C39D3002919BF4B
:10032000B1FA81F701FA07F6B0FA80F700FA07F69A
:10033000C7F120071EBF20FA07FC46EA0C0620374B
:10034000B6FBF4FCA7EB0507103F07F01F0BCBF142
:1003500020060CFA0BFB2CFA06F644BFB346002627
:10036000202FA4BF5E464FF0000B5BEA060C08BFCF
:100370004FF0010B19EB0B09ABFB027C48EB0608B5
:10038000C01B06FB02CC0BFB03CC71EB0C01C1E7DD
:100390000B46024641464846BDE8F08B13B54FF088
:1003A00000004FF00001AFF30080BDE81C40704733
:1003B00010B54C1084EA530404D54042C1F1000149
:1003C00038BF491E1B4204D55242C3F1000338BF57
:1003D0005B1EFFF776FF14F0804F04D04042C1F15E
:1003E000000138BF491E14F0004F04D05242C3F13F
:1003F000000338BF5B1E10BD0FB4044910B503AA3B
:10040000029800F0CDF910BC5DF814FB2801002023
:100410002DE9F0410646002410687529314616A5DD
:1004200010D0AFF30080002802DA404213A507E0A5
:1004300031688A0701D512A502E0490704D511A544
:10044000012401E0AFF3008000210A2206F1240715
:1004500009E0B0FBF2FCB0FBF2F302FB1C00303011
:1004600078541846491C0028F3D123462A463046C2
:10047000BDE8F04100F022B9000000002D000000AE
:100480002B000000200000002DE9F05F89460446A3
:100490004FF0000ADFF824B1FB44C0F820A020464A
:1004A000E168884700287DD0252806D0D4E90121BD
:1004B0009047206A401C2062F1E700255F462046F5
:1004C000E16888472028064607DB312E05D2B81997
:1004D00010F8200C08B10543F1E7A80701D525F075
:1004E0000405C4F81CA00027C4F818A02A2E09D0BF
:1004F000304601F062F938B304EB8708303EC8F8A3
:10050000186019E059F8041B204604EB870291613A
:10051000E1688847012F064618D1E069002820DAF3
:1005200025F020051DE0D8F8180000EB800006EB50
:1005300040003038C8F818002046E1688847064671
:1005400001F03BF90028EED1012F0AD02E2E08D160
:100550002046E16888477F1C0646022F45F02005AB
:10056000C4DBA069002803DA404245F00105A06120
:10057000E80701D025F01005A6B1A6F14100192821
:1005800002D8203645F400654A46314620462560AB
:100590004D46FFF75BFE60B1012807D0ED1D25F049
:1005A000070000E007E000F1080978E705F1040919
:1005B00075E730467AE7206ABDE8F09F164C0000E8
:1005C00040EA010310B59B070FD1042A0DD310C8D0
:1005D00008C9121F9C42F8D020BA19BA884201D922
:1005E000012010BD4FF0FF3010BD1AB1D30703D06A
:1005F000521C07E0002010BD10F8013B11F8014B20
:100600001B1B07D110F8013B11F8014B1B1B01D13B
:10061000921EF1D1184610BD10B5431C02E010F82F
:10062000011B71B18107FAD14FF0013202C88C1A57
:100630008C4314EAC211F9D0C01A0A0603D0C01EB6
:1006400010BDC01A10BD0A0401D0801E10BD0902E1
:10065000FCD0401E10BD02F0FF0343EA032242EA31
:10066000024200F0B1B84FF0000200B513469446C4
:100670009646203922BFA0E80C50A0E80C50B1F1FA
:100680002001BFF4F7AF090728BFA0E80C5048BF0E
:100690000CC05DF804EB890028BF40F8042B08BFAC
:1006A000704748BF20F8022B11F0804F18BF00F8A8
:1006B000012B704770477047704770472DE9F0472E
:1006C0000D4699469246044600F1240801688806C2
:1006D00004D5E06921F01001216000E00120A8426A
:1006E00001DD471B00E00027A1697A1902EB090030
:1006F000081AA0612078C00602D42046AFF300801B
:10070000002608E0D4E901211AF806009047206A83
:10071000401C761C20624E45F4DB2078C0060AD5CA
:100720002046AFF3008006E0D4E901213020904755
:10073000206A401C2062381EA7F10107F4DC07E0A4
:10074000D4E9012118F805009047206A401C206276
:10075000281EA5F10105F3DC2046AFF300802078C8
:10076000000602D50220BDE8F0870120FBE700006B
:1007700001694A1C02610878704700B58FB0CDE965
:1007800001310021059105497944CDE90310114655
:100790006846FFF779FE0FB000BD0000E5FFFFFFE0
:1007A000074B70B50D467B44FFF7E7FF044628462C
:1007B00000F02AF810B14FF0FF3070BD204670BD38
:1007C000CF2000004FF000020429C0F0128010F08A
:1007D000030C3FF44AAFCCF1040CBCF1020F18BF7C
:1007E00000F8012BA8BF20F8022BA1EB0C01FFF7AA
:1007F0003CBF5FEAC17C24BF00F8012B00F8012B4D
:1008000048BF00F8012B7047007B00F08000704764
:1008100000487047948300207546FFF7F9FFAE4605
:1008200005006946534620F00700854618B020B5FC
:10083000FFF734FDBDE820404FF000064FF0000701
:100840004FF000084FF0000B21F00701AC46ACE878
:10085000C009ACE8C009ACE8C009ACE8C0098D46E5
:10086000704710B50446AFF300802046BDE8104045
:10087000FFF700BD10B5044624480068401C23491A
:10088000086008460068002807DD084600686428FC
:1008900003DA19201E4908600FE01C480068C828C8
:1008A00008DD1A480068B0F5FA7F03DA5F201849BE
:1008B000086002E000201649086014480068B0F59E
:1008C000487F07DB00201149086012480068401C7F
:1008D000104908600F480068052806D00E480078C7
:1008E00090B10C48006802280EDD0020074908601E
:1008F000084908600849087000220121074800F0F3
:100900004FFE204602F0A2FC10BD000004010020B2
:10091000F400002008010020F8000020000800403A
:1009200010B504462B480068401C2A490860084658
:100930000068002807DD08460068642803DA1920EB
:10094000254908601DE023480068C82808DD2148C3
:100950000068B0F5967F03DA28201F49086010E090
:100960001C480068B0F5C87F08DD1A480068B0F57B
:10097000FA7F03DA19201849086002E000201649BE
:10098000086014480068B0F5487F07DB0020114973
:10099000086012480068401C104908600F48006851
:1009A000052806D00E48007890B10C48006802284F
:1009B0000EDD0020074908600849086008490870F2
:1009C00000220121074800F0EBFD204602F03EFC2A
:1009D00010BD00000C010020F400002010010020D8
:1009E000F80000200008004010B5044632480068B6
:1009F000401C3149086008460068002807DD0846A9
:100A00000068642803DA19202C4908602BE02A4882
:100A10000068C82808DD28480068B0F5967F03DA2A
:100A20002820264908601EE023480068B0F5C87FEA
:100A300008DD21480068B0F5FA7F03DA19201F4964
:100A4000086010E01C480068B0F5167F08DD1A4801
:100A50000068B0F52F7F03DA3C201849086002E0F7
:100A600000201649086014480068B0F5966F07DB4F
:100A700000201149086012480068401C10490860B5
:100A80000F480068052806D00E48007890B10C4841
:100A9000006802280EDD0020074908600849086048
:100AA0000849087000220121074800F079FD20461E
:100AB00002F0CCFB10BD000014010020F400002067
:100AC00018010020F80000200008004000BFFEE7E9
:100AD00010B50949094800F031F858B1102108480B
:100AE00000F0D1F80748006802F082FA0249034892
:100AF00000F00AF810BD00000080001858640240A1
:100B000000000240200100200246094B9A4201D217
:100B1000084801E00648103801F000531BB1064BAD
:100B20000B40C36002E0044B0B4083607047000041
:100B300010640240006002407D0F7D0F70B50246D8
:100B4000002000240025124EB24201D2114B01E0D8
:100B50000F4B103B104E0E4036B11E2606EAD12434
:100B6000166806EA040502E0566906F0800501F001
:100B700000560EB15C6800E01C68084E344004EA80
:100B8000010616B10DB1012000E0002070BD00008B
:100B900010640240006002403C0F3C0F7D0F7D0F4F
:100BA000704700000149086070470000143C014094
:100BB000F0B50A4600210023002400BF3DE00125D6
:100BC00005FA01F3156805EA03049C4234D105686F
:100BD0004F000326BE40B543056015794E00B54071
:100BE0000668354305601579012D02D01579022D6F
:100BF00016D185684F000326BE40B5438560557900
:100C00004E00B540866835438560456801268E40B4
:100C1000B5434560456896798E40B6B23543456028
:100C2000C5684F000326BE40B543C560D5794E0068
:100C3000B540C6683543C560491C1029BFD3F0BD17
:100C4000F0B5002300244D07ED0E02FA05F3CE1097
:100C500000F1200555F826504E07F70E0F26BE402E
:100C6000B543CF1000F1200646F82750CE1000F112
:100C7000200555F8265045EA0304CE1000F1200562
:100C800045F82640F0BD0183704700BFFEE710B570
:100C9000642001F013F800F02BF801214FF4E1502B
:100CA00003F080FB00F00CF800BF00F095F900287D
:100CB000FBD100BF02F040FB0028FBD110BD0000BB
:100CC0001CB50121022000F0DBFA47F24000009041
:100CD00000208DF8040001208DF8070003208DF816
:100CE000050069460148FFF763FF1CBD0004024090
:100CF0001CB50121062000F0A3FA4FF4005000902B
:100D000003208DF8050001208DF8040000208DF8E7
:100D1000060001208DF8070069460748FFF748FFE5
:100D200044F22000009069460448FFF741FF20216B
:100D30000248FFF7A8FF1CBD000802400004024063
:100D400010B500200E4908600E48006820F44030BD
:100D50000C4908600846006840F4803008600020B4
:100D60000949C1F8A00200F011F801200449086007
:100D700000F00CF800200449C1F8A40210BD0000E6
:100D8000A4824042000402400080404210B502208C
:100D900000F0CEFF10BD00001CB50121022000F0C4
:100DA0006FFA4FF44070009003208DF80500012089
:100DB0008DF8040000208DF8060069460148FFF711
:100DC000F7FE1CBD0004024010B500200E4908606B
:100DD0000E48006820F440300C490860084600685E
:100DE00040F48030086001200949C1F8A002FFF7F3
:100DF000CDFF012004490860FFF7C8FF0020044927
:100E0000C1F8A40210BD0000A482404200040240C8
:100E10000080404270B5054600241548006820F463
:100E2000403013490860084600680860002614E056
:100E3000002010490860FFF7A9FF01200E49C1F802
:100E4000A4026006040E0B488438006808B1601CD8
:100E5000C4B2FFF79BFF701CC6B2082EE8DB15B9C1
:100E6000FFF7B2FF01E0FFF76BFF204670BD000007
:100E700000040240A48240420080404270B5044613
:100E80001648006820F4403014490860084600689D
:100E900040F480300860002011490860002519E006
:100EA000E00920B101200E49091F086003E000207D
:100EB0000B49091F08606006040E012008490860FC
:100EC000FFF764FF00200749C1F8A402FFF75EFFA7
:100ED000681CC5B2082DE3DB70BD000000040240B1
:100EE000A48240420080404210B50E48006820F4C1
:100EF00040300C4908600846006840F480300860C3
:100F00000120094908600949C1F8A402FFF73EFF22
:100F1000002005490860FFF739FF00200349C1F8A8
:100F2000A40210BD00040240A08240420080404262
:100F300010B50E48006820F440300C49086008469F
:100F4000006840F4803008600020094908600949C1
:100F5000C1F8A002FFF71AFF012005490860054902
:100F6000C1F8A002FFF712FF10BD0000000402400C
:100F7000A48240420080404210B50024134800681B
:100F800020F44030114908600846006808600120DC
:100F90000F490860FFF7FAFE01200E49C1F8A402CC
:100FA000FFF7F4FE07E0601CC4B2FA2C03DDFFF784
:100FB000BFFF012010BD0648803800680028F2D12C
:100FC0000349091D086000BFF4E700000004024067
:100FD000A08240420080404210B5FFF7DDFE802134
:100FE0006B2000F0D7F8642000F086FE00216B2013
:100FF00000F0D0F8032000F08BF8002000F080F81B
:10100000C82000F0AAF80021382000F0C3F8002121
:101010006A2000F0BFF80021232000F0BBF88021F7
:10102000372000F0B7F8752000F013F80446682C5C
:101030000BD101216B2000F0ADF800216C2000F0F5
:10104000A9F8C82000F089F801E0012010BD0020B7
:10105000FCE770B50446FFF747FFD020FFF70EFF0F
:10106000FFF78AFF2046FFF709FFFFF785FFFFF72D
:101070003BFFD120FFF702FFFFF77EFF0020FFF7C5
:10108000C9FE0546FFF754FF284670BD2DE9F04123
:1010900006460F4614461D46FFF726FF002141EA8B
:1010A0004601C8B2FFF7EAFEFFF766FF20B1FFF77F
:1010B0003FFF0120BDE8F0813846FFF7DFFEFFF774
:1010C0005BFFFFF711FF012101EB4601C8B2FFF7FB
:1010D000D5FEFFF751FF0DE0012C04D10020FFF7F2
:1010E00099FE287003E00120FFF794FE2870601E2F
:1010F000C4B26D1C002CEFD1FFF71AFF0020D9E716
:1011000010B50446E006010E1C2000F043F810BDA7
:1011100010B50446E006010E1B2000F03BF810BDA0
:1011200070B504460025BC2C01DB012510E0622CC3
:1011300001DB02250CE02A2C01DB032508E0142C3E
:1011400001DB042504E00A2C01DB052500E006256F
:1011500029461A2000F01EF870BD70B50446B4F59B
:101160007A7F01DD4FF47A74042C00DA04244FF402
:101170007A7090FBF4F0401EC5B22946192000F0A9
:1011800009F80546264604EBD671C1F34F00FFF778
:10119000C7FF70BD70B505460C46FFF7A5FED02011
:1011A000FFF76CFEFFF7E8FE18B1FFF7C1FE012064
:1011B00070BD2846FFF762FEFFF7DEFE2046FFF710
:1011C0005DFEFFF7D9FE18B1FFF7B2FE0120EFE791
:1011D000FFF7AEFE0020EBE72DE9F04105460E4695
:1011E00017469846FFF780FE002141EA4501C8B244
:1011F000FFF744FEFFF7C0FE20B1FFF799FE012084
:10120000BDE8F0813046FFF739FEFFF7B5FE002458
:101210000CE018F80400FFF731FEFFF7ADFE18B13F
:10122000FFF786FE0120EBE7601CC4B2BC42F0DB96
:10123000FFF77EFE0020E3E700BFFEE77047704740
:1012400029B1064A12680243044B1A6004E0034ABB
:1012500012688243014B1A60704700003038024028
:1012600029B1064A12680243044B1A6004E0034A9B
:1012700012688243014B1A607047000040380240F8
:1012800029B1064A12680243044B1A6004E0034A7B
:1012900012688243014B1A607047000044380240D4
:1012A00010B54FF4807000F055F8012832D10002DB
:1012B00000F042F81A48006808B9012000E0002058
:1012C0001749086001221146164800F069F91648CE
:1012D0000068022806D1002302220121134801F0F0
:1012E00039FF13E01048006830B9002302220121C1
:1012F0000F4801F02FFF09E00B480068012805D1D5
:101300000023022201210B4801F024FF4FF48070DA
:1013100000F012F84FF40030FFF744FC10BD00005D
:101320009482404200080040D80000207508000860
:1013300021090008E909000881B241F08001044A4E
:10134000126802F0800262EA0101014A11607047EE
:101350000C28004010B5014600200022054B1B68F8
:10136000054C03EA040202EA01030BB1012000E08C
:10137000002010BD0C2800407F7F010010B54FF405
:101380008060FFF7E7FF4FF48000FFF70BFC10BD14
:10139000704700002248006840F0805020490860F3
:1013A0002048006840F440401E4908601C48383816
:1013B00000681B493839086008460068086008461C
:1013C000006840F4805008601748091F0860081F33
:1013D000006840F08070091F086000BF1048403866
:1013E000006800F000700028F8D040F202700F4949
:1013F00008600B483838006820F003000849383985
:1014000008600846006840F00200086000BF044819
:101410003838006800F00C000828F8D17047000048
:10142000403802400070004010640107003C024058
:10143000042808D14FF0E021096941F004014FF080
:10144000E022116107E04FF0E021096921F0040179
:101450004FF0E0221161704710B51548006840F464
:101460007000134908601348006840F001001149FA
:10147000086000200F49083108600E4800680E49D6
:1014800008400C4908600D48091D0860081F0068E5
:1014900020F48020091F0860002006490C310860F4
:1014A000FFF778FF4FF0006001498039086010BDF8
:1014B00088ED00E000380240FFFFF6FE1030002407
:1014C00010B50848008A00F0010010B10648006815
:1014D00080470448008A4FF6FE710840014908829F
:1014E00010BD0000000001408C00002010B54FF03E
:1014F0008040008A00F0010010B106480068804773
:101500004FF08040008A4FF6FE7108404FF0804156
:10151000088210BD9000002010B50848008800F037
:10152000010010B1064800688047044800884FF663
:10153000FE7108400149088010BD00001004004001
:101540009400002010B50848008800F0010010B198
:10155000064800688047044800884FF6FE7108403E
:101560000149088010BD00001008004098000020CC
:1015700021B1028842F08002028004E002884FF626
:101580007F731A400280704721B1028842F0010245
:10159000028004E002884FF6FE731A400280704712
:1015A0001AB183890B43838102E083898B43838152
:1015B0007047000070B5002200230024058C4EF611
:1015C000FF7635400584038C8488828B48F6FF754E
:1015D0002A404FF6FF452A400D884FF6FF7606EA6F
:1015E00005252A434DF6FF752B408D8906EA053502
:1015F0002B434D8806EA05352B430A4DA84202D0FD
:10160000094DA84208D14BF6FF752C400D8A4FF6C4
:10161000FF7606EA85152C43848082838D680564F5
:10162000038470BD00000140000401400A4600210F
:10163000818B4FF2FF7319404FF6FF7303EA0223C9
:1016400019438183704701647047000000220288BB
:10165000184B98420ED0184B98420BD0B0F1804FE7
:1016600008D0164B984205D0154B984202D0154B26
:10167000984204D14FF68F731A404B881A43124B8D
:10168000984207D0114B984204D04FF6FF431A40BE
:101690000B891A4302804B68C3620B880385054B94
:1016A000984202D0044B984201D18B7A03860123E1
:1016B00083827047000001400004014000040040A4
:1016C00000080040000C00400010004000140040E2
:1016D00010B540F225511D4800F03EF810B31B48EC
:1016E00000F064F8C4B21A48008800F40040C8B999
:1016F0001748008800F4804060B10A2C03D0002015
:101700001349088020E01248008840F40040104946
:10171000088019E00D2C06D10D48008840F4804067
:101720000B49088010E00A480088C0F30D00094901
:101730000C5407480088401C05490880084600886A
:10174000C72801DD0020088010BD00000010014006
:101750002C010020CC82002070B50246002400231A
:101760000025002040F66A16B14200D100BFC1F347
:10177000421501F01F03012606FA03F3012D02D1E1
:101780009689334006E0022D02D1168A334001E0EB
:10179000968A33400C12012606FA04F41688344067
:1017A00013B10CB1012000E0002070BD0146888813
:1017B000C0F30800704700BFFEE730380A2801D2A6
:1017C00001207047002070470146002001B14868A1
:1017D000704702460AB9002070470B461068001D8A
:1017E00003441868F8E702460AB9002070470B4620
:1017F000106803441868F9E70146002001B18868C1
:10180000704770B50446216801F1080001F0F6FB4D
:101810000546A5B100222946204602F021FD2946B1
:101820002046626802F00EFD606820B12A4620461C
:10183000616802F015FD6560A06800B9A5602846E2
:1018400070BD2DE9F04106460D4606B115B90020E0
:10185000BDE8F0813046FFF7B7FFA84206D1304619
:10186000FFF7CFFF044624BB0020F1E7316801F108
:10187000080001F0C3FB04460CB90020E8E7294644
:101880003046FFF7B0FF074622463946304602F0A1
:10189000D9FC3A462146304602F0E2FC224629466F
:1018A000304602F0DDFC2A462146304602F0CAFCF2
:1018B00000BF2046CCE770B50446216801F108005E
:1018C00001F09CFB0546A5B100222946204602F006
:1018D000B9FC29462046A26802F0C2FCA06820B1EB
:1018E0002A462046A16802F0ADFCA560606800B9F8
:1018F0006560284670BD2DE9F04104460D4620463E
:10190000FFF762FFA8420FD129462046FFF761FF8B
:101910006060606810B90020A0602FE000222046BF
:10192000616802F09DFC29E02046FFF765FFA842B0
:101930000FD129462046FFF756FFA060A06810B9D6
:10194000002060601AE000222046A16802F07AFCC4
:1019500014E029462046FFF746FF06462946204662
:10196000FFF737FF07463A463146204602F06AFC49
:1019700032463946204602F073FC00BFBDE8F081D4
:101980002DE9F0410F46154601463A4601F003069F
:1019900002F0030CB4457DD0C2E092F8008081F8DB
:1019A0000080491C521C92F8008081F80080491C7C
:1019B000521C92F8008081F80080491C521C92F859
:1019C000008081F80080491C521C92F8008081F848
:1019D0000080491C521C92F8008081F80080491C4C
:1019E000521C92F8008081F80080491C521C92F829
:1019F000008081F80080491C521C92F8008081F818
:101A00000080491C521C92F8008081F80080491C1B
:101A1000521C92F8008081F80080491C521C92F8F8
:101A2000008081F80080491C521C92F8008081F8E7
:101A30000080491C521C92F8008081F80080491CEB
:101A4000521C92F8008081F80080491C521C92F8C8
:101A5000008081F80080491C521C92F8008081F8B7
:101A60000080491C521C92F8008081F80080491CBB
:101A7000521C92F8008081F80080491C521C92F898
:101A8000008081F80080491C521C92F8008081F887
:101A9000008000E053E0491C521C92F8008081F85D
:101AA0000080491C521C92F8008081F80080491C7B
:101AB000521C92F8008081F80080491C521C92F858
:101AC000008081F80080491C521C92F8008081F847
:101AD0000080491C521C92F8008081F80080491C4B
:101AE000521C92F8008081F80080491C521C92F828
:101AF000008081F80080491C521C92F8008081F817
:101B00000080491C521C92F8008081F80080491C1A
:101B1000521C92F8008081F80080491C521C203D24
:101B2000202D3FF63AAF06E092F8008081F8008061
:101B3000491C521C6D1E002DF6D1BDE8F0816EB11E
:101B4000C6F1040607E092F8008081F80080491C85
:101B5000521C761E6D1E0EB1002DF4D10B4614469C
:101B600030E0D4F80080C3F800801B1D241DD4F899
:101B70000080C3F800801B1D241DD4F80080C3F82A
:101B800000801B1D241DD4F80080C3F800801B1D9D
:101B9000241DD4F80080C3F800801B1D241DD4F838
:101BA0000080C3F800801B1D241DD4F80080C3F8FA
:101BB00000801B1D241DD4F80080C3F800801B1D6D
:101BC000241D203D202DCCD806E0D4F80080C3F899
:101BD00000801B1D241D2D1F042DF6D819462246FA
:101BE00006E092F8008081F80080491C521C6D1EAE
:101BF000002DF6D100BFA0E700BF7047F0B52DED76
:101C0000028B83B006460F460025684600F042FE70
:101C1000002447E056F8241057F82420881A00289A
:101C200001DB014600E0414200EE101AB8EEC00AA6
:101C3000DFED200A80EE208A684600EB840090EDFC
:101C4000000AB5EEC00AF1EE10FA18D0684600EBB3
:101C50008400D0ED000A88EE200AF7EE000A70EE4C
:101C6000608AB0EEE80A1448D0ED090AB4EEE00A42
:101C7000F1EE10FA15DD0120A040054311E00E48F9
:101C800090ED070AB4EEC80AF1EE10FA06DC90ED0A
:101C9000080AB4EEC80AF1EE10FA02D20120A04000
:101CA0000543641C032CB5DB284603B0BDEC028B56
:101CB000F0BD0000000080479444000810B50446C1
:101CC0006FF00400FFF7B4FBE11704EB5171C1F3AF
:101CD000C701074A11701046007800EB4001C1EBC4
:101CE000C0104FF6FF7101EAC0000249088010BD24
:101CF000240100202601002070B504464FF407702F
:101D000094FBF0F0C6B24FF4077094FBF0F100FBC7
:101D1000114085B205E04FF4077000F02FF8701EF7
:101D2000C6B2002EF7D115B1284600F027F870BDD5
:101D30000146114A12784A434FF0E0235A610022CB
:101D40009A611A46126942F001021A6100BF4FF00F
:101D5000E022106900F001021AB100F48032002A7A
:101D6000F5D04FF0E022126922F001024FF0E0239B
:101D70001A6100229A617047240100200146114A2D
:101D800012884A434FF0E0235A6100229A611A46B2
:101D9000126942F001021A6100BF4FF0E02210699F
:101DA00000F001021AB100F48032002AF5D04FF0A1
:101DB000E022126922F001024FF0E0231A610022B2
:101DC0009A6170472601002038B5044664B120208E
:101DD0008DF8000028208DF8010030208DF80200D9
:101DE00038208DF8030004E0A32204216846FEF7A2
:101DF00032FC6A46042140F69E2002F0E3F901F02D
:101E0000CDFD38BD3EB5044602208DF80000CA2045
:101E10008DF80100E3208DF8020009208DF8030001
:101E20006A460421682002F0CDF9A3208DF8000055
:101E300004F0400048B1C0208DF80100C8208DF8A2
:101E40000200C2208DF8030006E0A3208DF80100F7
:101E50008DF802008DF8030004F4C07048B1C4206E
:101E60008DF80400CC208DF80500C6208DF8060002
:101E700006E0A3208DF804008DF805008DF806001B
:101E8000A3208DF807008DF808008DF809006A4638
:101E90000A2140F6A72002F095F904F0030018B1DA
:101EA00020208DF8000002E0D8208DF800006A465E
:101EB000012140F6B62002F085F904F0200018B1A7
:101EC000012000F0ADF802E0002000F0A9F804F4D1
:101ED000C07008B304F4807060B1B2208DF80000C7
:101EE0008B208DF80100B6208DF802009B208DF824
:101EF00003000BE0B0208DF8000080208DF8010079
:101F0000B4208DF8020090208DF803006A46042169
:101F100040F6A22002F056F904F0010020B3F820A8
:101F20008DF800006A4601214FF40B6002F04AF977
:101F3000FA21072000F046FB072000F00DFB0120EE
:101F400000F02DFB642000F01DFC4FF4FA7000F04F
:101F50002CFCC821304800F0BDFA282000F0D6FA49
:101F60000A2000F0E6FA08E0D8208DF800006A4662
:101F700001214FF40B6002F025F904F0020018B1C2
:101F8000D9208DF8000002E0D8208DF800006A46C4
:101F9000012140F23D7002F015F904F0040018B17F
:101FA000012000F069F802E0002000F065F804F07C
:101FB000100018B10120FFF707FF02E00020FFF733
:101FC00003FF44F008001549488101F0E7FC0020B8
:101FD0001249887304F0400018B10846807B801DC8
:101FE000887304F4C07020B10C48807B801D0B49BD
:101FF000887304F0140020B10848807B1030074932
:10200000887304F0030020B10448807B001D03495D
:10201000887300203EBD000009E3CA02BC82002094
:102020003EB504466CB10EA1D1E900208968CDE926
:10203000002002916A4609214FF4976002F0C2F82D
:102040003EBD0AA2D2E900109268CDE901020091DA
:102050006A4609214FF4976002F0B4F8F0E70000F7
:10206000B8AAB38DB4980D355D000000B8AAAAAA2D
:10207000B088C3C5C700000038B5044664B1C020AD
:102080008DF80000C2208DF80100C4208DF80200F8
:10209000C6208DF8030004E08B2204216846FEF779
:1020A000DAFA6A46042140F6982002F08BF801F033
:1020B00075FC38BD10B5C8234FF48062024940F664
:1020C000F63001F05FFB10BDBC44000870B588B06D
:1020D000064601A801F0A2F9BDF804000021C903D9
:1020E00041EA5045C4034448007A00F0030056F822
:1020F000200005904048007A00F0040010B10598D7
:10210000404205903C48007AC0F3C10056F82000D8
:1021100006903948007A00F0200010B1069840423D
:1021200006903548007AC0F3811056F820000790D9
:102130003148008900F4807010B107984042079040
:102140000598C117A0FB042301FB043100FB051017
:10215000810041EA927005900698C117A0FB042304
:1021600001FB043100FB0510810041EA92700690EA
:102170000798C117A0FB042301FB043100FB0510E5
:10218000810041EA927007900598000E8DF80800D2
:102190000598000C8DF809000598000A8DF80A00D2
:1021A0000598C0B28DF80B000698000E8DF80C0053
:1021B0000698000C8DF80D000698000A8DF80E00A8
:1021C0000698C0B28DF80F000798000E8DF8100029
:1021D0000798000C8DF811000798000A8DF812007E
:1021E0000798C0B28DF8130002AA0C214FF4257095
:1021F00001F0E8FF08B070BDBC82002030B585B0AA
:10220000044616A207CA02AB07C3C82C03DD4FF071
:10221000FF3005B030BDC82090FBF4F0401E85B201
:10222000280A8DF80000E8B28DF801006A46022104
:1022300040F2162001F0C6FF10B14FF0FF30E8E782
:1022400002AA0C2140F6C12001F0BCFF10B14FF0F2
:10225000FF30DEE7044884810020DAE7FEF2ABC4F9
:10226000AAF1DFDFBBAFDFDFBC8200201FB5044671
:102270004848007A00F0030054F8200001904548D7
:10228000007A00F0040010B10198404201904148EA
:10229000007AC0F3C10054F8200002903D48007A53
:1022A00000F0200010B10298404202903948007AB4
:1022B000C0F3811054F8200003903648008900F4E0
:1022C000807010B10398404203903349019880FB1D
:1022D0000101800F40EA810001902F49029880FBA4
:1022E0000110820042EA917002902B49039880FB12
:1022F0000110820042EA917003900198000E8DF85F
:1023000000000198000C8DF801000198000A8DF87A
:1023100002000198C0B28DF803006A4604214FF410
:10232000747001F04FFF18B14FF0FF3004B010BDD2
:102330000298000E8DF800000298000C8DF8010044
:102340000298000A8DF802000298C0B28DF80300CE
:102350006A4604214FF4757001F034FF10B14FF05C
:10236000FF30E3E70398000E8DF800000398000C9F
:102370008DF801000398000A8DF802000398C0B29E
:102380008DF803006A4604214FF4767001F01AFFBD
:10239000CCE70000BC82002009E3CA0210B586B079
:1023A000044647A00068039046A00068029046A03B
:1023B0000068019045A00068009004F0030003A9A4
:1023C000085C8DF8140003A8C4F3C101405C8DF8CB
:1023D000150003A8C4F38111405C8DF8160004F0C9
:1023E000030002A9085C8DF8100002A8C4F3C10123
:1023F000405C8DF8110002A8C4F38111405C8DF897
:10240000120005AA032140F2264001F0DBFE18B1BC
:102410004FF0FF3006B010BD04AA032140F22A405D
:1024200001F0D0FE10B14FF0FF30F3E701980590B6
:102430000098049004F0040058B19DF8140040F096
:1024400001008DF814009DF8100040F001008DF897
:10245000100004F0200058B19DF8150040F0010074
:102460008DF815009DF8110040F001008DF8110065
:1024700004F4807058B19DF8160040F001008DF80A
:1024800016009DF8120040F001008DF8120005AA18
:1024900003214FF4886001F095FE10B14FF0FF303A
:1024A000B8E704AA032140F2314001F08BFE10B1DD
:1024B0004FF0FF30AEE7064804810020AAE7000095
:1024C0004CCD6C000CC92C003656760026466600B2
:1024D000BC820020F8B505460E464FF47A7095FB95
:1024E000F0F000FB06F4200E8DF80000200C8DF8B3
:1024F0000100200A8DF80200E0B28DF803006A4660
:1025000004214FF4AE7001F05DFEF8BD38B504460D
:10251000052094FBF0F084B220128DF80000E0B2A8
:102520008DF801006A4602214FF4AD7001F04AFEB9
:1025300038BD38B50446052094FBF0F084B2201273
:102540008DF80000E0B28DF801006A4602214FF4D8
:10255000AC7001F037FE38BD38B50446002000905D
:1025600004F0010020B19DF8000040F03000009020
:1025700004F0020020B19DF8000040F00C00009033
:1025800004F0040020B19DF8000040F0030000902A
:102590006A4601214FF4A47001F014FE38BD38B52D
:1025A0000446012C01DA012402E0042C00DD04249D
:1025B000601EC0B200906A46012140F24F1001F047
:1025C00001FE38BDF0B52DED028B83B006460F46F7
:1025D00006F0070010B1B7F5C86F05DD4FF0FF300A
:1025E00003B0BDEC028BF0BD00EE107AB8EE400AED
:1025F000DFED5B0A80EE208A01A800F0E9FE9DF87D
:102600000400022806D0042817D0082828D0102853
:102610004CD138E09FED530A28EE000ABCEEC00A08
:1026200010EE100A84B29FED500A28EE000ABCEEAC
:10263000C00A10EE100A85B23BE09FED4C0A28EE6E
:10264000000ABCEEC00A10EE100A84B29FED480AE0
:1026500028EE000ABCEEC00A10EE100A85B228E08F
:102660009FED440A28EE000ABCEEC00A10EE100AE4
:1026700084B29FED410A28EE000ABCEEC00A10EEBB
:10268000100A85B215E09FED3D0A28EE000ABCEE67
:10269000C00A10EE100A84B29FED390A28EE000A33
:1026A000BCEEC00A10EE100A85B202E04FF0FF3017
:1026B00096E700BF20128DF80800E0B28DF80900FF
:1026C00028128DF80A00E8B28DF80B0006F0010020
:1026D000A0B102AA02214FF4EA7001F073FD10B11B
:1026E0004FF0FF307CE70DF10A0202214FF49270A7
:1026F00001F068FD10B14FF0FF3071E706F0020005
:10270000A0B102AA02214FF4EC7001F05BFD10B100
:102710004FF0FF3064E70DF10A0202214FF494708C
:1027200001F050FD10B14FF0FF3059E706F0040002
:10273000A0B102AA02214FF4EE7001F043FD10B1E6
:102740004FF0FF304CE70DF10A0202214FF4967072
:1027500001F038FD10B14FF0FF3041E700203FE7B6
:10276000000048430000804600004046000000464C
:102770000000C045000080450000404500000045C5
:102780000000C04438B50446052094FBF0F085B243
:1027900028128DF80000E8B28DF801006A46022187
:1027A0004FF4EF7001F00EFD38BD38B5044605203A
:1027B00094FBF0F085B228128DF80000E8B28DF895
:1027C00001006A4602214FF4ED7001F0FBFC38BDB8
:1027D00070B504460D460026207800F0010068B967
:1027E0002068B5EB500F09D82946204600F020F8A4
:1027F000206820F00100401C2060261D304670BD7E
:1028000010B50146002011B9084A10680CE00A1DF5
:102810000B6802EB5300031D044C246804F50044CC
:10282000A34200D3002000BF10BD00002400002000
:1028300030B5CA1C22F003010A1D0368B2EB530F26
:1028400001D1026851080268B1EB520F12D0031D8A
:102850005A18146824F0010414600468C1EB54048D
:10286000241F156864F35F051560046861F35F0455
:10287000046000BF30BD000000BF054A128802F0AE
:102880004002002AF9D0C2B2014B9A807047000082
:10289000001001407CB505462E494968087801AB17
:1028A00004220D21FEF7F2FB08B107207CBD9DF844
:1028B0000700C0F301109DF8041001F0E00140EAA8
:1028C000E1008DF800009DF80700C0F381009DF83D
:1028D000051001F0E00140EAE1008DF801009DF8EB
:1028E000070000F003009DF8061001F0E00140EA47
:1028F000E1008DF80200002427E01DF8040030B943
:102900009FED150A05EB840080ED000A1BE09FEDAA
:10291000130A05EB840080ED000A0BE005EB840050
:1029200090ED000ADFED0E0A20EE200A05EB840090
:1029300080ED000A1DF80400401EC0B20DF804002E
:102940000028EBD100BF601CC4B2032CD5DB0020F3
:10295000ACE7000054000020000000007B14AE3EF5
:102960001D5A843F2DE9F04F87B005460C4691462D
:1029700001208DF8100000208DF81100FE4A126829
:10298000917CFD4A5268107804AB0222FEF724FCC9
:1029900020B14FF0FF3007B0BDE8F08FC820FFF73F
:1029A000ABF900208DF81000F34A1268D17BF24A8F
:1029B0005268107804AB0122FEF70EFC10B14FF004
:1029C000FF30E8E7EC4A12685179EB4A5268107818
:1029D00004AB0122FEF700FC10B14FF0FF30DAE744
:1029E000E54A1268917CE44A5268107804AB0122EF
:1029F000FEF7F2FB10B14FF0FF30CCE7DE4A126871
:102A0000D17DDD4A5268107804AB0122FEF7E4FB69
:102A100010B14FF0FF30BEE7D74A12681179D64A9D
:102A20005268107804AB0122FEF7D6FB10B14FF0CC
:102A3000FF30B0E70C208DF81000CF4A12681179F2
:102A4000CD4A5268107804AB0122FEF7C5FB10B1E5
:102A50004FF0FF309FE70F20FFF74EF9C648806A1E
:102A6000407A8DF81000C44A12689178C24A5268C0
:102A7000107804AB0122FEF7AFFB10B14FF0FF302E
:102A800089E7BD48806A007A8DF81000BA4A12685A
:102A90005178B94A5268107804AB0122FEF79CFBCA
:102AA00010B14FF0FF3076E7B9F1000F07D0B24810
:102AB000806A807A40F0E0008DF8100004E0AE48B3
:102AC000806A807A8DF81000AB4A12689179AA4A20
:102AD0005268107804AB0122FEF77EFB10B14FF074
:102AE000FF3058E7B9F1000F07D0A348806AC07AD9
:102AF00040F0E0008DF8100003E0A048C07A8DF8A7
:102B000010009D4A1268D1799B4A5268107804AB34
:102B10000122FEF761FB10B14FF0FF303BE7B9F146
:102B2000000F02D0C820FFF7E7F840208DF8100012
:102B3000914A12681179904A5268107804AB0122C8
:102B4000FEF74AFB10B14FF0FF3024E778208DF8F4
:102B50001000894A12685179874A5268107804AB8C
:102B60000122FEF739FB10B14FF0FF3013E7834924
:102B70008889FFF7C1F800208DF810007E4A12689E
:102B800051797D4A5268107804AB0122FEF724FB8C
:102B900010B14FF0FF30FEE6774A1268917A764A1C
:102BA0005268107804AB0222FEF770FA10B14FF0B1
:102BB000FF30F0E69DF811009DF8101040EA012B5F
:102BC0000C209BFBF0F0C6B20020A8606860286073
:102BD000A06060602060824665E0674A1268D17A32
:102BE000654A5268107804AB0C22FEF74FFA10B118
:102BF0004FF0FF30CFE69DF811009DF8101040EA2D
:102C0000012000B2ADF808009DF813009DF81210E5
:102C100040EA012000B2ADF80A009DF815009DF8C9
:102C2000141040EA012000B2ADF80C00BDF9081004
:102C3000206808442060BDF90A106068084460609C
:102C4000BDF90C10A0680844A0609DF817009DF81D
:102C5000161040EA012000B2ADF800009DF81900FE
:102C60009DF8181040EA012000B2ADF802009DF86E
:102C70001B009DF81A1040EA012000B2ADF80400D4
:102C8000BDF90010286808442860BDF90210686882
:102C900008446860BDF90410A8680844A8600AF1F7
:102CA000010000F0FF0AB24597DB3448D0F800C0BD
:102CB0002868C117090441EA10410704624600234D
:102CC0003846FDF775FB32460023CDE90201FDF7DA
:102CD0006FFB28602948D0F800C06868C117090454
:102CE00041EA10410704624600233846FDF760FBC5
:102CF00032460023CDE90201FDF75AFB68601F4808
:102D0000D0F800C0A868C117090441EA10410704BF
:102D1000624600233846FDF74BFB32460023CDE9DF
:102D20000201FDF745FBA8601448D0F804C02168F3
:102D3000C817000440EA11480F04624600233846D1
:102D40004146FDF735FB32460023CDE90201FDF790
:102D50002FFB20600948D0F804C06068C11709043F
:102D600041EA10410704624600233846FDF720FB84
:102D70003246002304E00000540000209444000880
:102D8000CDE90201FDF714FB60601148D0F804C0E2
:102D9000A068C117090441EA1041070462460023F4
:102DA0003846FDF705FB32460023CDE90201FDF769
:102DB000FFFAA060A068002804DDA068A0F58030BC
:102DC000A06003E0A06800F58030A0600020E2E58C
:102DD00094440008F0B52DED048B81B006460F46F3
:102DE00000253E49496808786B4603220D21FEF70D
:102DF0004DF920B1072001B0BDEC048BF0BD9DF86A
:102E0000000000F01F008DF800009DF8010000F0A8
:102E10001F008DF801009DF8020000F01F008DF8E2
:102E20000200002455E056F8241057F82420881A90
:102E3000002801DB014600E0414200EE101AB8EE26
:102E4000C00ADFED270A80EE208A1DF8040068B36F
:102E5000244890ED000AB8EE400ADFED230A80EE28
:102E6000801AF0EE418A05E09FED200A28EE800AE4
:102E7000F0EE408A1DF80400401EC0B20DF80400B8
:102E80000028F1D188EE280AF7EE000A30EE609AA9
:102E9000B0EEC90A1348D0ED060AB4EEE00AF1EE2E
:102EA00010FA15DD0120A040054311E00D4890ED1A
:102EB000040AB4EEC80AF1EE10FA06DC90ED050A39
:102EC000B4EEC80AF1EE10FA02D20120A040054388
:102ED000641C032CA7DB28468DE70000540000206B
:102EE000000080479444000800B04C4554E3853FFF
:102EF00010B50446204600F00FF80346E01C00F031
:102F00000BF843EAC00083B2A01D00F005F843EAC5
:102F1000801083B2184610BD014691F90020002AA6
:102F200001DD00201EE091F90020002A01DA0420D2
:102F300018E091F90120002A01DD012012E091F949
:102F40000120002A01DA05200CE091F90220002A74
:102F500001DD022006E091F90220002A01DA0620B4
:102F600000E007207047014609B1012070470020AA
:102F7000FCE700002DE9F047C0B0814617469846AF
:102F80004846FDF749FB05464FF0040AE62D2AD2D4
:102F90006C462A4649462046FEF7F2FC2C44202087
:102FA0002070641C28202070641C30202070641C59
:102FB00078202070641C0120C0EB4A0046B20AE071
:102FC000B10027FA01F101F00F000849095C2170F6
:102FD000641C701E46B2002EF2DA29202070641C98
:102FE0000020207000BF40B0BDE8F0875A440008C0
:102FF0000021426891614268D161704770B5054611
:103000000DB9154870BDE81C20F00305002400260A
:1030100000BF3046FFF7F4FB064626B1294630468E
:10302000FFF7D6FB04460EB1002CF2D08CB10B4852
:10303000006884420DD909480068201A28440849CC
:103040000968884205D905480068201A28440449BF
:1030500008602046D6E70000280000202400002059
:103060002C00002070B50020FFF7CAFB04462FE0BB
:1030700009E0207800F0010020B12046FFF7C0FBF6
:10308000044600E001E0002CF3D100BF04B970BD9C
:103090002046FFF7B5FB054614E0287800F0010054
:1030A00058B90421286801EB5000216800EB510158
:1030B000206861F35F00206000E005E02846FFF72C
:1030C0009FFB0546002DE8D100BF05B9DFE72C4680
:1030D000CEE7000070B505461C48854200D170BDA2
:1030E00005B9FCE72C1F206820F00100206018487B
:1030F0000088401C164908800846008810281DDA00
:103100002046FFF77DFB064614E0307800F0010012
:1031100058B90421306801EB5000216800EB5101DF
:10312000206861F35F00206000E005E03046FFF7B3
:1031300067FB0646002EE8D100BF04E000200449EA
:103140000880FFF78FFF00BFC9E7000028000020BC
:10315000400000202DE9F04707468846164699466C
:1031600000243348FEF730FB0546ADB93048FEF782
:1031700048FB044600BF2046FFF7F5FE30B9224663
:1031800000232CA0FFF7F6FE00BFFEE700BF002CD7
:103190003BD10020BDE8F08700BF287D00F007008C
:1031A000B04215DC29462248FEF74BFB044600BF1F
:1031B0002046FFF7D8FE30B9224600231DA0FFF7B6
:1031C000D9FE00BFFEE700BF0CB90020E2E706E031
:1031D00029461748FEF7FDFA0546002DDDD100BF50
:1031E0009DB91348FEF767FB044600BF2046FFF772
:1031F000BAFE30B9224600230EA0FFF7BBFE00BF87
:10320000FEE700BF0CB90020C4E701200D4908709B
:10321000C4F80080A7602675801E206100F032F897
:103220006060C4F80C900120074908702046B1E79F
:10323000300100204F7574206F66206D656D6F72D0
:1032400079000000470000204800002010B5044627
:1032500021460848FEF74FFB012007490870204629
:10326000FFF738FF05480068A04202D10120044959
:10327000087010BD30010020470000200C00002025
:103280004600002000BF0121044A1170044908686B
:10329000114609780029F6D070470000040000208C
:1032A00000000020FDF7F3FC0BE00648006808B9B9
:1032B000012000E00020034908604FF4FA70FEF797
:1032C0001BFDF2E79482404270B50446002624F0CC
:1032D0000104184890F8240008B1002070BD15487A
:1032E000807A10B94FF0FF30F8E71248057C807AF9
:1032F0002040104908740846007CA04202D04FF0DC
:10330000FF3600E0002614B90A48007D18B10120FC
:1033100001F000F802E0002000F0FCFF3CB100F0FA
:103320003DFB20B1034805744FF0FF30D6E730462F
:10333000D4E700005400002070B50024FDF72CFDF8
:1033400000F028F900283DD1782000F0D3FEC4B267
:103350000CB1012070BD7820FFF7B6FFC4B20CB1EC
:103360000220F7E7642000F077FEC4B20CB103201E
:10337000F0E7FEF79FFEC4B20CB10420EAE7134861
:10338000FFF7B6FD0546FFF709F8C4B20CB10520FA
:10339000E0E740F27310FEF735FDC4B20CB1062031
:1033A000D8E76420FEF72AFFC4B20CB10720D1E7AA
:1033B00000F063FF0446012000F04AFDC4B21CB1D6
:1033C0000920C7E70A20C5E70020C3E780000020E6
:1033D00001461148407A30B1012807D0022808D0B0
:1033E00003280CD108E0022008700BE004200870CC
:1033F00008E00820087005E01020087002E04FF097
:10340000FF30704700BF0448C07C18B10878400600
:10341000000E08700020F4E7540000200146134815
:10342000407A30B1012808D002280AD0032810D1F0
:103430000BE04FF4804008800EE041F69C7008805D
:103440000AE04FF48050088006E04FF400600880E6
:1034500002E04FF0FF30704700BF0448C07C10B15D
:103460000888401008800020F5E700005400002084
:1034700001460248007C087000207047540000207C
:1034800001460F48007A30B1012807D0022809D040
:1034900003280FD10AE0FA2008800EE04FF4FA70FA
:1034A00008800AE04FF47A70088006E04FF4FA6072
:1034B000088002E00020088000BF00BF00207047A5
:1034C0005400002001461248007A30B1012809D08A
:1034D00002280CD0032814D10EE09FED0E0A81EDD6
:1034E000000A11E09FED0C0A81ED000A0CE09FED4F
:1034F0000B0A81ED000A07E09FED090A81ED000A41
:1035000002E04FF0FF30704700BF0020FBE70000F3
:103510005400002000000343000083423333034281
:103520003333834101461248C07A082817D2DFE8B6
:1035300000F01704070A0D101318BC20088013E0D0
:103540006220088010E02A2008800DE01420088006
:103550000AE00A20088007E00520088004E000BF98
:1035600000BF0020088000BF00BF0020704700009F
:10357000540000200146064890F8240010B14FF096
:10358000FF3070470248C08908800020F9E700003A
:10359000540000201CB580208DF80000654A126898
:1035A000917C644A526810786B460122FDF714FE44
:1035B00010B14FF0FF301CBD6420FEF79DFB0020D2
:1035C0008DF800005B4A1268917C5A4A5268107864
:1035D0006B460122FDF700FE10B14FF0FF30EAE725
:1035E000544A1268917D534A526810786B460622FD
:1035F000FDF74CFD10B14FF0FF30DCE79DF8050002
:10360000C007400F9DF8031001F0010140EA41009E
:103610009DF8011001F0010140EA010494B1012C70
:1036200003D101214348C17431E0022C03D10021B0
:103630004048C1742BE021463FA0FCF7DDFE4FF06F
:10364000FF30B8E73B4A1268D1783A4A526810789E
:103650006B460122FDF71AFD10B14FF0FF30AAE7CB
:103660009DF8000000F00F042CB93D48FCF7C4FEA3
:103670004FF0FF309FE7042C06D13AA0FCF7BCFEC8
:1036800001212C48C17402E000212A48C174FF21A5
:1036900028488172FF2027490872FF21254841727E
:1036A000C1724FF6FF71C181FF2101748174012144
:1036B000017380F82210002180F8231041750175F4
:1036C0001630016041608160163880F8241080F85F
:1036D0002510C1844FF4FA6000F002FC10B14FF0E5
:1036E000FF3068E7022000F0CBFA10B14FF0FF3056
:1036F00061E72A2000F06EFC10B14FF0FF305AE76E
:10370000322000F0A9FC10B14FF0FF3053E7002049
:10371000FFF7DAFD10B14FF0FF304CE7002000F06A
:10372000F1FA10B14FF0FF3045E7002000F0E2FC65
:10373000002040E754000020556E737570706F7262
:1037400074656420736F6674776172652070726F40
:1037500064756374207265762025642E0A0000006B
:10376000C450000848616C662073656E73697469A3
:1037700076697479207061727420666F756E642E3C
:103780000A0000002DE9F04385B005460E4690463C
:103790009946294890F8250020B14FF0FF3005B038
:1037A000BDE8F08316B94FF0FF30F8E7002423E0BE
:1037B000281B102801DD102000E0281B87B23219D9
:1037C0003946204600F0FEFC10B14FF0FF30E6E72E
:1037D00001AA3946204600F0A1F810B14FF0FF30A1
:1037E000DDE730193A4601A9FCF7EAFE10B16FF0A7
:1037F0000100D4E7E01984B2AC42D9DB4FEA2820BB
:103800008DF8000008F0FF008DF801000A4A1268E8
:10381000917E094A526810786B460222FDF7DCFC63
:1038200010B14FF0FF30BAE70121034880F82510AE
:10383000A0F826900020B2E75400002038B50446D6
:10384000282C02DD4FF0FF3038BDDCB9002000F03D
:103850008BFB00208DF8000007208DF801002E4A18
:103860001268917C2C4A526810786B460222FDF750
:10387000B3FC10B14FF0FF30E6E700212648017598
:103880000020E1E7012000F06FFB20208DF8000010
:10389000012C06D100208DF80100052000F09AFBD4
:1038A00017E0052C06DC01208DF80100052000F052
:1038B00091FB0EE0142C06DC02208DF801000A209A
:1038C00000F088FB05E003208DF80100142000F0D3
:1038D00081FB9DF80100072101EB8010C0B28DF83B
:1038E00001000D4A1268917C0B4A526810786B46B1
:1038F0000222FDF771FC10B14FF0FF30A4E7082160
:103900000548817200210173012101750020FFF734
:10391000DBFC002098E7000054000020F8B50446C6
:103920000D46164616B94FF0FF30F8BD1A48807A9A
:1039300010B94FF0FF30F8E720128DF80000E0B228
:103940008DF801009DF80100284413494968498910
:10395000884202DD4FF0FF30E7E70F4A1268117E20
:103960000D4A526810786B460222FDF735FC10B103
:103970004FF0FF30D9E7EAB2074B1B68597D064B81
:103980005B6818783346FDF781FB10B14FF0FF30CC
:10399000CBE70020C9E700005400002008B57048BC
:1039A000807A10B94FF0FF3008BD002000906C4ABB
:1039B0001268D17B6A4A526810786B460122FDF783
:1039C0000BFC10B14FF0FF30EEE7654A12685179F9
:1039D000634A526810786B460122FDF7FDFB10B177
:1039E0004FF0FF30E0E75E4A126811795C4A526896
:1039F00010786B460122FDF7EFFB10B14FF0FF305E
:103A0000D2E7574890F82400002853D00C200090AB
:103A1000534A12681179524A526810786B46012253
:103A2000FDF7DAFB10B14FF0FF30BDE73220FEF7B3
:103A300063F9C02000904A48807A00F0010020B16C
:103A40009DF8000040F020000090454A126811796E
:103A5000434A526810786B460122FDF7BDFB10B156
:103A60004FF0FF30A0E73E48407C10B102200090AC
:103A700001E0002000903A4A1268D17B384A52682F
:103A800010786B460122FDF7A7FB10B14FF0FF3015
:103A90008AE700200090324A12685179304A526811
:103AA00010786B460122FDF797FB002855D04FF0A8
:103AB000FF3079E704200090294A12681179284ADA
:103AC000526810786B460122FDF786FB10B14FF06B
:103AD000FF3069E72248807C20B92148807A00F0D5
:103AE000010010B94020009001E0602000901C4AC5
:103AF000126811791A4A526810786B460122FDF754
:103B00006BFB10B14FF0FF304EE73220FEF7F4F8B8
:103B10001348407C10B10120009001E0002000908B
:103B20000F4A1268D17B0E4A526810786B46012208
:103B3000FDF752FB10B14FF0FF3035E7084A12682D
:103B40005179074A52681078054B10330122FDF76E
:103B500043FB10B14FF0FF3026E7002024E70000C0
:103B6000540000202DE9F04F8DB083460F4602200F
:103B70000C90424890F8240020B1002000F068F931
:103B8000012600E0002603A8FFF77AFC05A8FFF74E
:103B90001FFC01A8FFF7C6FC02A8FFF7EBFC3748A3
:103BA00090F80AA004A8FFF763FC002407E00022B5
:103BB00039465846FEF7D6FE00B902E0641C022CD6
:103BC000F5DB00BF022C01D1002528E0002407E02E
:103BD000012206A909A8FEF7C5FE00B902E0641C8F
:103BE000022CF5DB00BF022C01D1002517E006A94D
:103BF0003846FEF703F800F0FF0809A95846FFF71A
:103C0000E9F800F0FF090025B9F1000F01D145F0F6
:103C10000105B8F1000F01D145F0020500BFFF20FA
:103C200016490872FF2115484172C1724FF6FF71A3
:103C3000C181FF218172017401210173BDF80C0063
:103C400000F04EF99DF8140000F01AF8BDF80400D9
:103C500000F0C0F9BDF8080000F0FEF9504600F091
:103C600049FA9DF81000FFF72FFB16B1012000F074
:103C7000EFF828460DB0BDE8F08F0000540000209A
:103C800038B504461E48807A10B94FF0FF3038BD71
:103C9000022C06D0042C07D0082C08D0102C0CD1F4
:103CA00008E0002000900BE00820009008E01020C1
:103CB000009005E01820009002E04FF0FF30E6E7AA
:103CC00000BF0F48407A9DF80010B0EBE10F01D122
:103CD0000020DCE70A4A1268D179094A5268107854
:103CE0006B460122FDF778FA10B14FF0FF30CEE7B6
:103CF0009DF80000C110024841720020C7E7000093
:103D00005400002038B504465048807CA04201D1C0
:103D1000002038BD002C46D04C4A126811794B4A1D
:103D2000526810786B460122FDF7B0F910B14FF0E0
:103D3000FF30EEE79DF8000020F020000090434A9D
:103D400012681179414A526810786B460122FDF7DA
:103D500043FA10B14FF0FF30DBE70320FDF7CCFF53
:103D600002200090394890F8220020B19DF8000010
:103D700040F080000090354890F8230020B19DF875
:103D8000000040F030000090304A1268117D2F4A48
:103D9000526810786B460122FDF71EFA002851D0B8
:103DA0004FF0FF30B5E7294A12681179274A526867
:103DB00010786B460122FDF769F910B14FF0FF3022
:103DC000A7E72248807A00F0010028B19DF80000A2
:103DD00040F02000009004E09DF8000020F020005A
:103DE00000901A4A12681179184A526810786B4686
:103DF0000122FDF7F1F910B14FF0FF3089E7032000
:103E0000FDF77AFF114890F8220010B18020009051
:103E100001E0002000900D4890F8230020B19DF8AB
:103E2000000040F030000090084A1268117D074AF7
:103E3000526810786B460122FDF7CEF910B14FF0B1
:103E4000FF3066E701488474002062E754000020D8
:103E500038B50446214890F82400A04201D1002042
:103E600038BD24B31D4890F8250010B94FF0FF303D
:103E7000F6E7002000F04EFA0020FFF743FF174955
:103E8000C88C00F0E9F800200090144949680878CF
:103E90006B4601222321FDF79FF901210F4880F88D
:103EA0002410012000F036FAFFF778FD13E000201F
:103EB00000F030FA0948007C009008494968087809
:103EC0006B4601222321FDF787F90021034880F882
:103ED0002410FFF763FD0020C2E70000540000201B
:103EE00038B504461F48807A10B94FF0FF3038BD0E
:103EF000FA2C09D0B4F5FA7F09D0B4F57A7F09D04D
:103F0000B4F5FA6F0CD108E0002000900BE0082017
:103F1000009008E01020009005E01820009002E0DA
:103F20004FF0FF30E3E700BF0E48007A9DF8001025
:103F3000B0EBE10F01D10020D9E70A4A126891796C
:103F4000084A526810786B460122FDF745F910B116
:103F50004FF0FF30CBE79DF80000C0100149087218
:103F60000020C4E75400002038B50446184890F8F3
:103F70002300A04201D1002038BD14B130200090B0
:103F800001E0002000901248807C20B19DF80000E4
:103F900040F0020000900E4890F8220020B19DF8F9
:103FA000000040F080000090094A1268117D084A24
:103FB000526810786B460122FDF70EF910B14FF0F0
:103FC000FF30D9E7024880F823400020D4E7000002
:103FD0005400002038B504461E48807A10B94FF0CE
:103FE000FF3038BDBC2C02DB0120009015E0622CB4
:103FF00002DB0220009010E02A2C02DB032000905C
:104000000BE0142C02DB0420009006E00A2C02DBFB
:104010000520009001E0062000900E48C07A9DF82F
:104020000010884201D10020DBE70A4A126891782B
:10403000084A526810786B460122FDF7CDF810B19E
:104040004FF0FF30CDE79DF800100248C17200200C
:10405000C7E700005400002038B504462448807AA1
:1040600010B94FF0FF3038BD214890F8240010B14E
:104070004FF0FF30F7E71E48007D50B134B1282CD7
:1040800004DCE0B2FFF7DAFB0020ECE70020FFF7EA
:10409000D5FB042C01DA042404E0B4F57A7F01DDB9
:1040A0004FF47A744FF47A7090FBF4F0401EC0B273
:1040B00000900F4A126851780D4A526810786B468A
:1040C0000122FDF789F810B14FF0FF30CBE79DF8E2
:1040D0000000401C4FF47A7191FBF0F081B204486B
:1040E000C1810146C9894810FFF774FF0020BAE773
:1040F0005400002038B5044604F0700010B10120CF
:10410000009005E014B10020009001E040200090F4
:104110002B4A1268917C2A4A526810786B46012219
:10412000FDF75AF820B1002125488172481E38BD9C
:104130009DF8000020F0400121480173002000900C
:1041400004F0400020B99DF8000040F00400009009
:1041500004F0200020B99DF8000040F0020000901B
:1041600004F0100020B99DF8000040F0010000901C
:1041700004F0080020B99DF8000040F038000090DD
:104180000F4A1268D17C0E4A526810786B460122A1
:10419000FDF722F820B1002109488172481EC6E7C8
:1041A00024B1082C02D00020FFF7DEFE0448847200
:1041B000002101753220FDF79FFD0020B7E70000C8
:1041C00054000020F8B504460D46164616B94FF0C7
:1041D000FF30F8BD1A48807A10B94FF0FF30F8E789
:1041E00020128DF80000E0B28DF801009DF801006A
:1041F0002844134949684989884202DD4FF0FF305D
:10420000E7E70F4A1268117E0D4A526810786B4634
:104210000222FCF7E1FF10B14FF0FF30D9E7EAB21C
:10422000074B1B68597D064B5B6818783346FCF7D3
:10423000D3FF10B14FF0FF30CBE70020C9E70000FB
:104240005400002037B5034601B93EBD08461D683D
:104250002D1D2844024602AC2568156000BFF4E716
:1042600037B5034601B93EBD08461D6828440246DD
:1042700002AC2568156000BFF5E710B588B002A94B
:1042800005A8FFF76FFC0446072C41D101A8FFF7F2
:1042900019F99DED050AB8EEC00ADDED010A20EE20
:1042A000200ABDEEC00A8DED050A9DED060AB8EEA6
:1042B000C00ADDED010A20EE200ABDEEC00A8DED38
:1042C000060A9DED070AB8EEC00ADDED010A20EEF0
:1042D000200ABDEEC00A8DED070A05A8FDF7C6FF4E
:1042E0006846FFF79BF8BDF800100298484302901B
:1042F000BDF80010039848430390BDF800100498DF
:104300004843049002A8FDF7E1FE002008B010BD6C
:104310000120FBE738B50446214890F82400C0B1DD
:1043200014B10220009001E0002000901C4A1268A5
:10433000D17B1B4A526810786B460122FCF74CFF78
:1043400010B14FF0FF3038BD9DF800101448417493
:1043500023E01348807A10B94FF0FF30F3E724B11F
:104360000F48407C08B10020EDE714B10120009017
:1043700001E0002000900A4A1268D17B084A526886
:1043800010786B460122FCF727FF10B14FF0FF3089
:10439000D9E79DF80010024841740020D3E70000DF
:1043A0005400002030B58BB005460C460121022098
:1043B000FCF756FF01210220FCF742FF681E09901E
:1043C000601E80B2ADF820000020ADF82800ADF8E6
:1043D000220008A91C48FDF739F9022001908DF848
:1043E000080003208DF8090000208DF80A00012044
:1043F0008DF80B0001A91548FCF7DAFB0222012118
:104400001248FCF71DFC6020ADF80C000120ADF84F
:104410000E0000200590ADF8180003A90A48FDF72A
:10442000C9F808210848FDF701F901210648FDF700
:104430009FF801210448FDF7A7F841F27071024886
:10444000FDF701F90BB030BD00040040000402404C
:104450004FF04070E1EE100A70473031323334359E
:1044600036373839414243444546000075191A0C25
:104470006A231B1C1F207274433B4138393A6B6C12
:10448000376F06246D6E70006800000476005401DA
:10449000F7FD000183000000000800000001001883
:1044A00032000500000020410000D242295C0F3E8E
:1044B0009A99993E3333733F295C0F3E0000700098
:1044C000000000240000000200030000006500540A
:1044D000FFEF0000FA80000B12820001030C30C3D2
:1044E0000E8C8CE914D5400213710F8E3883F8833B
:1044F0003000F883258EF8833000F883FFFFFFFF3C
:104500000FFEA9D6240004001A8279A10000003C05
:10451000FFFF00000010000038836FA2003E033050
:104520004000000002CAE3093E80000020000000B5
:10453000000000004000000060000000000C0000CF
:10454000000C186E000006920A16C0DFFFFF02562C
:10455000FD8CD377FFE1C496E0C5BEAA0000000041
:10456000FFFF0B2B0000165700000359400000000E
:1045700000001DFA00026C1D000000003FFFDFEB91
:10458000003EB3B6000D227800002F3C0000000072
:10459000001942B5000039A20000B365D90E9FC9C9
:1045A0001DCF4C3430000000500000003BB67AE8CC
:1045B0000064000000C800000000000010000000BF
:1045C0001000FA921000225E000D229F00010000F0
:1045D00000320000FF46000063D40000100000001D
:1045E00004D6000004CC000004CC000000001072CF
:1045F0000000004000000000000000000006000273
:10460000000500070000000000640000000000003A
:10461000000000050005006400200000000000000C
:104620000000000000004000000003000000003215
:10463000F8980000FF650000830F0000FF9BFC005E
:10464000000000000000000000000000000000006A
:10465000000000000000000000000000000000005A
:1046600000000000000000000000100040000000FA
:10467000000000060000B26A000200000001FB8397
:104680000068000000D9FC007CF1FF8300000000FE
:1046900000650000006403E80064002800000025B5
:1046A0000000000016A00000000010000000100034
:1046B000002F0000000001F400001000002800009E
:1046C000FFFF4581FFFFFA720000000000000000BC
:1046D000004400050005BAC6004778A200000001AA
:1046E0000000000000000600000000140000254D3E
:1046F000002F706D000005AE000C02D0000000001D
:10470000000000000000000000000000001B00008E
:104710000000000000000000000000000064000035
:104720000008000000000000000000000000000081
:104730000000000000000000000000000000000079
:104740000000000000000000000000000000000069
:104750000000000000000000000000000000000059
:104760000000000000000000000000000000000049
:10477000000000000000000000000000001B00001E
:104780000000000000000000000E000E00000AC73C
:104790000004000000000032FFFFFF9C00000B2B14
:1047A000000000020000000100000064FFE50000BE
:1047B00000000000000000000000000000000001F8
:1047C0000000000000010000000000000001800067
:1047D0000001800000018000002426D300000000BA
:1047E00000000000000600100096003C00000000E1
:1047F0000000000000000000000000000C0A4E68ED
:10480000CDCF770950166759C619CE820000000037
:104810000000000000000000000000000000000098
:104820000000000017D78400030000000000000013
:1048300000000000C7938F9D1E1B1C190000000084
:104840000000000000000000000000000000000068
:104850000000000002031885000040000000000373
:104860000000000300000000000000004000000005
:104870000000000000000000000000000000000038
:104880000000000000000000000000000000000028
:104890000000000000000000000000000000000018
:1048A000677DDF7E72902E554CF6E6880000000092
:1048B000000000000000000000000000D8DCB4B8D8
:1048C000B0D8B9ABF3F8FAB3B7BB8E9EAEF132F500
:1048D0001BF1B4B8B08097F1A9DFDFDFAADFDFDF1B
:1048E000F2AAC5CDC7A90CC92C97F1A9892646669D
:1048F000B28999A92D557DB0B08AA896365676F121
:10490000BAA3B4B280C0B8A89711B28398BAA3F082
:10491000240844106418B2B9B49883F1A329557DD2
:10492000BAB5B1A38393F0002850F5B2B6AA839329
:1049300028547CF1B9A3829361BAA2DADEDFDB816D
:104940009AB9AEF5606870F1DABAA2DFD9BAA2FA04
:10495000B9A38292DB31BAA2D9BAA2F8DF85A4D07A
:10496000C1BBAD83C2C5C7B8A2DFDFDFBAA0DFDF3E
:10497000DFD8D8F1B8AAB38DB4980D355DB2B6BA08
:10498000AF8C96198F9FA70E161EB49AB8AA872CC3
:10499000547CBAA4B08AB691325676B28494A4C834
:1049A00008CDD8B8B4B0F19982A82D557D98A80E3D
:1049B000161EA22C547C92A4F02C5078F184A89856
:1049C000C4CDFCD80DDBA8FC2DF3D9BAA6F8DABA11
:1049D000A6DED8BAB2B68696A6D0F3C841DAA6C883
:1049E000F8D8B0B4B882A892F52C548898F135D98B
:1049F000F418D8F1A2D0F8F9A884D9C7DFF8F88361
:104A0000C5DADF69DF83C1D8F40114F1A8824EA8AA
:104A100084F311D182F5D992289788F109F41C1CEE
:104A2000D884A8F3C0F9D1D99782F129F40DD8F32D
:104A3000F9F9D1D982F4C203D8DEDF1AD8F1A2FA8B
:104A4000F9A88498D9C7DFF8F8F883C7DADF69DFF7
:104A5000F883C3D8F40114F198A8822EA884F31126
:104A6000D182F5D992509788F109F41CD884A8F323
:104A7000C0F8F9D1D99782F149F40DD8F3F9F9D1F9
:104A8000D982F4C403D8DEDFD8F1AD8898CCA80968
:104A9000F9D98292A8F57CF1883ACF944A6E98DBD6
:104AA0006931DAADF2DEF9D88795A8F221D1DAA51D
:104AB000F9F417D9F1AE8ED0C0C3AE82C684C3A8B4
:104AC0008595C8A588F2C0F1F4010EF18E9EA8C6A6
:104AD0003E56F554F18872F40115F19845856EF54E
:104AE0008E9E0488F142985A8E9E068869F4011CB5
:104AF000F1981E1108D0F504F11E97020298362590
:104B0000DBF9D985A5F3C1DA85A5F3DFD88595A8AA
:104B1000F309DAA5FAD88292A8F578F1881A849F69
:104B200026889821DAF41DF3D8879F39D1AFD9DFD1
:104B3000DFFBF9F40CF3D8FAD0F8DAF9F9D0DFD9C1
:104B4000F9D8F40BD8F3879F39D1AFD9DFDFF41D43
:104B5000F3D8FAFCA869F9F9AFD0DADEFAD9F88F00
:104B60009FA8F1CCF398DB45D9AFDFD0F8D8F18F0F
:104B70009FA8CAF38809DAAF8FCBF8D8F2AD978D2A
:104B80000CD9A5DFF9BAA6F3FAF412F2D8950DD133
:104B9000D9BAA6F3FADAA5F2C1BAA6F3DFD8F1BA08
:104BA000B2B68696A6D0CAF349DAA6CBF8D8B0B486
:104BB000B8D8AD84F2C0DFF18FCBC3A8B2B6869669
:104BC000C8C1CBC3F3B0B48898A821DB718D9D71A7
:104BD000859521D9ADF2FAD88597A828D9F408D8B7
:104BE000F28D29DAF405D9F285A4C2F2D8A88D9401
:104BF00001D1D9F411F2D88721D8F40AD8F28498D7
:104C0000A8C801D1D9F411D8F3A4C8BBAFD0F2DE43
:104C1000F8F8F8F8F8F8F8F8D8F1B8F6B5B9B08AB5
:104C200095A3DE3CA3D9F8D85CA3D9F8D87CA3D946
:104C3000F8D8F8F9D1A5D9DFDAFAD8B18530F7D9A3
:104C4000DED8F830ADDADED8F2B48C99A32D557DDC
:104C5000A083DFDFDFB591A0F629D9FBD8A0FC291E
:104C6000D9FAD8A0D051D9F8D8FC51D9F9D879D9E6
:104C7000FBD8A0D0FC79D9FAD8A1F9F9F9F9F9A0B3
:104C8000DADFDFDFD8A1F8F8F8F8F8ACDEF8ADDE4F
:104C90008393AC2C547CF1A8DFDFDFF69D2CDAA0E7
:104CA000DFD9FADB2DF8D8A850DAA0D0DED9D0F8B9
:104CB000F8F8DB55F8D8A878DAA0D0DFD9D0FAF820
:104CC000F8F8F8DB7DF8D89CA88CF530DB38D9D023
:104CD000DEDFA0D0DEDFD8A848DB58D9DFD0DEA0E9
:104CE000DFD0DED8A868DB70D9DFDFA0DFDFD8F146
:104CF000A888902C547C98A8D05C38D1DAF2AE8C7D
:104D0000DFF9D8B087A8C1C1B188A8C6F9F9DA36E9
:104D1000D8A8F9DA36D8A8F9DA36D8A8F9DA36D820
:104D2000A8F9DA36D8F78D9DADF818DAF2AEDFD8EB
:104D3000F7ADFA30D9A4DEF9D8F2AEDEFAF983A7DE
:104D4000D9C3C5C7F1889BA77AADF7DEDFA4F88485
:104D50009408A797F300AEF29819A488C6A3948884
:104D6000F632DFF28393DB09D9F2AADFD8D8AEF8A6
:104D7000F9D1DAF3A4DEA7F1889B7AD8F38494AE54
:104D800019F9DAAAF1DFD8A881C0C3C5C7A39283F5
:104D9000F628ADDED9F8D8A350ADD9F8D8A378ADB0
:104DA000D9F8D8F8F9D1A1DADEC3C5C7D8A1819462
:104DB000F818F2B089ACC3C5C7F1D8B8B4B09786BB
:104DC000A8319B069907AB9728889BF00C201440CC
:104DD000B0B4B8F0A88A9A285078B79BA82951791E
:104DE000247059446938644831F1BBAB88002C54B5
:104DF0007CF0B38BB8A804285078F1B088B497261B
:104E0000A85998BBABB38B02264666B0B8F08A9C13
:104E1000A82951798B2951798A2470598B2058718E
:104E20008A4469388B3940688A6448318B304960DC
:104E300088F1AC002C547CF08CA804285078F188C0
:104E40009726A85998AC8C02264666F0899CA8291A
:104E50005179247059446938644831A98809205926
:104E600070AB11384069A8193148608CA83C415C8E
:104E7000207C00F187981986A86E767EA999882DE6
:104E8000557DD8B1B5B9A3DFDFDFAED0DFAAD0DE64
:104E9000F2ABF8F9D9B087C4AAF1DFDFBBAFDFDF2F
:104EA000B9D8B1F1A3978E60DFB084F2C8F8F9D910
:104EB000DED89385F14AB183A308B5839A0810B769
:104EC0009F10D8F1B0BAAEB08AC2B2B68E9EF1FBD6
:104ED000D9F41DD8F9D90CF1D8F8F8AD61D9AEFBE9
:104EE000D8F40CF1D8F8F8AD19D9AEFBDFD8F41628
:104EF000F1D8F8AD8D61D9F4F4ACF59C9C8DDF2B25
:104F0000BAB6AEFAF8F40BD8F1AED0F8AD51DAAECD
:104F1000FAF8F1D8B9B1B6A3839C08B9B1839AB5B0
:104F2000AAC0FD3083B79F10B58B93F20202D1ABBC
:104F3000DADED8F1B080BAABC0C3B284C1C3D8B195
:104F4000B9F38BA391B609B4D9ABDEB0879CB9A3F2
:104F5000DDF1B38B8B8B8B8BB087A3A3A3A3B28B19
:104F6000B69BF2A3A3A3A3A3A3A3A3A3A3F1B08778
:104F7000B59AA3F39BA3A3DCBAACDFB9A3A3A3A305
:104F8000A3A3A3A3A3A3A3A3A3A3A3A3D8D8D8BB3A
:104F9000B3B7F1AAF9DAFFD9809AAA28B48098A702
:104FA00020B79787A86688F07951F1902C870CA7D5
:104FB00081976293F071716085940129517990A570
:104FC000F1284C6C870C95188578A38390284C6C3D
:104FD000886CD8F3A28200F210A8921980A2F2D9AC
:104FE00026D8F188A84DD948D896A83980D93CD878
:104FF0009580A839A68698D92CDA87A72CD8A889B5
:105000009519A980D938D8A88939A980DA3CD8A8B7
:105010002EA83990D90CD8A8953198D90CD8A809C0
:10502000D9FFD801DAFFD89539A9DA26FFD890A898
:105030000D8999A810809821DA2ED88999A83180F5
:10504000DA2ED8A886963180DA2ED8A8873180DA71
:105050002ED8A88292F34180F1D92ED8A882F319D4
:1050600080F1D92ED882ACF3C0A28022F1A62EA75F
:105070002EA92298A829DAACDEFFD8A2F22AF1A93B
:105080002E8292A8F23180A696F1D900AC8C9C0CAD
:1050900030ACDED0DEFFD88C9CACD010ACDE809281
:1050A000A2F24C82A8F1CAF235F19688A6D900D8AE
:1050B000F1FF0400000800000000000000020001F1
:1050C0000000100050726F647563742049442072B0
:1050D000656164206173203020696E646963617466
:1050E00065732064657669636520697320656974FA
:1050F00068657220696E636F6D70617469626C655A
:10510000206F7220616E204D5055333035302E0A9D
:1051100000000000345100080000002030010000B1
:10512000D40100085C51000830010020C88800004C
:10513000300200080130139C023320105AAC0801E1
:1051400014136C441B08880401201A94243201694A
:0C5150000401581A05021A7804014400FA
:040000050800019955
:00000001FF
