S3150800000030C00020A90100082D120008CB0B0008FB
S3150800001093110008110700084F2700080000000088
S31508000020000000000000000000000000B11D0008EC
S31508000030FD09000800000000DD120008FD21000887
S31508000040C3010008C3010008C3010008391B0008E2
S31508000050C3010008C3010008C3010008C301000862
S31508000060C3010008C3010008C3010008C301000852
S31508000070C3010008C3010008C3010008C301000842
S31508000080C3010008C3010008C301000800000000FE
S31508000090000000000000000000000000C301000886
S315080000A0C301000835230008C3010008C30100087E
S315080000B0612300088D230008B9230008C30100083E
S315080000C0C3010008C3010008C3010008C3010008F2
S315080000D0C301000869260008C301000800000000E3
S315080000E0C301000889140008C301000800000000C5
S315080000F0000000000000000000000000C301000826
S3150800010000000000C3010008C3010008C30100087D
S3150800011000000000000000000000000000000000D1
S31508000120C3010008C3010008C30100081507000839
S31508000130C3010008000000000000000000000000E5
S31508000140000000000000000000000000C3010008D5
S31508000150C3010008C3010008C3010008C301000861
S31508000160C3010008C30100080000000000000000E9
S315080001700000000000000000000000000000000071
S3150800018000000000C3010008000000000000000095
S31508000190C3010008DFF80CD000F08CF900480047CE
S315080001A0F1C6010830C000200648804706480047C7
S315080001B0FEE7FEE7FEE7FEE7FEE7FEE7FEE7FEE709
S315080001C0FEE7FEE7CD220008950100082DE9F05F5D
S315080001D00546002092469B468846064681464024A8
S315080001E01BE0284641464746224600F0F6F85346A5
S315080001F05A46C01A914110D311461846224600F0B5
S31508000200DDF82D1A67EB01084F462246012000212A
S3150800021000F0D4F817EB00094E41201EA4F10104A2
S31508000220DFDC484631462A464346BDE8F09F421C75
S3150800023010F8011B0029FBD1801A704710B500225F
S3150800024000E0521C835C8C5CA34201D1002BF8D1E0
S31508000250D8B2E1B2401A10BD30B5044600200346B4
S3150800026000E05B1C934203D2E05CCD5C401BF8D0F7
S3150800027030BD034611F8012B00F8012B002AF9D1ED
S31508000280184670472DE9FE4F81EA030404F000443E
S3150800029021F0004100944FF0000B23F0004350EA90
S315080002A001045ED052EA03045BD0C3F30A54C1F3D7
S315080002B00A552C44A4F2F3340194A0FB0254C1F36A
S315080002C0130141F48011C3F3130343F4801301FBB4
S315080002D0024400FB034E840A970A44EA815447EA1B
S315080002E08357A4FB076802958D0A05FB07854FEA25
S315080002F0932C04FB0C542705029D4FEA065847EA3F
S315080003001637B5EB08056EEB070C870E920E47EA13
S31508000310811742EA8312A7FB0201B6EB0B0164EBD5
S3150800032000042B0D43EA0C335E1844EB1C50DA46E6
S315080003305146E7FB0201C5F313044FEA0B3343EAC0
S3150800034014534FEA0432019C43EA0603A4F10C0451
S315080003500294009CCDE900B400F05EF803B0BDE855
S31508000360F08F00200146F9E70EB5C10F80EAE0706C
S315080003700844CA07002140F233438DE80E000A46B6
S315080003800B4600F049F803B000BDC1F30A5210B598
S31508000390C1F3130140F2FF3341F480119A4201DAA6
S315080003A0002010BD40F233439A42A2F2334203DCE6
S315080003B0524200F012F810BD904010BD202A04DB0E
S315080003C0203A00FA02F1002070479140C2F120035A
S315080003D020FA03F3194390407047202A04DB203A99
S315080003E021FA02F00021704721FA02F3D040C2F147
S315080003F02002914008431946704710B5141E73F140
S31508000400000408DA401C41F1000192185B411A43C6
S3150800041001D120F0010010BD2DE9F04D92469B4612
S3150800042011B1B1FA81F202E0B0FA80F220329046B8
S31508000430FFF7C4FF04460F4640EA0A0041EA0B01EB
S3150800044053465A46084313D0114653EA010019D0B9
S31508000450C8F140025046FFF7C0FF05460E46504613
S3150800046059464246FFF7AAFF084305D0012004E093
S3150800047020463946BDE8F08D0020054346EAE07679
S315080004802C4337430A986305E40AA0EB08000022C8
S31508000490FD0A44EA47540A3002D500200146E9E736
S315080004A0010510196941DDE9084500196941BDE8EA
S315080004B0F04DA2E7064C074D06E0E06840F0010360
S315080004C094E8070098471034AC42F6D3FFF766FE67
S315080004D0E4CE030804CF030870B58C1810F8015B46
S315080004E015F0070301D110F8013B2A1106D110F8BF
S315080004F0012B03E010F8016B01F8016B5B1EF9D1C3
S315080005002B0705D40023521E0DD401F8013BFAE748
S3150800051010F8013BCB1A921C03E013F8015B01F8B3
S31508000520015B521EF9D5A142D8D3002070BD000048
S3150800053010B50020044908700448054908600146BA
S31508000540C86819F041FA10BD01030020080300200D
S31508000550040300202DE9F0414848007830B101280D
S3150800056033D0022853D003282ED172E00020444904
S3150800057008704448056828460FF0C4FA012800D1D7
S3150800058000E0002028B101213E4800681BF028FB46
S315080005901AE001213B4800681BF04AFB3A4800680C
S315080005A01AF07CFFC5B2394800681AF077FFC6B260
S315080005B0374800681AF072FF401CC7B200232A4663
S315080005C03146384601F00AFA54E001202C490870F1
S315080005D02E4800681AF062FF0446601C044681B281
S315080005E001222A4800681AF08BFF274800681AF08B
S315080005F055FF0546254800681AF050FF06462B4663
S31508000600324624A12648006816F08AFD32E0012009
S315080006101B4908701C4800681AF040FF0446601C15
S31508000620044681B20122184800681AF069FF164884
S3150800063000681AF033FF0546144800681AF02EFFC2
S3150800064006462B46324613A11548006816F068FD83
S3150800065010E000200A4908700D4800681AF01EFFCD
S315080006600446601C044681B20122094800681AF053
S3150800067047FF00BF00BFBDE8F0810000D0010020A1
S3150800068001030020CC010020C8010020C40100207D
S31508000690C0010020253032643A253032640000005B
S315080006A0BC0100201CB500201549087015480068D3
S315080006B001901549154A127851F822000022114670
S315080006C0019B19F0A1FD11480078401C0F490870DC
S315080006D00878C11700EB91718910A0EB81010B4ACC
S315080006E011700848001D006800900749127851F8F3
S315080006F0220000221146009B19F086FD1CBD000051
S315080007000103002024CE030800B90020D0010020F0
S3150800071000BFFEE710B50949094800F0F3F858B1DB
S315080007201021084800F04FFA0748006810F00CFF3F
S315080007300249034800F00AF810BD000000800018BE
S315080007405864024000000240A80100200246094BF6
S315080007509A4201D2084801E00648103801F00053D1
S315080007601BB1064B0B40C36002E0044B0B40836091
S315080007707047000010640240006002407D0F7D0F44
S3150800078021B1026842F00102026003E0026822F029
S315080007900102026070470000016821F00101016052
S315080007A00021016041608160C160016121214161D0
S315080007B04A49884204D13D21484A103A91608CE062
S315080007C046491831884205D14FF47461434A103AB4
S315080007D0916082E041493031884205D14FF4741165
S315080007E03E4A103A916078E03C494831884205D142
S315080007F04FF07461394A103A91606EE037496031BA
S31508000800884204D13649354A103AD16065E0334901
S315080008107831884204D13349304A103AD1605CE0D5
S315080008202E499031884204D12F492C4A103AD1607A
S3150800083053E02A49A831884205D14FF03D51274A4D
S31508000840103AD16049E02949884204D13D21274A16
S31508000850083A116041E025491831884205D14FF41C
S315080008607461224A083A116037E0204930318842DB
S3150800087005D14FF474111D4A083A11602DE01B4941
S315080008804831884205D14FF07461184A083A116018
S3150800089023E016496031884204D11149134A121FD0
S315080008A011601AE011497831884204D10D490F4A7E
S315080008B0121F116011E00D499031884204D10A498E
S315080008C00A4A121F116008E00849A831884204D173
S315080008D04FF03D51054A121F1160704710600240E3
S315080008E03D000020400F002000003D20106402401B
S315080008F0014600200A6802F001020AB1012000E060
S315080009000020704770B50246002000240025124ECC
S31508000910B24201D2114B01E00F4B103B104E0E4074
S3150800092036B11E2606EAD124166806EA040502E050
S31508000930566906F0800501F000560EB15C6800E0C5
S315080009401C68084E344004EA010616B10DB10120B0
S3150800095000E0002070BD0000106402400060024004
S315080009603C0F3C0F7D0F7D0F10B501F080034BB196
S3150800097022B1436943F08003436103E0436923F0EE
S315080009808003436180290BD02AB1036801F01E0455
S315080009902343036004E0036801F01E04A3430360D5
S315080009A010BD000010B500220268134B1A40CC682F
S315080009B00B6823434C6923438C692343CC6923433F
S315080009C00C6A23434C6A23438C6A23434C6B2343A8
S315080009D08C6B23431A430260426922F00702D1E96D
S315080009E00B3423431A4342610B6943604B688360A7
S315080009F08B68C36010BD00003F801CF07047000084
S31508000A0010B501F003FC104800684FF47A71B0FB8A
S31508000A10F1F4601EB0F1807F00D30FE0601E4FF046
S31508000A20E02148610F214FF0FF3000F03DFC002027
S31508000A304FF0E02188610720086100BF0021481EA9
S31508000A4000F032FC10BD0000740300200149086064
S31508000A5070470000143C0140002123498279002A8E
S31508000A603AD00A46126803689A430B461A600A1D6A
S31508000A70126803689A430B1D1A60027911440A68C2
S31508000A8003681A430A60184A0832126803689A43C8
S31508000A90154B08331A601A1D126803689A43124BDD
S31508000AA00C331A604279102A0ED11A1F126803688D
S31508000AB01A430D4B08331A601A1D126803681A4345
S31508000AC0094B0C331A600DE00749427911440A684C
S31508000AD003681A430A6005E0027911440A68036844
S31508000AE09A430A6070470000003C0140F0B50A4688
S31508000AF000210023002400BF3DE0012505FA01F38B
S31508000B00156805EA03049C4234D105684F0003269C
S31508000B10BE40B543056015794E00B54006683543B5
S31508000B2005601579012D02D01579022D16D1856833
S31508000B304F000326BE40B543856055794E00B54043
S31508000B40866835438560456801268E40B54345600D
S31508000B50456896798E40B6B235434560C5684F00FC
S31508000B600326BE40B543C560D5794E00B540C66874
S31508000B703543C560491C1029BFD3F0BDF0B5002325
S31508000B8000244D07ED0E02FA05F3CE1000F12005FC
S31508000B9055F826504E07F70E0F26BE40B543CF1020
S31508000BA000F1200646F82750CE1000F1200555F82A
S31508000BB0265045EA0304CE1000F1200545F82640E4
S31508000BC0F0BD418370470183704700BFFEE7000010
S31508000BD01CB50121062000F0A3FB4FF440500090FD
S31508000BE000208DF8040001208DF8070003208DF8F9
S31508000BF0050069460948FFF779FF4FF44040009021
S31508000C0000208DF8040001208DF8070003208DF8D8
S31508000C10050069460248FFF769FF1CBD000402404B
S31508000C200008024010B5044622480078012825D15C
S31508000C302148006850B12148006838B11F48001D96
S31508000C40006818B11C48001F0068B8B90A2008F0E7
S31508000C50F9FC0020174908701748006808B90120F0
S31508000C6010BD1648006808B90220F9E71348001DA8
S31508000C70006808B90320F3E70420F1E70E48006886
S31508000C8001280FD10D48006801280BD10B48001D1B
S31508000C900068012806D10848001F0068012801D10C
S31508000CA004490870012C02D101200249087000206D
S31508000CB0D6E70000700100203C02414230824042E3
S31508000CC02DE9F04104460D4616461F462A2000F037
S31508000CD053F904F1340188B200F03EF906F1340103
S31508000CE088B200F039F92B2000F046F905F1280101
S31508000CF088B200F031F907F1280188B200F02CF922
S31508000D002C2000F039F9BDE8F0812DE9F0470646B8
S31508000D100F4614461D46DDF820A0681E83B2601EE5
S31508000D2082B239463046FFF7CBFFB8460EE0B146E9
S31508000D3006E0504600F010F909F101001FFA80F9A3
S31508000D40A145F6DB08F101001FFA80F8A845EEDB9D
S31508000D50BDE8F0871CB50121032000F0C1FA012087
S31508000D6000908DF8040000208DF8060003208DF809
S31508000D70050001208DF8070069460D48FFF7B6FE05
S31508000D8001210B48FFF71FFF4020009001208DF836
S31508000D90040000208DF8060003208DF805000120C8
S31508000DA08DF8070069460348FFF7A0FE1CBD000042
S31508000DB0000402400000024010B500F09BFFFFF758
S31508000DC0C9FF40216348FFF7FCFE0A2008F03AFCF9
S31508000DD040216048FFF7F7FE0A2008F033FC0A2096
S31508000DE008F030FC112000F0C7F8782008F02AFC3B
S31508000DF0362000F0C1F8002000F0B7F83A2000F0DD
S31508000E00BBF8052000F0B1F8B22000F0B5F80C20C8
S31508000E1000F0ABF80C2000F0A8F8002000F0A5F8C8
S31508000E20332000F0A2F8332000F09FF8B72000F036
S31508000E30A3F8352000F099F8BB2000F09DF819209A
S31508000E4000F093F8C02000F097F82C2000F08DF8F9
S31508000E50C22000F091F8012000F087F8C32000F0C6
S31508000E608BF8122000F081F8C42000F085F82020C5
S31508000E7000F07BF8C62000F07FF80F2000F075F828
S31508000E80D02000F079F8A42000F06FF8A12000F037
S31508000E906CF8E02000F070F8D02000F066F8042026
S31508000EA000F063F80D2000F060F8112000F05DF8FE
S31508000EB0132000F05AF82B2000F057F83F2000F0D6
S31508000EC054F8542000F051F84C2000F04EF8182041
S31508000ED000F04BF80D2000F048F80B2000F045F81C
S31508000EE01F2000F042F8232000F03FF8E12000F030
S31508000EF043F8D02000F039F8042000F036F80C202A
S31508000F0000F033F8112000F030F8132000F02DF827
S31508000F102C2000F02AF83F2000F027F8442000F0A3
S31508000F2024F8512000F021F82F2000F01EF81F2089
S31508000F3000F01BF81F2000F018F8202000F015F824
S31508000F40232000F012F8212000F016F8292000F0DE
S31508000F5013F810BD0000024010B50446201200F038
S31508000F601BF8E0B200F018F810BD10B5044620468C
S31508000F7000F012F810BD000010B50446012105481E
S31508000F80FFF71FFE204600F007F801210148FFF78A
S31508000F901AFE10BD0004024010B5044600BF022127
S31508000FA0094800F07AFE0028F9D02146064800F0E4
S31508000FB080FE00BF0121044800F06FFE0028F9D02A
S31508000FC0014800F073FE10BD003001401CB5012138
S31508000FD0062000F085F94FF40050009003208DF8A4
S31508000FE0050001208DF8040000208DF80600012078
S31508000FF08DF8070069460548FFF778FD4FF440402D
S31508001000009069460248FFF771FD1CBD00080240C2
S315080010100004024010B50020044908700448054938
S3150800102008600146C86818F0CFFC10BD010300200F
S31508001030080300200403002010B52DED048B0120C1
S315080010401A4908701A480068643019490860084641
S315080010500068B0F5E15F02D34FF4E1500860144828
S315080010600068642148434FF4E151B0FBF1F011499F
S315080010700860084610A102681248006816F050F881
S315080010800C480068FFF770F99FED0F0B53EC102B17
S31508001090FFF7F8F8FFF779F984B2224600210C48E1
S315080010A000680EF0DFFBBDEC048B10BD01030020C9
S315080010B040040040F80100202366666666666620DE
S315080010C025642000F0010020CDCCCCCCCCCC0C4043
S315080010D0F401002010B52DED048B01201A49087083
S315080010E01A480068642802D8642018490860174816
S315080010F00068643815490860084600686421484352
S315080011004FF4E151B0FBF1F011490860084611A10E
S3150800111002681348006816F003F80D480068FFF7E0
S3150800112023F99FED100B53EC102BFFF7ABF8FFF7E5
S315080011302CF984B2224600210C4800680EF092FB76
S31508001140BDEC048B10BD00000103002040040040E4
S31508001150F801002023666666666666202564200018
S31508001160F0010020CDCCCCCCCCCC0C40F401002036
S315080011707047000010B50448044908600146C8686D
S3150800118018F022FC10BD000008030020040300200C
S31508001190704700BFFEE700003EB541F6FF74012127
S315080011A0214800F0ADF8012000F092F8002000F088
S315080011B0B5FA45F2500188422BD0012000F0F0F82C
S315080011C000BF412000F0CCF80028FAD04FF4807018
S315080011D000F002F9012000F0F9F800F0B7FC7F20D2
S315080011E00190FF20029000200090684600F064FA03
S315080011F000230A221821104600F054FC0423192261
S315080012000B21152000F03CFC45F25001002000F0AF
S3150800121021FD4FF4807000F06BF94FF4806000F008
S3150800122067F900203EBD000000000410704700006A
S3150800123070B5002100230F22C4781CB3174C24680C
S3150800124004F4E064C4F5E064C4F30721C1F10404BE
S31508001250E3B20A4144789C40E1B2847814402143C1
S315080012600C07210E0E4C05786155047804F01F050D
S315080012700124AC4005786D11AD0005F1E025C5F8EF
S31508001280004109E0047804F01F050124AC40054D2F
S315080012900678761145F8264070BD00000CED00E092
S315080012A000E400E080E100E010B5002807DA0A074C
S315080012B0140E054A00F00F031B1FD45403E00A0757
S315080012C0130E024A135410BD18ED00E000E400E0C6
S315080012D0014908627047000000000E42704700008E
S315080012E029B1064A12680243044B1A6004E0034A0D
S315080012F012688243014B1A6070470000303802407A
S3150800130029B1064A12680243044B1A6004E0034AEC
S3150800131012688243014B1A60704700004038024049
S3150800132029B1064A12680243044B1A6004E0034ACC
S3150800133012688243014B1A60704700004438024025
S3150800134029B1064A12680243044B1A6004E0034AAC
S3150800135012688243014B1A60704700002438024025
S3150800136010B501460022002300204A11012A02D1A5
S315080013700A4C236808E0022A03D1084C7034236813
S3150800138002E0064C7434236801F01F0201249440DD
S315080013901C400CB1012000E0002010BD00380240BE
S315080013A00021094A11701170012802D0042808D1B9
S315080013B003E00121044A117004E00521024A117074
S315080013C000E000BF00BF704770380240014908605E
S315080013D0704700003C0E4742002100F44072B2F507
S315080013E0407F08D1094A116821F4F811084A0240D9
S315080013F01143064A1160054A68321268C0F30B03A6
S315080014001A43024B68331A607047000008380240D6
S31508001410FFFCFF0F38B50246002400940023002085
S31508001420CA24184D2C6053242C6041B1154C1C3C21
S3150800143024681443134D1C3D2C6001201EE0114CFA
S315080014401C3C246894430F4D1C3D2C6000BF0D4C7A
S31508001450183C246804EA1223009C641C0094009C2F
S31508001460B4F5803F01D0002BF1D0064C183C246817
S3150800147004EA12240CB9002000E00120FF24014DE3
S315080014802C6038BD2428004010B54FF4807000F059
S31508001490A5F801280AD1000200F02AF806480068D3
S315080014A008B9012000E00020034908604FF4003025
S315080014B0FFF7CCFA10BD0000BC824042014600BFCF
S315080014C0080900EB8000420001F00F001044C0B28A
S315080014D070470146002204E0501CC2B2A1F10A007E
S315080014E0C1B20A29F8DA100741EA1060704700000D
S315080014F081B241F08001044A126802F0800262EA71
S315080015000101014A116070470C28004000210109B9
S315080015108AB242F08002044B1B6803F0800363EA38
S315080015200202014B1A6070470C28004008B50022D9
S31508001530009200200021104A126802F04002CAB93F
S31508001540421E0D4B1A6000BF0B4A126802F040019A
S31508001550009A521C0092009AB2F5803F01D00029E9
S31508001560F2D0054A126802F040020AB1012002E0F0
S31508001570002000E0012008BD0C2800400348006850
S3150800158020F0800001490860704700000C280040E0
S3150800159070B506460C4600250E4800680E4900EA56
S315080015A00105280CE070C5F30420607005F03F00C3
S315080015B0A070C5F3423020705EB9E078FFF77EFF71
S315080015C0E0706078FFF77AFF6070A078FFF776FF23
S315080015D0A07070BD042800403FFFFF0010B501460B
S315080015E000200022054B1B68054C03EA040202EAA8
S315080015F001030BB1012000E0002010BD0C280040BB
S315080016007F7F010070B506460C4600250F48006826
S315080016100F4900EA0105C5F305402070C5F3062009
S31508001620607005F07F00A07005F48000000CE07083
S315080016305EB92078FFF742FF20706078FFF73EFF1B
S315080016406070A078FFF73AFFA07070BD00280040D0
S315080016507F7F7F00CA22174B1A6053221A6091B106
S31508001660144A1C3A126820F004031A43114B1C3B17
S315080016701A60104A1C32126800F004031A430D4B14
S315080016801C331A6011E00B4A1C3A126820F0040356
S315080016909A43084B1C3B1A60064A1C32126800F033
S315080016A004039A43034B1C331A60FF22014B1A604A
S315080016B0704700002428004030B504460025CA209B
S315080016C01549086053200860FFF730FF00B91DE090
S315080016D011481C38006820F040000F491C39086082
S315080016E008460068216808430B491C3908600A49FE
S315080016F01439A068086008460068A18840EA0140D5
S31508001700054914390860FFF739FF0125FF2002490A
S315080017100860284630BD00002428004008B5014668
S315080017200020009004480090009800EB810000908B
S315080017300098006808BD0000502800402DE9F041D7
S3150800174005460E461446002765B93648006800F077
S31508001750400000B102E00020E07000BFA06800B9B8
S3150800176019E018E02F48006800F0400020B1207802
S31508001770FFF7A4FE074602E00020E07000BFA0685D
S3150800178020B9207BFFF79AFE074604E0207BFFF787
S3150800179095FE074600BF95B120780004617840EAB7
S315080017A00120A1780843E17840EA0140217B40EA1C
S315080017B00160A1680843616840EA01071BE02078D8
S315080017C0FFF787FE4FEA00486078FFF782FE48EA8F
S315080017D00028A078FFF77DFE48EA0008E07848EA86
S315080017E00048207BFFF775FE48EA0060A1680843B9
S315080017F0616840EA0107CA200A491C31086053207B
S315080018000860B6F5807F03D106481430076002E009
S31508001810044818300760FF2002491C310860BDE8FB
S31508001820F0810000082800402DE9F04105460C46E5
S31508001830002600274DB9607800F01000102804D162
S31508001840607820F010000A30607005B908E060780A
S31508001850FFF734FE0646A078FFF730FE064600BFBF
S3150800186055B1E0780004617840EA0120A178084380
S31508001870217840EA413611E0E078FFF72AFE4FEA80
S3150800188000486078FFF725FE48EA0028A078FFF7A9
S3150800189020FE48EA0008207848EA4036CA2012495D
S315080018A0086053200860FFF741FE08B9002714E0D6
S315080018B00E4830400C4920390860FFF75FFE0A4899
S315080018C01C38006800F0200030B900F03FF908B96C
S315080018D0002702E0012700E00127FF2002490860EF
S315080018E03846BDE8F0810000242800403FFFFF008D
S315080018F02DE9F04105460C46002600274DB92E482D
S31508001900006800F0400000B102E00020E07000BF6F
S315080019100DE02948006800F0400020B12078FFF764
S31508001920CDFD064602E00020E07000BF00BF55B1BD
S3150800193020780004617840EA0120A1780843E1781C
S3150800194040EA014611E02078FFF7C3FD4FEA004858
S315080019506078FFF7BEFD48EA0028A078FFF7B9FDD2
S3150800196048EA0008E07848EA0046CA2012491C31CD
S31508001970086053200860FFF7D9FD08B9002713E06F
S315080019800E4830400C4908390860FFF7F7FD0A4849
S31508001990006800F0200030B900F0D8F808B9002730
S315080019A002E0012700E00127FF2003491C310860F7
S315080019B03846BDE8F0810000082800407F7F7F0098
S315080019C0CA21054A1160532111600349103908607C
S315080019D0FF2111607047000024280040F0B585B04B
S315080019E004460D4616461F4600214FF48070FFF741
S315080019F011FD8DF800508DF801608DF802700020F9
S31508001A008DF803008DF810404FF0804003900020B9
S31508001A1002900098019001AA4FF480710020FFF708
S31508001A208DFE4FF48050FFF771FD4FF40030FFF73D
S31508001A300DF801210803FFF70DFE01210802FFF743
S31508001A40E9FC4FF400300C490860002008710820B2
S31508001A504871012088710846FEF7FEFF29200749CC
S31508001A6008700220487088700120C8700846FFF781
S31508001A70DFFB05B0F0BD0000800100207C010020DE
S31508001A80F8B504460D4617461E468DF802708DF8C1
S31508001A9001508DF800608DF8034069460020FFF775
S31508001AA0C3FEF8BDF8B504460D4616461F468DF822
S31508001AB000408DF801508DF802608DF80370694674
S31508001AC00020FFF715FFF8BD70B504460D46002047
S31508001AD000F084F8204600F069F80020FFF770FF50
S31508001AE04FF48040FFF712FD4FF48000FEF7AEFF7B
S31508001AF001218803FFF7AEFD012000F06FF84FF4CF
S31508001B0080000B49086000200871082048710120F0
S31508001B1088710846FEF7A0FF0320064908700220D0
S31508001B20487088700120C8700846FFF781FB70BDB1
S31508001B30800100207C01002010B54FF48060FFF77B
S31508001B404DFD4FF48000FEF781FF10BD08B5002259
S31508001B50009200200021CA22134B1A6053221A60F1
S31508001B60114A183A126822F0A0020F4B183B1A6065
S31508001B7000BF0D4A183A126802F02001009A521C5A
S31508001B800092009AB2F5003F01D00029F1D0064A2A
S31508001B90183A126802F020020AB1012000E000207B
S31508001BA0FF22014B1A6008BD24280040CA210A4AB0
S31508001BB011605321116008491C39096821F0070191
S31508001BC0054A1C3A11601146096801431160FF2154
S31508001BD0014A1160704700002428004018B50146E4
S31508001BE00023009300220020CA23194C23605323A4
S31508001BF0236049B1164B1C3B1B6843F48063144CA5
S31508001C001C3C236001201FE0114B1C3B1B6823F47E
S31508001C1080630F4C1C3C236000BF0D4B183B1B68B0
S31508001C2003F00402009B5B1C0093009BB3F5803F06
S31508001C3001D0002AF1D0064B183B1B6803F00403B9
S31508001C400BB9002000E00120FF23014C236018BDDA
S31508001C502428004008B500220092044A0092009AFF
S31508001C6002EB80020092009A116008BD50280040DD
S31508001C7021B1028842F04002028004E002884FF651
S31508001C80BF731A40028070471AB183880B4383805A
S31508001C9002E083888B4383807047024600201389BD
S31508001CA00B400BB1012000E00020704701468889EF
S31508001CB070478181704710B50022028802F44152AC
S31508001CC00B884C8823438C882343CC8823430C8970
S31508001CD023434C8923438C892343CC8923431A43C2
S31508001CE00280838B4FF2FF74234083830B8A03821F
S31508001CF010BD000000B587B001210846FFF7F0FACD
S31508001D0001210803FFF70CFBB020059002208DF88F
S31508001D10180000208DF81A0003208DF8190005A96F
S31508001D202148FEF7E3FE052207211F48FEF726FF96
S31508001D30052204211C48FEF721FF052211461A48F0
S31508001D40FEF71CFF01210803FFF7FAFA00214FF4FA
S31508001D508050FFF7F5FA0020ADF800004FF48270C6
S31508001D60ADF802000020ADF804000220ADF8060028
S31508001D700120ADF808004002ADF80A000820ADF8C9
S31508001D800C000020ADF80E000A20ADF810006946D8
S31508001D900648FFF790FF01210448FFF769FFFF2077
S31508001DA0FFF7FAF807B000BD000002400030014016
S31508001DB07047000010B500201349087013480068E2
S31508001DC0438A13480068408A181A01B20E480078F8
S31508001DD0104B1B7810FB03F0404202B20E480DF080
S31508001DE0D6FC0D480DF0ECFC0C480DA142680D48D8
S31508001DF0006815F095F90C480C4908600146C86852
S31508001E0017F0E2FD10BD0000480200204C02002039
S31508001E10540200204902002010B900205802002070
S31508001E202573000050020020180300200403002038
S31508001E3010B50C480C49097800EB0110C06880B150
S31508001E4008480949097800EB0110C0680749086085
S31508001E500449054A127801EB0211C968C86817F0E7
S31508001E60B3FD10BD580200204802002004030020DC
S31508001E7010B518480078401C1649087008460078BE
S31508001E800521B0FBF1F201FB120012490870124855
S31508001E900068438A11480068408A181A01B20D483A
S31508001EA000780F4B1B7810FB03F0404202B20D4836
S31508001EB00DF06DFC0B480DF083FC0B4805490978BD
S31508001EC000EB011009A142680948006815F028F9D5
S31508001ED010BD0000480200204C02002054020020D9
S31508001EE04902002010B9002058020020257300007E
S31508001EF0500200200CB5002001900090334800687D
S31508001F0040F480303149086000BF3048006800F46A
S31508001F10003000900198401C0190009818B901986B
S31508001F20B0F5A04FF1D12948006800F4003010B18F
S31508001F300120009001E0002000900098012844D17B
S31508001F4022484030006840F08050204940310860FF
S31508001F501F48006840F440401D4908601B48083087
S31508001F6000681A490831086008460068086008468B
S31508001F70006840F4805008601648091F0860081F6A
S31508001F80006840F08070091F086000BF0F480068AD
S31508001F9000F000700028F9D040F202700E4908607F
S31508001FA00A480830006820F003000849083108602C
S31508001FB00846006840F00200086000BF0348083081
S31508001FC0006800F00C000828F8D10CBD0038024063
S31508001FD00070004019544107003C024010B500202B
S31508001FE0044908700448054908600146C86817F09E
S31508001FF0EBFC10BD010300200803002004030020A9
S3150800200070B55C490020FFF7FDFA5B490020FFF731
S31508002010BFFA5A48007807281BD2DFE800F0041BED
S3150800202031485F7A910053480478641C182094FB61
S31508002030F0F100FB11444F4B9A785978E0B200232F
S31508002040FFF730FD4B490A784D4908684DA115F050
S3150800205067F88CE047484478641C3C2094FBF0F110
S3150800206000FB1144434B9A78E1B218780023FFF736
S3150800207019FD43492246486842A115F051F876E011
S315080020803C488478641C3C2094FBF0F100FB114426
S31508002090E2B2384B597818780023FFF703FD354923
S315080020A08A783749886837A115F03AF85FE03248E8
S315080020B0C478641C642094FBF0F100FB11442E4D97
S315080020C02B78AA786978E0B2FFF7DAFC2946CA784D
S315080020D02B49C8682DA115F023F848E0264804784E
S315080020E0072094FBF0F100FB1144641CE3B2224D77
S315080020F0AA786978E878FFF7C3FC29460978491E63
S31508002100244B03EB81021E49086923A115F008F840
S315080021102DE019484478641C0C2094FBF0F100FB70
S315080021201144154D2B78AA78E1B2E878FFF7A8FC98
S3150800213029464A781249486912A114F0F1FF16E0B7
S315080021400D488478641C1F2094FBF0F100FB1144B1
S31508002150094D2B78E2B26978E878FFF791FC2946B1
S315080021608A780749886907A114F0DAFF00BF00BF1B
S3150800217070BD00007401002078010020B80200201C
S3150800218050B9002025303264000000002025303286
S315080021906400000018020020257300001CB51448CE
S315080021A00068019013490A780978491C114B19707F
S315080021B0114951F8220000221146019B18F031F806
S315080021C00C490878C11700EB5171C910A0EBC10181
S315080021D0084A11700648001D0068009006491278E2
S315080021E051F8220000221146009B18F01AF81CBD6F
S315080021F04CCE0308B80200206CB9002002480068DB
S31508002200401C0149086070476803002070B500202B
S315080022100022022300240221274D2D6805F00C0018
S3150800222020B1042806D0082834D107E0234D244ECF
S31508002230356033E0234D224E35602FE01E4D2D1FAD
S315080022402D68C5F380541C4D2D1F2D6805F03F01E0
S3150800225054B11C4DB5FBF1F5174E361F3668C6F35B
S31508002260881605FB06F209E0144DB5FBF1F5124E8A
S31508002270361F3668C6F3881605FB06F20E4D2D1F67
S315080022802D68C5F301456D1C6B00B2FBF3F50C4ECA
S31508002290356003E0094D0A4E356000BF00BF064DA4
S315080022A02D68C5F30315084E705D054D2D68C540AC
S315080022B0034E356070BD0000083802400024F40063
S315080022C07403002040787D017803002010B5154876
S315080022D0006840F47000134908601348006840F02D
S315080022E001001149086000200F49083108600E48AE
S315080022F000680E4908400C4908600D48091D086029
S31508002300081F006820F48020091F0860002006497D
S315080023100C310860FFF7EEFD4FF000600149803987
S31508002320086010BD88ED00E000380240FFFFF6FEA9
S315080023301030002410B50848008A00F0010010B1DA
S315080023400648006880470448008A4FF6FE71084030
S315080023500149088210BD00000000014088010020E4
S3150800236010B54FF08040008A00F0010010B1064811
S31508002370006880474FF08040008A4FF6FE7108409B
S315080023804FF08041088210BD8C01002010B5084826
S31508002390008800F0010010B106480068804704482C
S315080023A000884FF6FE7108400149088010BD0000FC
S315080023B0100400409001002010B50848008800F07D
S315080023C0010010B1064800688047044800884FF6A7
S315080023D0FE7108400149088010BD00001008004041
S315080023E09401002021B1028842F08002028004E0B4
S315080023F002884FF67F731A400280704721B102881F
S3150800240042F00102028004E002884FF6FE731A4089
S315080024100280704770B5002200230024058C4EF612
S31508002420FF7635400584038C8488828B48F6FF75D1
S315080024302A404FF6FF452A400D884FF6FF7606EAF2
S3150800244005252A434DF6FF752B408D8906EA053585
S315080024502B434D8806EA05352B430A4DA84202D080
S31508002460094DA84208D14BF6FF752C400D8A4FF648
S31508002470FF7606EA85152C43848082838D68056479
S31508002480038470BD00000140000401400A46002193
S31508002490818B4FF2FF7319404FF6FF7303EA02234D
S315080024A0194381837047016470470000002202883F
S315080024B0184B98420ED0184B98420BD0B0F1804F6B
S315080024C008D0164B984205D0154B984202D0154BAA
S315080024D0984204D14FF68F731A404B881A43124B11
S315080024E0984207D0114B984204D04FF6FF431A4042
S315080024F00B891A4302804B68C3620B880385054B18
S31508002500984202D0044B984201D18B7A0386012364
S315080025108382704700000140000401400004004027
S3150800252000080040000C0040001000400014004065
S3150800253010B50448044908600146C86817F044FA0B
S3150800254010BD0000080300200403002010B5084849
S31508002550007848B9002305220A21064819F092FB9B
S3150800256001200349087002E000200149087010BDE7
S31508002570CD02002075FC010808B523480078E8B1AB
S31508002580224800882249234A0090127851F82200EE
S3150800259021490B7821490A7821A114F0C1FD1D486B
S315080025A00078401C1B49087008460078032190FBF8
S315080025B0F1F201FB12001749087024E000201549C2
S315080025C00870134908681AA114F01EFD10494868D6
S315080025D017A114F019FD0E49886815A114F014FD09
S315080025E000200A4908800C4908700C4908700748F9
S315080025F00088009008480378084602780FA1194811
S31508002600006814F08DFD08BDCD020020C802002028
S31508002610E8BA0020CC020020CA020020CB02002023
S31508002620253032643A253032642E25303264000073
S315080026302D2D3A2D2D2E2D2D00000000253032642B
S3150800264023666630303030203A23253032640D0A4E
S31508002650202366663030303020202E232530326421
S3150800266000000000C402002010B540F225511D48A4
S3150800267000F03EF810B31B4800F064F8C4B21A48DC
S31508002680008800F40040C8B91748008800F4804064
S3150800269060B10A2C03D000201349088020E01248B4
S315080026A0008840F400401049088019E00D2C06D136
S315080026B00D48008840F480400B49088010E00A481D
S315080026C00088C0F30D0009490C5407480088401CCF
S315080026D00549088008460088C72801DD00200880CB
S315080026E010BD0000001001407003002064BB0020EC
S315080026F070B50246002400230025002040F66A161D
S31508002700B14200D100BFC1F3421501F01F030126F3
S3150800271006FA03F3012D02D19689334006E0022D0D
S3150800272002D1168A334001E0968A33400C120126FC
S3150800273006FA04F41688344013B10CB1012000E0FF
S31508002740002070BD01468888C0F30800704700BFA6
S31508002750FEE702E008C8121F08C1002AFAD170472E
S315080027607047002001E001C1121F002AFBD1704703
S3150800277070B50446002508E02168481C20600878E2
S31508002780303805EB850100EB41052168087800F033
S3150800279004F80028F0D1284670BD0146302903DB2D
S315080027A0392901DC012070470020FCE710B54021DB
S315080027B0084801F06AFC002304221E21064819F085
S315080027C061FA0649086003F0C7FE0020044908704C
S315080027D010BD0000C404002045660008D80000208B
S315080027E0D40000202DE9F04705460F4616461C463C
S315080027F0152E30D2DFE806F00B3034495765839A38
S31508002800AFCDD6F9F7F6F5F4F3F2F1F0EF00284676
S315080028100DF039F9814600EBD9704FEA600A38465F
S315080028200DF031F9804600EBD870AAEB600000B2D3
S31508002830208028460DF0D0F8814600EBD9704FEA83
S31508002840600A38460DF0C8F8804600EBD870AAEB47
S31508002850600000B260806AE100202080608066E146
S3150800286028460DF010F9814600EBD9704FEA600A48
S3150800287038460DF008F9804600EBD870AAEB6000E0
S3150800288000B220800020608051E128460DF0FBF858
S31508002890804638460DF0F7F8A8EB000000B2208015
S315080028A00020608043E10020208028460DF094F83F
S315080028B0804638460DF090F8A8EB000000B260801C
S315080028C035E128460DF0DFF8814600EBD9704FEA6E
S315080028D0600A38460DF0D7F8804600EBD870AAEBA8
S315080028E0600000B2208028460DF076F8804638460B
S315080028F00DF072F8A8EB000000B2608017E12846D8
S315080029000DF0C1F8804638460DF0BDF8A8EB00007A
S3150800291000B2208028460DF05FF8804638460DF054
S315080029205BF8A8EB000000B2608000E10020208080
S3150800293028460DF051F8814600EBD9704FEA600A37
S3150800294038460DF049F8804600EBD870AAEB6000CF
S3150800295000B26080EBE028460DF095F880463846D0
S315080029600DF091F8A8EB000000B2208028460DF083
S3150800297033F8814600EBD9704FEA600A38460DF005
S315080029802BF8804600EBD870AAEB600000B2608096
S31508002990CDE00020208038460DF01EF8404200B2F7
S315080029A06080C4E028460DF06EF8814600EBD970C9
S315080029B04FEA600A38460DF066F8804600EBD87094
S315080029C0AAEB600000B2208038460DF005F84042B8
S315080029D000B26080ABE09AE082E07AE067E04DE022
S315080029E043E032E01AE012E0FFE728460DF04BF824
S315080029F0804638460DF047F8A8EB000000B2208064
S31508002A0038460CF0E9FF404200B260808FE00020B3
S31508002A10208028460CF0E0FF608088E028460DF00C
S31508002A2032F8814600EBD9704FEA600A38460DF055
S31508002A302AF8804600EBD870AAEB600000B2208026
S31508002A4028460CF0C9FF608071E028460DF01BF897
S31508002A50804638460DF017F8A8EB000000B2208033
S31508002A6028460CF0B9FF608061E038460DF00BF897
S31508002A70404200B220800020608058E038460DF0C1
S31508002A8002F8404200B2208028460CF0A5FF814695
S31508002A9000EBD9704FEA600A38460CF09DFF804675
S31508002AA000EBD870AAEB600000B260803FE03846C1
S31508002AB00CF0E9FF404200B2208028460CF08CFF5B
S31508002AC0804638460CF088FFA8EB000000B260800C
S31508002AD02DE028460CF0D7FF20800020608026E0F5
S31508002AE028460CF0D0FF208028460CF075FF81465A
S31508002AF000EBD9704FEA600A38460CF06DFF804645
S31508002B0000EBD870AAEB600000B260800FE02846A0
S31508002B100CF0B9FF208028460CF05EFF8046384648
S31508002B200CF05AFFA8EB000000B2608000BF00BF9F
S31508002B3020882988084400B220806088698808446B
S31508002B4000B26080BDE8F08730B50346B1F90040B1
S31508002B50B2F90050AC4202DDB1F9004001E0B2F929
S31508002B6000401C80B1F90240B2F90250AC4202DDC5
S31508002B70B1F9024001E0B2F902405C80B1F90440C3
S31508002B80B2F90450AC4202DAB1F9044001E0B2F9F4
S31508002B9004409C80B1F90640B2F90650AC4202DA0C
S31508002BA0B1F9064001E0B2F90640DC800120B3F92C
S31508002BB00040B3F90450AC4205DCB3F90240B3F95E
S31508002BC00650AC4200DD002030BDF8B504460D467F
S31508002BD016460027B4F90000B5F90010884212DB42
S31508002BE0B4F90200B5F9021088420CDBB4F9040006
S31508002BF0B5F90410884206DCB4F90600B5F90610E2
S31508002C00884200DC01270FB90020F8BD0EB9012063
S31508002C10FBE72088ADF800006088ADF80200324670
S31508002C206946284600F04CF808B90020EDE7A08868
S31508002C30ADF800006088ADF80200324669462846BD
S31508002C4000F03EF808B90020DFE72088ADF800005C
S31508002C50E088ADF8020032466946284600F030F8AA
S31508002C6008B90020D1E7A088ADF80000E088ADF8E3
S31508002C70020032466946284600F022F808B90020C4
S31508002C80C3E70120C1E70246B2F90000B1F90430F2
S31508002C90984213DCB2F90400B1F9003098420DDB12
S31508002CA0B2F90200B1F90630984207DCB2F906001B
S31508002CB0B1F90230984201DB012070470020FCE799
S31508002CC02DE9FC5F05460E4614464FF0000AB6F994
S31508002CD00000B5F90010884213DBB6F90000B5F913
S31508002CE0041088420DDCB6F90200B5F902108842D4
S31508002CF007DBB6F90200B5F90610884201DC4FF089
S31508002D00010ABAF1000F02D10020BDE8FC9F002C91
S31508002D1001DC0120F9E728460CF0B5FE834600EBF6
S31508002D20DB70471028460CF057FE834600EBDB7035
S31508002D304FEA6008474501DA384600E040468146D2
S31508002D404C4500DD4C462888ADF80000288820440C
S31508002D5000B2ADF804006888ADF80200688820441F
S31508002D6000B2ADF80600002231466846FFF7A8FF14
S31508002D7080B1BDF80400204400B2ADF80400BDF8E7
S31508002D800600204400B2ADF806003146684617F042
S31508002D90B3FDBAE7E888001B00B2ADF80200E88880
S31508002DA0ADF80600002231466846FFF789FF80B174
S31508002DB0BDF80400204400B2ADF80400BDF80200D6
S31508002DC0001B00B2ADF802003146684617F094FDC4
S31508002DD09BE7A888001B00B2ADF80000A888ADF8EC
S31508002DE00400002231466846FFF76AFF80B1BDF845
S31508002DF00000001B00B2ADF80000BDF80200001B81
S31508002E0000B2ADF802003146684617F075FD7CE75A
S31508002E106888ADF802006888204400B2ADF806005C
S31508002E20002231466846FFF74BFF80B1BDF8000027
S31508002E30001B00B2ADF80000BDF80600204400B241
S31508002E40ADF806003146684617F056FD5DE70120E5
S31508002E505BE710B5B1F90030B2F90040A34202DAD7
S31508002E60B1F9003001E0B2F900300380B1F902305F
S31508002E70B2F90240A34202DAB1F9023001E0B2F92E
S31508002E8002304380B1F90430B2F90440A34202DDAE
S31508002E90B1F9043001E0B2F904308380B1F90630A3
S31508002EA0B2F90640A34202DDB1F9063001E0B2F9F3
S31508002EB00630C38010BD2DE9F04F04460D46C4F513
S31508002EC0806101FB01F0860A06FB01F04FEA902CAF
S31508002ED004FB04F0870A07FB04F04FEA90280CFB72
S31508002EE005F04FEA902906EB4600604350434FEA47
S31508002EF0105A01EB4100784358434FEA105B099892
S31508002F0008FB00F04FEA902E09EB0A00584470447B
S31508002F10BDE8F08F2DE9FF4F87B01C46DDE9147830
S31508002F20B8F1020F02DA0BB0BDE8F08F07B9FAE77D
S31508002F3002F01AF8054628460EF00CFB814609F100
S31508002F401006D9F808000690686A10B12846696A1A
S31508002F50884704A8DDE90712FFF7F6FD8346BBF1AB
S31508002F60000F00D1DFE7BDF810003188401A00B223
S31508002F70ADF81000BDF812007188401A00B2ADF81D
S31508002F801200BDF814003188401A00B2ADF81400DA
S31508002F90BDF816007188401A00B2ADF81600CCB11B
S31508002FA0287A00F00100A8B904A80CF042FD0390A5
S31508002FB04FF0000A0AE014F80A00802801DDFF2015
S31508002FC000E0002004F80A000AF1010A0398824585
S31508002FD0F1DB00BF686948B1CDE90084029704AA0D
S31508002FE03046099B069909F0BCFF16E0169848B9C1
S31508002FF0CDE90084029704AA3046099B069909F090
S31508003000DDFD0AE01698CDE90084CDE9027004AA30
S315080030103046099B069909F01FFD00BF83E72DE995
S31508003020FF4F89B017461C46DDE91689B9F1020F2C
S3150800303002DA0DB0BDE8F08FB8F1000F00D1F8E75D
S3150800304007A8DDE90912FFF77FFD0690069800B983
S31508003050EFE701F089FF054628460EF07BFA82461F
S315080030600AF11006DAF808000590686A10B12846D1
S31508003070696A8847BDF81C003188401A00B2ADF865
S315080030801C00BDF81E007188401A00B2ADF81E007B
S31508003090BDF820003188401A00B2ADF82000BDF80E
S315080030A022007188401A00B2ADF82200CCB1287A05
S315080030B000F00100A8B907A80CF0BBFC04904FF07B
S315080030C0000B0AE014F80B00802801DDFF2000E061
S315080030D0002004F80B000BF1010B04988345F1DB83
S315080030E000BF686950B1CDE90079CDE9024807AA61
S315080030F030460A9B059919F0E0FD18E0189850B972
S31508003100CDE90079CDE9024807AA30460A9B059918
S3150800311019F0FEFB0BE01898CDE90079CDE90248D5
S31508003120049007AA30460A9B059919F035FB00BF9B
S315080031307FE700002DE9FF5F814619F041F803900B
S31508003140002002906D49D9F80C0008600021484615
S3150800315018F04CFF69480068C06B60B900216748E1
S315080031600068D0F8780161F3194064490968C1F824
S315080031707801BDE8FF9F17F045FE17F087FD5F4809
S315080031800068D0F87801C0F3094000287ED05B4873
S3150800319000680EF090FA00287FD058480068406909
S315080031A000287AD1554800680EF0D4F9054617F07C
S315080031B057FF00BFA8690028FCD100274F490968B6
S315080031C0B1F90010480001F0A7F80746D5F808A09D
S315080031D02968A868884201D1686800E028680190D3
S315080031E0464800680EF0CDF90646002445E04348F7
S315080031F0006800F5AD70005DE8BB404800685A30CD
S3150800320030F934103D4800685A3000EBC400B0F974
S31508003210020006FB00104FEA4008384909685A318F
S3150800322001EBC4000CF0FEFB400000903348006838
S315080032305A3000EBC400B0F902B012E0019800EB76
S3150800324008013846009A01F065F90AEB0800394684
S31508003250009A01F05FF908EB46080BF101000FFA36
S3150800326080FB264800685A3000EBC400B0F9060017
S315080032705845E3DA00BF601C84B220480068D0F8DD
S315080032807801C0F30940A042B1DC01E02FE004E078
S3150800329017B1384601F0F0F800BF4FF480711748AF
S315080032A000685A3001F0E8FA20211448006800F551
S315080032B0AD7001F0E1FA002110480068D0F87801F5
S315080032C061F319400D490968C1F87801039818F0A7
S315080032D069FF029009480068806940B1074800689C
S315080032E0836907480268054802990068984700F00C
S315080032F0E7FF00F007F800BF3BE7000018000020D2
S315080033001400002010B50548006830B1034800686D
S3150800331014F09EFA00200149086010BDF400002050
S3150800332010B54421014800F0B0FE10BDAC040020E1
S3150800333010B51821014800F0A8FE10BDD0040020E1
S315080033402DE9FF4F8BB004469A46199DBAF1000F36
S3150800335011D11898B0F5807F0DD1002020806080AB
S315080033600C98401E00B2A0800D98401E00B2E08066
S315080033700FB0BDE8F08FB5F90000404218994843F0
S315080033800121C1EB202000B22080B5F9020040429D
S31508003390189948430121C1EB202000B26080B5F995
S315080033A000100C98401A18994843022101EB202076
S315080033B000B2A080B5F902100D98401A1899484332
S315080033C0022101EB202000B2E080BAF1000F14D1EF
S315080033D020882988084400B22080608869880844C3
S315080033E000B26080A0882988084400B2A080E088DE
S315080033F06988084400B2E080BAE70A209AFBF0F030
S315080034000A900A98401C09900A9800EB8000AAEBDB
S31508003410400B0A9800B202F059FA0890099800B2CF
S3150800342002F054FA07900A985A3000B202F04EFA9F
S31508003430069009985A3000B202F048FA0590CBF186
S315080034400A0108984143079800FB0B100A2190FBD4
S31508003450F1F6CBF10A0106984143059800FB0B10DB
S315080034600A2190FBF1F776117F11B4F90080B4F9BF
S31508003470029007FB08F006FB1900298801EBA0203B
S3150800348000B2ADF8100006FB08F007FB09006988D2
S3150800349001EBA02000B2ADF81200B4F90480B4F92B
S315080034A0029007FB08F006FB1900298801EBA0200B
S315080034B000B2ADF80C0006FB08F007FB09006988A6
S315080034C001EBA02000B2ADF80E00B4F90080B4F903
S315080034D0069007FB08F006FB1900298801EBA020D7
S315080034E000B2ADF8080006FB08F007FB090069887A
S315080034F001EBA02000B2ADF80A00B4F90480B4F9D3
S31508003500069007FB08F006FB1900298801EBA020A6
S3150800351000B2ADF8040006FB08F007FB090069884D
S3150800352001EBA02000B2ADF80600BDF90800BDF910
S315080035301010884202DABDF9080001E0BDF9100052
S31508003540BDF90410BDF90C20914202DABDF9041048
S3150800355001E0BDF90C1088420BDABDF90800BDF987
S315080035601010884202DABDF908000DE0BDF9100016
S315080035700AE0BDF90400BDF90C10884202DABDF96B
S31508003580040001E0BDF90C002080BDF90800BDF972
S315080035901010884202DDBDF9080001E0BDF91000EF
S315080035A0BDF90410BDF90C20914202DDBDF90410E5
S315080035B001E0BDF90C1088420BDDBDF90800BDF924
S315080035C01010884202DDBDF908000DE0BDF91000B3
S315080035D00AE0BDF90400BDF90C10884202DDBDF908
S315080035E0040001E0BDF90C00A080BDF90A00BDF990
S315080035F01210884202DABDF90A0001E0BDF912008C
S31508003600BDF90610BDF90E20914202DABDF9061081
S3150800361001E0BDF90E1088420BDABDF90A00BDF9C2
S315080036201210884202DABDF90A000DE0BDF912004F
S315080036300AE0BDF90600BDF90E10884202DABDF9A6
S31508003640060001E0BDF90E006080BDF90A00BDF96B
S315080036501210884202DDBDF90A0001E0BDF9120028
S31508003660BDF90610BDF90E20914202DDBDF906101E
S3150800367001E0BDF90E1088420BDDBDF90A00BDF95F
S315080036801210884202DDBDF90A000DE0BDF91200EC
S315080036900AE0BDF90600BDF90E10884202DDBDF943
S315080036A0060001E0BDF90E00E08000BF60E60000FC
S315080036B02DE9F74F86B0044620680590B4F908103E
S315080036C00798A0EB0108B4F90A100898A0EB0109BD
S315080036D0E089B0F5807F13D1206B00FB08F0E16A22
S315080036E001FB1901606A00EBA10BE06A00FB08F018
S315080036F0216B01FB0901A06A00EBA10004902FE0F1
S31508003700A08980B9A06B00FB08F04FEA6018A06B8F
S3150800371000FB09F04FEA6019606A00EB080BA06A23
S31508003720484404901CE0A06B00FB08F04FEA6018C0
S31508003730A06B00FB09F04FEA6019206B00FB08F04C
S31508003740E16A01FB1901606A00EBA12BE06A00FB44
S3150800375008F0216B01FB0901A06A00EBA120049087
S315080037604FEA2B2604980712B4F90400B04203DC8A
S31508003770002009B0BDE8F08F002E01DA0020F8E736
S31508003780B4F90600B84201DC0020F2E7002F01DA9E
S315080037900020EEE73420005DC0F3800050B33420EB
S315080037A0005DC0F3400078B90225B4F904007843F7
S315080037B0684306FB050A059800EB0A012A4604F148
S315080037C0140000F0FBFF2CE00325B4F9040078434D
S315080037D0684306FB050A6A1E059800EB0A0104F110
S315080037E0140000F0EBFF0AEB0500401E0599095C82
S315080037F0A17516E04FF0000A0025208A03463AB262
S3150800380031B2019004F1180010F094FC0290BDF852
S315080038100800A0823AB231B204F1180010F0EAFBAF
S31508003820A0753420005D00F0010060B113480068FF
S31508003830029002980190A08ABDF80410884201D12E
S31508003840002096E700BFE07C08B9012091E70FFA4F
S315080038508BF1A187049801B2E18731B24020015368
S3150800386039B242200153C4F844A084F8485020468F
S3150800387000F006F8039003987BE70000900702081B
S315080038802DE9F04F8DB00446D4F8009094F83C002A
S315080038900C9094F83E000B900C9870280BDA4FF0B9
S315080038A0FF35B4F940002844002800DA00250C98B2
S315080038B08030C7B213E00C9890280EDD0125B4F9C4
S315080038C040002844B4F90410884200DB00250C980F
S315080038D0C0F1FF008030C7B201E00025FF270B9832
S315080038E070280CDA4FF0FF36B4F94200304400284D
S315080038F000DA00260B98803000F0FF0815E00B98D8
S3150800390090280FDD0126B4F942003044B4F90610B8
S31508003910884200DB00260B98C0F1FF00803000F0DB
S31508003920FF0802E000264FF0FF08A08A0A90A07D53
S31508003930069000200590049003903420005DC0F3A3
S31508003940800000285BD094F84800626C00FB0520D4
S3150800395000EB0901022209A800F03CFFA28894F8AE
S31508003960480012FB00F2606C02FB060000EB09013E
S31508003970022208A800F02EFFA28894F8480012FB3D
S3150800398000F2606C02FB060294F8480000FB052072
S3150800399000EB0901022207A800F01CFF3420005D95
S315080039A0C0F3400000287ED094F84800616C00FB04
S315080039B005110844401E19F800000590A18894F8DE
S315080039C0480011FB00F1606C01FB060194F8480001
S315080039D00844401E19F800000490A18894F848008D
S315080039E011FB00F1606C01FB060194F8480000FB2E
S315080039F005110844401E19F80000039053E0208A78
S31508003A000090B4F942204020005B284401B204F13A
S31508003A101800009B10F08EFB0990208A0090422027
S31508003A20005B304402B2B4F9401004F11800009B60
S31508003A3010F080FB0890208A00904220005B3044FA
S31508003A4002B24020005B284401B204F11800009B32
S31508003A5010F070FB07903420005DC0F3400010B3EF
S31508003A60B4F942204020005B284401B204F1180052
S31508003A7010F0C0FA05904220005B304402B2B4F957
S31508003A80401004F1180010F0B5FA04904220005BCB
S31508003A90304402B24020005B284401B204F1180009
S31508003AA010F0A8FA0390BA46BB463420005DC0F36E
S31508003AB04000E0B306987843C7F1FF0C059B03FB6B
S31508003AC00C00C0F3072104987843C7F1FF0C039B49
S31508003AD003FB0C00C0F3072201FB08F0C8F1FF0343
S31508003AE002FB0300030AA375022905DC022A03DC8C
S31508003AF000200DB0BDE8F08F022901DC4FF0000868
S31508003B00022A01DC4FF0FF080698022801DC4FF074
S31508003B10000A0598022801DC4FF0FF0A04980228DB
S31508003B2001DC4FF0000B0398022803DC00E002E0FA
S31508003B304FF0FF0B03E0BA46BB46FF21A175BAF169
S31508003B40000F02D1099802900BE0BAF1FF0F02D1DB
S31508003B500A98029005E05246DDE909100CF0DBFAF6
S31508003B600290BBF1000F02D1079801900BE0BBF160
S31508003B70FF0F02D10898019005E05A46DDE90710C3
S31508003B800CF0C9FA0190B8F1000F03D1BDF8040092
S31508003B90A0820FE0B8F1FF0F03D1BDF80800A0829C
S31508003BA008E04246DDE901100CF0B5FA0090BDF8D0
S31508003BB00000A08201209CE72DE9F05F0446B4F9D5
S31508003BC0080001026162B4F90A000102A162B4F9AF
S31508003BD00C000A2190FBF1F56F1CB4F90C0005EBFB
S31508003BE08501A0EB4106684200B201F06FFE8046EF
S31508003BF0784200B201F06AFE8146C5F15A0000B269
S31508003C0001F064FE8246C7F15A0000B201F05EFE7A
S31508003C108346C6F10A0000FB08F009FB06000A21E4
S31508003C2090FBF1F1E162C6F10A0000FB0AF00BFB1A
S31508003C3006000A2190FBF1F12163E06A4111E16275
S31508003C40206B41112163A07C10F0F9FB3421095D3A
S31508003C5060F3000134200155A07C10F0D3FB342119
S31508003C60095D60F3410134200155A07C042805D084
S31508003C70A07C052802D0A07C062807D13420005D48
S31508003C8020F00400001D3421085505E03420005DAD
S31508003C9020F004013420015521682162A06920F032
S31508003CA0E000A061A17CA06961F30400A061A1887D
S31508003CB0A06961F39420A061E188A06961F35F506F
S31508003CC0A061E08900EBD071491001F5001191FB64
S31508003CD0F0F2A263FF21A175208AA082BDE8F09FB9
S31508003CE02DE9F347804600244548008810B900208E
S31508003CF0BDE8FC8743480668002514E005EBC500C7
S31508003D0006EB8000006A404988420ADD05EBC500DB
S31508003D1006EB8000006A401E05EBC50106EB810133
S31508003D200862681C85B2364800888542E6DB0025AD
S31508003D3023E0BDF8040005EBC50106EB81010989FE
S31508003D40884218D105EBC50006EB8000416840465D
S31508003D5010F0CEFA78B105EBC50006EB8004216AAF
S31508003D60606908442062206AB0F57A7F02DD4FF464
S31508003D707A70206205E0681C85B221480088854271
S31508003D80D7DB00BF0CB12046B2E7344601250DE06B
S31508003D9005EBC50006EB8000006A216A884203DA53
S31508003DA005EBC50006EB8004681C85B2144800883C
S31508003DB08542EDDB606810B1204611F00DF818F069
S31508003DC0FFF9814641462046019A11F065F80746F3
S31508003DD047B92421204600F04FFD4FF000402062ED
S31508003DE0002085E700202062606918B9484618F067
S31508003DF0D9F96061606908B901206061204677E7F2
S31508003E0024000020DC0000200100008010B51021ED
S31508003E10134800F03AF910F0F3FF044600BF2046B5
S31508003E200DF074FA30B9224600230EA00DF074FA8C
S31508003E3000BFFEE700BF04B910BD0E49204611F0C9
S31508003E40BFF80D49204611F0BDF80C49204611F07F
S31508003E50BBF80B49204611F0B1F800BFECE70000AB
S31508003E60DC0400204F7574206F66206D656D6F72D7
S31508003E707900000011460108C94A0108114D0108D8
S31508003E80D945010810B50021084611F09BFF10BD61
S31508003E902DE9FF4104460F4614B90DF05FFB0446B1
S31508003EA00CB9BDE8FF813FB90021D4F8780161F368
S31508003EB01940C4F87801F4E70020ADF80800ADF819
S31508003EC00A0020460DF05DFB401E00B2ADF80C005E
S31508003ED020460DF0CDFB401E00B2ADF80E0002AA3A
S31508003EE039466846FEF730FE0646002E4CD0206955
S31508003EF018B1694620462269904700250BE004F16F
S31508003F005A0000EBC50100226846FEF75EFE00B1C6
S31508003F10C7E7681C85B2D4F87801C0F30940A842FF
S31508003F20EDDCD4F87801C0F3094020280BDAD4F880
S31508003F307811C1F3094204F15A0101EBC20069463E
S31508003F400BF0D3FC11E00021D4F8780161F3194095
S31508003F50C4F87801D4F87811C1F3094204F15A017A
S31508003F6001EBC20002A90BF0C0FCD4F87801000CE2
S31508003F70401CD4F8781160F31941C4F8781103216C
S31508003F80E06A18F033F800BF00BF8AE72DE9F04170
S31508003F9007460C4615461E462946384600F038F9A7
S31508003FA0AEB100222946204618F082FF294620464F
S31508003FB0626818F06FFF606820B12A46204661687B
S31508003FC018F076FF6560A068B0B9A56014E02946C8
S31508003FD02046A26818F06CFF00222946204618F0F1
S31508003FE059FFA06820B12A462046A16818F052FF5A
S31508003FF0A560606800B96560BDE8F08170B50546E2
S31508004000284600F013F8044600260CE02146284608
S3150800401000F023F806462146284600F0F9F820461F
S3150800402013F016FC3446002CF0D170BD0146002072
S3150800403001B14868704770B5064600243046FFF758
S31508004040F5FF054605E0641C2946304600F005F8EC
S315080040500546002DF7D1204670BD02460AB9002054
S3150800406070470B461068001D03441868F8E70246B7
S315080040700AB9002070470B46106803441868F9E728
S315080040800146002001B188687047002242608260BC
S31508004090CA1C22F003010160704770B50446216806
S315080040A001F1080013F068FB0546A5B10022294670
S315080040B0204618F0FDFE29462046626818F0EAFEFA
S315080040C0606820B12A462046616818F0F1FE6560EE
S315080040D0A06800B9A560284670BD2DE9F0410646DE
S315080040E00D4606B115B90020BDE8F0813046FFF748
S315080040F09DFFA84206D13046FFF7CFFF044624BBF2
S315080041000020F1E7316801F1080013F035FB044699
S315080041100CB90020E8E729463046FFF7A8FF07460E
S3150800412022463946304618F0B5FE3A46214630460C
S3150800413018F0BEFE22462946304618F0B9FE2A4631
S315080041402146304618F0A6FE00BF2046CCE770B5DB
S315080041500446216801F1080013F00EFB0546A5B1D7
S3150800416000222946204618F095FE29462046A268D0
S3150800417018F09EFEA06820B12A462046A16818F0CD
S3150800418089FEA560606800B96560284670BD01466D
S3150800419009B901207047486818B9886808B9012024
S315080041A0F8E70020F6E72DE9F04107460D461646E2
S315080041B0B54201D1BDE8F0812EB131463846FFF748
S315080041C056FF044603E03846FFF75AFF0446A54261
S315080041D000D1EFE72946384600F01AF82A46214664
S315080041E0384618F057FE22462946384618F060FE2B
S315080041F02A463146384618F05BFE32462946384686
S3150800420018F048FE06B9BD6004B97D6000BFD1E765
S315080042102DE9F04104460D462046FFF707FFA84260
S315080042200FD129462046FFF718FF6060606810B96D
S315080042300020A0602FE000222046616818F038FEB2
S3150800424029E02046FFF71CFFA8420FD12946204641
S31508004250FFF70DFFA060A06810B9002060601AE0A3
S3150800426000222046A16818F015FE14E029462046CB
S31508004270FFF7FDFE064629462046FFF7EEFE0746EF
S315080042803A463146204618F005FE3246394620465B
S3150800429018F00EFE00BFBDE8F081F0B50446059D96
S315080042A0944201DB2846F0BD8C4201DC1846FAE749
S315080042B0571AEE1A601A704390FBF7F01844F2E7A3
S315080042C010B5002406E00020114901EBC4018871ED
S315080042D0601CC4B2022CF6D3002415E00D4850F831
S315080042E0340078B10B4951F8340013F0B1FA0020C4
S315080042F0084941F8340001EBC4018871054901EB0E
S31508004300C4018880601CC4B2102CE7DB10BD000015
S3150800431004010020F40400202DE9F041054615B9F2
S315080043200020BDE8F081102D15D8002411E043487F
S3150800433000EBC400807900F0010040B901203F4934
S3150800434001EBC40188713D4850F83400E9E7601C68
S31508004350C4B2022CEBD34FF0FF3600242CE03848C9
S3150800436000EBC400807900F0010018BB344800EB6C
S31508004370C4008088A8421DD3314800EBC400808859
S31508004380A84208D101202E4901EBC40188712C48A6
S3150800439050F83400C5E7002E01DA66B20AE028486C
S315080043A000EBC4008088264901EBC601898888424B
S315080043B000DA66B2601CC4B2102CD0DB002E08DB13
S315080043C001201F4901EBC60188711D4850F83600C7
S315080043D0A7E7002427E01A4800EBC400807900F01C
S315080043E00100F0B9164951F83400294613F070FA5D
S315080043F007463FB900BF0022134612480CF08CFF4F
S3150800440000BFFEE701200E4901EBC40188710C4983
S3150800441001EBC4018D800A4840F8347050F8340026
S315080044207FE7601CC4B2102CD5DB00BF0022134600
S3150800443005A00CF071FF00BFFEE700000401002094
S31508004440F404002064CE03084E6F2066726565206A
S315080044506275666665722E20496E6372656173655C
S31508004460204C565F4D454D5F4255465F4D41585F5E
S315080044704E554D2E00000000014600200CE0114A62
S3150800448052F830208A4205D100220E4B03EBC003B6
S315080044909A717047421CD0B20228F0D300200CE073
S315080044A0094A52F830208A4205D10022064B03EB0E
S315080044B0C0039A71EDE7421CD0B21028F0DB00BFAA
S315080044C0E7E7000004010020F4040020014609B9CA
S315080044D0002070470448814201D10020F9E70A1FED
S315080044E010684008F5E70000FC0000200749084A64
S315080044F0116011460868016821F00101016047F65C
S31508004500FC72016862F35F010160704714060020BF
S31508004510F80000202DE9F0410F46154601463A46B7
S3150800452001F0030602F0030CB4457DD0C2E092F810
S31508004530008081F80080491C521C92F8008081F89E
S315080045400080491C521C92F8008081F80080491CA2
S31508004550521C92F8008081F80080491C521C92F87F
S31508004560008081F80080491C521C92F8008081F86E
S315080045700080491C521C92F8008081F80080491C72
S31508004580521C92F8008081F80080491C521C92F84F
S31508004590008081F80080491C521C92F8008081F83E
S315080045A00080491C521C92F8008081F80080491C42
S315080045B0521C92F8008081F80080491C521C92F81F
S315080045C0008081F80080491C521C92F8008081F80E
S315080045D00080491C521C92F8008081F80080491C12
S315080045E0521C92F8008081F80080491C521C92F8EF
S315080045F0008081F80080491C521C92F8008081F8DE
S315080046000080491C521C92F8008081F80080491CE1
S31508004610521C92F8008081F80080491C521C92F8BE
S31508004620008081F8008000E053E0491C521C92F893
S31508004630008081F80080491C521C92F8008081F89D
S315080046400080491C521C92F8008081F80080491CA1
S31508004650521C92F8008081F80080491C521C92F87E
S31508004660008081F80080491C521C92F8008081F86D
S315080046700080491C521C92F8008081F80080491C71
S31508004680521C92F8008081F80080491C521C92F84E
S31508004690008081F80080491C521C92F8008081F83D
S315080046A00080491C521C92F8008081F80080491C41
S315080046B0521C203D202D3FF63AAF06E092F80080C6
S315080046C081F80080491C521C6D1E002DF6D1BDE8EC
S315080046D0F0816EB1C6F1040607E092F8008081F811
S315080046E00080491C521C761E6D1E0EB1002DF4D199
S315080046F00B46144630E0D4F80080C3F800801B1D32
S31508004700241DD4F80080C3F800801B1D241DD4F88E
S315080047100080C3F800801B1D241DD4F80080C3F850
S3150800472000801B1D241DD4F80080C3F800801B1DC3
S31508004730241DD4F80080C3F800801B1D241DD4F85E
S315080047400080C3F800801B1D241DD4F80080C3F820
S3150800475000801B1D241D203D202DCCD806E0D4F852
S315080047600080C3F800801B1D241D2D1F042DF6D8BC
S315080047701946224606E092F8008081F80080491C16
S31508004780521C6D1E002DF6D100BFA0E730B50446B9
S315080047900B4604E01D782570641C5B1C521E002A1B
S315080047A0F8D130BD30B504460B4604E01D782570B7
S315080047B0641C5B1C521E002AF8D130BD30B5044675
S315080047C00B4604E01D782570641C5B1C521E002AEB
S315080047D0F8D130BD30B504460B4604E01D78257087
S315080047E0641C5B1C521E002AF8D130BD30B5044645
S315080047F00B4604E01D782570641C5B1C521E002ABB
S31508004800F8D130BDF0B506460B46344604F003052C
S315080048104DB1C5F1040503E02370641C521E6D1EDC
S315080048200DB1002AF8D103EB032707EB034707EB83
S315080048300361204610E00160001D0160001D016053
S31508004840001D0160001D0160001D0160001D016062
S31508004850001D0160001D203A202AECD802E0016004
S31508004860001D121F042AFAD8044602E02370641CAD
S31508004870521E002AFAD1F0BD30B50446224602F08F
S31508004880030353B1C3F1040304E000251570521C59
S31508004890491E5B1E0BB10029F7D1104611E0002511
S315080048A00560001D0560001D0560001D0560001DF2
S315080048B00560001D0560001D0560001D0560001DE2
S315080048C020392029EBD803E000250560001D091FC3
S315080048D00429F9D8024603E000251570521C491E22
S315080048E00029F9D130BD30B50446224602F003034B
S315080048F053B1C3F1040304E0FF251570521C491E89
S315080049005B1E0BB10029F7D1104612E04FF0FF35B8
S315080049100560001D0560001D0560001D0560001D81
S315080049200560001D0560001D0560001D0560001D71
S3150800493020392029EAD804E04FF0FF350560001D2C
S31508004940091F0429F8D8024603E0FF251570521CF2
S31508004950491E0029F9D130BD2DE9F04107460D461B
S3150800496000240CE02146384614F007F9064606B935
S3150800497007E0706865F3CB207060601CC4B2402CF9
S31508004980F0DB00BF40240CE02146384614F0F5F869
S31508004990064606B907E0706865F3CB207060601CB0
S315080049A0C4B2FF2CF0DB00BFBDE8F0812DE9FE4F55
S315080049B005460E46144627464FEA27294FF0000AB1
S315080049C0A84626E03146404614F0D7F8009031460E
S315080049D0404614F013F8834607EB0B2084B201AA6D
S315080049E02146009800F00CFC8246BAF1010F04D16A
S315080049F0BDF804100846BDE8FE8F09F0800000B92E
S31508004A000AE00EB1002604E0404613F0A1FF8046F6
S31508004A1000BFB8F1000FD5D100BF24F4FE44292CFD
S31508004A2002D02A2C08D100E000BF06480068009092
S31508004A30BDF800100846DEE700200290BDF8081011
S31508004A400846D8E78C0702082DE9FE4F06460F46AA
S31508004A501546A8464FEA2820029000200090B14645
S31508004A6013E13946484614F088F80446A088C0F38E
S31508004A70C020002874D1207900F03F0000286FDD9F
S31508004A80A088C0F3802028B925F4FE423946484656
S31508004A901BF084FC4FF0000B25F4FE4030286AD04A
S31508004AA024DC112875D010DC05285CD006DC01282A
S31508004AB070D0022845D0042849D153E0062850D0A2
S31508004AC0072851D01028F7D189E0162871D006DCBE
S31508004AD012286FD013286ED01528EDD189E0172833
S31508004AE06AD0182869D02028E6D190E0602873D0CB
S31508004AF010DC402856D006DC312843D032286CD04A
S31508004B003328D9D147E0422868D050285DD05428A8
S31508004B10D2D182E048F28102811A904219D009DC8A
S31508004B2072287CD0912875D0A0F5004080380028DE
S31508004B30C2D10DE0012979D002296FD01F297CD175
S31508004B4067E0A088C0F3803008B14FF0010B74E02D
S31508004B5000BF6068C0F3407008B14FF0010B6CE00D
S31508004B6071E000BF00BF00BFA088C0F3C03008B125
S31508004B704FF0010B61E06068C0F3405008B14FF098
S31508004B80010B5AE06068C0F3805008B14FF0010B82
S31508004B9053E025E012E06068C0F3C05008B14FF05A
S31508004BA0010B4AE06068C0F3006008B14FF0010BE2
S31508004BB043E01FE015E015E01DE01DE0A088C0F306
S31508004BC0003008B14FF0010B37E06068C0F3806031
S31508004BD008B14FF0010B30E01EE019E01BE000BF02
S31508004BE000BF00BF6068C0F3004008B14FF0010B7A
S31508004BF023E000BF00BF00BF6068C0F3404008B1B3
S31508004C004FF0010B19E00AE004E00FE006E000BFF0
S31508004C1000BF00BF00BF00BF00BF00BF00BF606885
S31508004C20C0F3804008B14FF0010B06E06068C0F39E
S31508004C30807008B14FF0010B00BF00BFBBF1000F39
S31508004C4000D026E000BF3946484613F0D7FE824614
S31508004C5008EB0A2085B201AA2946204600F01CFB6B
S31508004C6000900098012803D1BDF90400BDE8FE8F25
S31508004C70029800F0800000B90BE00FB1002704E0AD
S31508004C80484613F065FE814600BFB9F1000F7FF470
S31508004C90E8AE00BF25F4FE45222D10D004DC032D16
S31508004CA009D0072D10D10CE0312D02D0C02D0BD123
S31508004CB003E00F20DAE70620D8E71020D6E7FF2022
S31508004CC0D4E74FF48070D1E70020CFE72DE9FE4FF7
S31508004CD006460F461446A0464FEA282002900020B2
S31508004CE00090B14668E03946484613F046FF054647
S31508004CF0A888C0F3C02000283DD1287900F03F00DD
S31508004D00002838DDA888C0F3802028B924F4FE429C
S31508004D10394648461BF042FB4FF0000B24F4FE4090
S31508004D202C280DD0A0F500400C3810B1A1281CD1B4
S31508004D3014E0A888C0F3403008B14FF0010B14E026
S31508004D406868C0F3005010B1FF20BDE8FE8F6868A0
S31508004D50C0F3C04008B14FF0010B06E06868C0F325
S31508004D60007008B14FF0010B00BF00BFBBF1000F88
S31508004D7000D024E000BF3946484613F03FFE82467D
S31508004D8008EB0A2084B201AA2146284600F0D0FA88
S31508004D9000900098012802D19DF80400D5E70298F2
S31508004DA000F0800000B90AE00FB1002704E0484689
S31508004DB013F0CEFD814600BFB9F1000F93D100BFB5
S31508004DC024F4FE442C2C06D06D2C06D0A4F5004005
S31508004DD0AD3820B900E000BF00BF0020B5E7FF20CE
S31508004DE0B3E700002DE9FE4F06460F461446A046D7
S31508004DF04FEA2820029000200090B14660E039462C
S31508004E00484613F0BAFE0546A888C0F3C020A0BBE2
S31508004E10287900F03F00002831DDA888C0F38020FB
S31508004E2028B924F4FE42394648461BF0B7FA4FF033
S31508004E30000B24F4FE406E280DD07F2804D0A0F580
S31508004E4000408E38A0B90DE06868C0F3C06008B1AC
S31508004E504FF0010B0CE06868C0F3406008B14FF0F2
S31508004E60010B05E06868C00F08B14FF0010B00BFE1
S31508004E7000BFBBF1000F01D025E000E000BF3946B6
S31508004E80484613F0BBFD824608EB0A2084B201AA05
S31508004E902146284600F098FA00900098012802D189
S31508004EA00198BDE8FE8F029800F0800000B90AE07C
S31508004EB00FB1002704E0484613F04AFD814600BFBB
S31508004EC0B9F1000F9BD100BF24F4FE447E2C06D016
S31508004ED0BE2C07D0A4F500408E3828B900BF17F0BD
S31508004EE0D7F8DEE70148DCE70020DAE7A02F030859
S31508004EF02DE9FF4105460E4614463146284613F06D
S31508004F003CFE074621463846039A00F069FB002313
S31508004F102246314628461BF0F9F924F4FE4231466A
S31508004F20284614F0D9FDBDE8FF812DE9F041064673
S31508004F300F4614461D463946304613F01EFE804677
S31508004F402A462146404600F058FB002322463946A9
S31508004F5030461BF0DBF924F4FE423946304614F09D
S31508004F60BBFDBDE8F08100000148006870470000FD
S31508004F7018000020704730B50002002300BF9C18B7
S31508004F8004FB04F5854200D823465208002AF6D1C8
S31508004F90C3F30F150D801D072D0E4D8030BD2DE96D
S31508004FA0F04105460F4616463946284608F00CFDD8
S31508004FB00446002C03DA4FF0FF30BDE8F081A01C50
S31508004FC02A68111802223046FFF7ECFB21462846CC
S31508004FD008F047FD804608F07F00EEE72DE9F0412E
S31508004FE005460F4616463946284608F0EDFC04469F
S31508004FF0002C03DA4FF0FF30BDE8F081A01C2A68C8
S31508005000111802223046FFF7CDFB2146284608F044
S3150800501028FD804608F07F00EEE770B504460CB11F
S31508005020206808B9002070BD002504E029463046EE
S3150800503008F09AFC05462946204608F01BFD064658
S31508005040FF28F3D1A81C80B2EDE72DE9F04105460B
S315080050500F4616463946284608F0B6FC0446002C84
S3150800506003DA4FF0FF30BDE8F081A01C2A6811185A
S3150800507001223046FFF796FB2146284608F0F1FC48
S31508005080804608F07F00EEE72DE9F04105460F4619
S3150800509016463946284608F097FC0446002C03DADB
S315080050A04FF0FF30BDE8F081A01C2A6811180422D1
S315080050B03046FFF777FB2146284608F0D2FC8046A3
S315080050C008F07F00EEE700002DE9F0410446884627
S315080050D00CB9BDE8F0814146204600F0C7F92079B1
S315080050E000F03F0020B9042012F046FB054608E010
S315080050F0227902F03F02521C9100206812F0E8FB68
S31508005100054600BF28460CF001F930B92A460023A7
S3150800511016A00CF001F900BFFEE700BF05B9D8E7F5
S3150800512000272079C0F3C01008B1781CC7B22079CF
S31508005130C0F3801008B1781CC7B2207900F03F068A
S3150800514006E0701E55F8200045F82600701EC6B207
S31508005150BE42F6DC45F827802079401C616860F37A
S3150800516005016160256000BFB3E700004F75742034
S315080051706F66206D656D6F727900000070B5044624
S315080051802079C0F3C01018B1204600F064F970BD4C
S31508005190042012F0F1FA054600BF28460CF0B6F8CE
S315080051A030B92A46002312A00CF0B6F800BFFEE775
S315080051B000BF0DB90020EAE7284616F013FA29467B
S315080051C02046FFF781FF606820F08000803060602D
S315080051D02079C0F3801040B12168086821684968C1
S315080051E0226811602168486000BF2846CFE70000A2
S315080051F04F7574206F66206D656D6F7279000000BB
S315080052002DE9FC5F04468A46164614B90020BDE817
S31508005210FC9F206808B90020F9E74FEA2A2BD846F0
S315080052204FF0FF3900200190002529E0E9B2204619
S3150800523016F081FA009001AA51460098FFF7AFFED2
S315080052400746474504D1BDF8040030800120DEE753
S315080052502079C0F3C01058B1002F09DB45B9A088E2
S31508005260C0F3002020B9BDF8040030800120CEE745
S315080052704F4503DDB946BDF804003080681C05B209
S31508005280207900F03F00A842D0DCB9F1000F01DB1D
S315080052900120BCE70020BAE72DE9FC5F04468A46F0
S315080052A0164614B90020BDE8FC9F206808B90020FE
S315080052B0F9E74FEA2A2BD8464FF0FF39002001902C
S315080052C0002529E0E9B2204616F035FA009001AA31
S315080052D051460098FFF782FE0746474504D1BDF9B7
S315080052E0040030800120DEE72079C0F3C01058B1F1
S315080052F0002F09DB45B9A088C0F3002020B9BDF905
S31508005300040030800120CEE74F4503DDB946BDF9DC
S3150800531004003080681C05B2207900F03F00A842DE
S31508005320D0DCB9F1000F01DB0120BCE70020BAE7A9
S315080053302DE9FC5F04468A46164614B90020BDE8E6
S31508005340FC9F206808B90020F9E74FEA2A2BD846BF
S315080053504FF0FF3900200190002529E0E9B22046E8
S3150800536016F0E9F9009001AA51460098FFF76DFE7C
S315080053700746474504D19DF8040030700120DEE752
S315080053802079C0F3C01058B1002F09DB45B9A088B1
S31508005390C0F3002020B99DF8040030700120CEE744
S315080053A04F4503DDB9469DF804003070681C05B208
S315080053B0207900F03F00A842D0DCB9F1000F01DBEC
S315080053C00120BCE70020BAE72DE9FC5F04468A46BF
S315080053D0164614B90020BDE8FC9F206808B90020CD
S315080053E0F9E74FEA2A2BD8464FF0FF39002526E081
S315080053F0E9B2204616F09FF9009001AA5146009896
S31508005400FFF742FE0746474503D101983060012061
S31508005410E1E72079C0F3C01050B1002F08DB3DB991
S31508005420A088C0F3002018B9019830600120D2E79F
S315080054304F4502DDB94601983060681C05B22079EF
S3150800544000F03F00A842D3DCB9F1000F01DB0120D0
S31508005450C1E70020BFE701460879C0F3C01008B9C4
S315080054600020704708680068FBE700002DE9F04750
S3150800547004460F46207900F03F0008B9BDE8F087DA
S315080054804FF00008002509E0206850F82500B842CA
S3150800549002D14FF0010806E0681CC5B2207900F079
S315080054A03F00A842F0DC00BFB8F1000F00D1E5E7E5
S315080054B0207900F03F0001280DD1206812F0C8F9C4
S315080054C000202060606820F03F006060606820F07F
S315080054D040006060D2E7217901F03F01491E88004B
S315080054E012F04AF9064600BF30460BF00FFF30B9F6
S315080054F03246002316A00BF00FFF00BFFEE700BFE1
S3150800550006B9BBE70025A94611E0206850F8250032
